:10000000AAC100000C9441120C9441120C944112AC
:100010000C9441120C9441120C9441120C94411214
:100020000C9441120C9441120C94A920B2C100000E
:10003000B0C100000DC400004CC400008BC400001F
:10004000A8C10000A6C10000A4C10000A2C1000018
:10005000A0C10000C0C400009CC100009AC1000003
:1000600098C1000096C100000C94B00A92C1000033
:1000700090C100000C942A0E8CC100008AC10000BF
:1000800088C1000086C1000084C1000082C1000058
:1000900080C100007EC100004279746573546F52C4
:1000A0006561643D00526563656976656420004959
:1000B0006E697469616C69736174696F6E20436FF6
:1000C0006D706C6574650D0A00496E697469616CC8
:1000D0006973696E670D0A005374617274696E67A3
:1000E00020426F6F746C6F616465720D0A0050720C
:1000F0006F63657373696E67204F757470757420D4
:100100005265706F72740D0A002C00434C454152C9
:100110005F464541545552453D002C005345545FC0
:1001200049444C453D002C002C002C004745545FB1
:100130005245504F52543D002C005543503D00292C
:100140000D0A00555342204849442076312E302074
:10015000496E697469616C697365642028002000C8
:10016000476574205265706F7274204465736372C2
:100170006970746F722000200047657420484944FC
:100180002044657363726970746F722000200020D0
:100190000047657420537472696E67200020004721
:1001A000657420436F6E66696775726174696F6EFE
:1001B0002044657363726970746F72200020004779
:1001C000657420446576696365204465736372696C
:1001D00070746F722000476F7420756E657870655B
:1001E00063746564207479706520696E20496E6956
:1001F00074436F6E74726F6C73202D2030780050D2
:100200006F74656E74696F6D6574657220666F7565
:100210006E64206F6E2077726F6E6720706F7274DD
:10022000202D20506F72743D307800496E697453F0
:1002300077697463680D0A002C00506F7274200097
:10024000476F74204C454420537461746520004905
:100250006E69744C45440D0A00476F74204269630F
:100260006F6C6F75724C4544205374617465200047
:10027000476F7420547269636F6C6F75724C45449C
:1002800020537461746520004C434420466F6E74A3
:10029000205265706F7274004C4344204F75747027
:1002A0007574205265706F7274002044373D0020D1
:1002B00044363D002044353D002044343D00204577
:1002C0003D002052573D0052533D00496E6974690C
:1002D000616C6973696E672038626974204C4344AD
:1002E0000D0A00496E697469616C6973696E6720F3
:1002F00034626974204C43440D0A002C204D617314
:100300006B3D002C20426974733D00496E69744353
:100310006F756E74657220506572696F643D002C54
:100320002056616C75653D0050574D20506F7274BA
:100330003D002C2056616C75653D0050574D205096
:100340006F72743D000D0A00436C65617246656111
:10035000747572653D0011241FBECFEFD0E2DEBF81
:10036000CDBF11E0A0E0B1E0E4E6F3E400E00BBFB4
:1003700002C007900D92AC30B107D9F712E0ACE0A3
:10038000B1E001C01D92AA38B107E1F7D9D60C94AB
:10039000B02136CEE82FFF27EE0FEE0F8827EE5262
:1003A000FE4F0994009981E008950000019981E0D1
:1003B00008950000029981E008950000039981E00A
:1003C00008950000049981E008950000059981E0F6
:1003D00008950000069981E008950000079981E0E2
:1003E00008950000189981E008950000199981E0AE
:1003F000089500001A9981E0089500001B9981E09A
:10040000089500001C9981E0089500001D9981E085
:10041000089500001E9981E0089500001F9981E071
:1004200008950000309981E008950000319981E03D
:1004300008950000329981E008950000339981E029
:1004400008950000349981E008950000359981E015
:1004500008950000369981E008950000379981E001
:1004600008950000489981E008950000499981E0CD
:10047000089500004A9981E0089500004B9981E0B9
:10048000089500004C9981E0089500004D9981E0A5
:10049000089500004E9981E0089500004F9981E091
:1004A00008950000609981E008950000619981E05D
:1004B00008950000629981E008950000639981E049
:1004C00008950000649981E008950000659981E035
:1004D00008950000669981E008950000679981E021
:1004E00008950000789981E008950000799981E0ED
:1004F000089500007A9981E0089500007B9981E0D9
:10050000089500007C9981E0089500007D9981E0C4
:10051000089500007E9981E0089500007F9981E0B0
:1005200008950000E82FFF27EE0F8827E756FD4FBC
:100530000994109A0895119A0895129A0895139A99
:100540000895149A0895159A0895169A0895179A79
:100550000895289A0895299A08952A9A08952B9A19
:1005600008952C9A08952D9A08952E9A08952F9AF9
:100570000895409A0895419A0895429A0895439A99
:100580000895449A0895459A0895469A0895479A79
:100590000895589A0895599A08955A9A08955B9A19
:1005A00008955C9A08955D9A08955E9A08955F9AF9
:1005B0000895709A0895719A0895729A0895739A99
:1005C0000895749A0895759A0895769A0895779A79
:1005D0000895889A0895899A08958A9A08958B9A19
:1005E00008958C9A08958D9A08958E9A08958F9AF9
:1005F0000895E82FFF27EE0F8827E050FD4F09945C
:1006000010980895119808951298089513980895D0
:1006100014980895159808951698089517980895B0
:1006200028980895299808952A9808952B98089550
:100630002C9808952D9808952E9808952F98089530
:1006400040980895419808954298089543980895D0
:1006500044980895459808954698089547980895B0
:1006600058980895599808955A9808955B98089550
:100670005C9808955D9808955E9808955F98089530
:1006800070980895719808957298089573980895D0
:1006900074980895759808957698089577980895B0
:1006A00088980895899808958A9808958B98089550
:1006B0008C9808958D9808958E9808958F98089530
:1006C000FB01DC0104C08D910190801921F441509F
:1006D0005040C8F7881B990B0895FB01DC0102C04C
:1006E00001900D9241505040D8F70895A0E0B0E03D
:1006F000ECE7F3E00C9483217C01EB018A016901B2
:1007000009C0CE012196F6010995F70181937F0179
:100710000150104001151105A1F7CDB7DEB7E8E093
:100720000C949F21DF92EF92FF920F931F937B0116
:100730008C01FB010995D82EC8010196F701099596
:10074000982F8D2D1F910F91FF90EF90DF900895BE
:10075000FB019F01E8944230C4F04532B4F44A30C2
:1007600029F497FB1EF4909581959F4F642F77276E
:100770000E946521805D8A330CF0895D8193CB01F5
:100780000097A1F716F45DE251931082C90100C0F1
:10079000DC01FC01672F71917723E1F7329704C0E8
:1007A0007C916D9370836291AE17BF07C8F3089573
:1007B000282F392FEFE3F0E0808181FDFDCF822FDC
:1007C000932F92BD81BDF89A80B50895E1EFF0E0D6
:1007D000808190E04081342F20E0282B392B822F1C
:1007E000932F08958930910510F480E008958131A8
:1007F000910510F480E108958132910510F480E2B2
:1008000008958134910510F480E3089581389105AD
:1008100010F480E408958150914010F080E608952E
:1008200080E50895823049F4EBE2F0E08081962F74
:10083000907C8F73982B90830895813041F4EBE284
:10084000F0E08081962F90738F7C982B9083089591
:100850001F920F920FB60F920BB60F9211240F93A7
:100860001F932F933F934F935F936F937F938F9338
:100870009F93AF93BF93CF93DF93EF93FF938091B9
:100880001301982F81FF05C0EAE2F0E080818063C8
:10089000808392FF05C0EAE2F0E08081806C808373
:1008A00008EE13E0C8ECD0E081E060E2BBDF980125
:1008B000CE010197F1F721503040D1F781E060E19E
:1008C000B1DF9801CE010197F1F721503040D1F707
:1008D000EBCF1F920F920FB60F920BB60F9211240F
:1008E0000F931F932F933F934F935F936F937F9338
:1008F0008F939F93AF93BF93CF93DF93EF93FF9328
:1009000080911301982F81FF05C0EAE2F0E0808119
:100910008063808392FF05C0EAE2F0E08081806C12
:10092000808308EE13E0C8ECD0E081E060E27ADF7B
:100930009801CE010197F1F721503040D1F781E0C5
:1009400060E170DF9801CE010197F1F7215030404E
:10095000D1F7EBCF1F920F920FB60F920BB60F92FB
:1009600011240F931F932F933F934F935F936F9394
:100970007F938F939F93AF93BF93CF93DF93EF9327
:10098000FF9380911301982F81FF05C0EAE2F0E008
:1009900080818063808392FF05C0EAE2F0E080817D
:1009A000806C808308EE13E0C8ECD0E081E060E268
:1009B00039DF9801CE010197F1F721503040D1F78E
:1009C00081E060E12FDF9801CE010197F1F721501E
:1009D0003040D1F7EBCF1F920F920FB60F92112438
:1009E0002F933F938F939F938091810290918202E6
:1009F00001969093820280938102809180028F5FA2
:100A00008093800280917B0290917C02019690936A
:100A10007C0280937B0280917B0290917C02885EB5
:100A2000934049F480917F028F5F80937F02109200
:100A30007C0210927B0280917D0290917E02019651
:100A400090937E0280937D0220910A0130910B01E8
:100A50008217930768F0809177029091780201964F
:100A6000909378028093770210927E0210927D021A
:100A70009F918F913F912F910F900FBE0F901F90DC
:100A800018952F923F924F925F926F927F928F9222
:100A90009F92AF92BF92CF92DF92EF92FF920F930D
:100AA0001F93DF93CF93CDB7DEB7C154D0400FB6BD
:100AB000F894DEBF0FBECDBF809114018823B9F436
:100AC00080917902882319F089EC90E0A7D5809174
:100AD0001101909112010E94B70D81E080931401E1
:100AE00080917902882319F08FEA90E097D5809160
:100AF0000D0190910E01019690930E0180930D01CE
:100B000090917F0280910C01891791F080917F0272
:100B100080930C0180917902882331F080910D013E
:100B200090910E01BFD58AD510920E0110920D0141
:100B300080918102909182022091160130911701DB
:100B4000821B930B895E934018F081E0809318011B
:100B50001982609111017091120181E0AE014E5F26
:100B60005F4F9E012F5F3F4F78D780918102909118
:100B700082022091160130911701821B930BC397BB
:100B800058F04981CE0102966FE571E050E098DDA2
:100B9000282F392F232B29F480911801882309F459
:100BA00060C080918902882309F45BC081E0809352
:100BB000E9008091E80085FF54C08091E80080FF43
:100BC00050C081E08093F10080917902882329F060
:100BD00081E090E04BD580E2FCD489818823F9F054
:100BE00010E0EE24FF246894E1F8EC0EFD1E0F2EB9
:100BF000F1EFCF2EDD24F02DF701E10FF11DE081A3
:100C0000D601EC9380917902882329F08E2F90E011
:100C10002DD580E2DED41F5F8981181768F380919B
:100C20007902882309F00AD5E8EEF0E080818E7F12
:100C3000808380818F7780832FE531E04981FE01B9
:100C40003296822F932F6E2F7F2F50E046DD8091BA
:100C50008102909182029093170180931601109265
:100C6000180180918902882309F4DCC082E0809316
:100C7000E9008091E80082FFD5C080917902882345
:100C800009F495C085EA90E0C9D491C0F4011081BF
:100C900080917902882329F0812F90E0E7D480E2C7
:100CA00098D480915E01882321F0813009F0A7C09B
:100CB00029C0812F81508930E8F4D6011C9300931C
:100CC0001901E0915B01F0915C01E10FF11D319799
:100CD000808180935D0180917902882341F0C30176
:100CE0009DD480915D0190E0C1D480E272D40093E4
:100CF0005E0185C0F70180818B7F808380818F7743
:100D000080837DC080911901F601E80FF11D1083E9
:100D10008F5F8093190180915D01815080935D0107
:100D2000882309F06CC080917902882311F0C101F9
:100D300075D4D6018C91833009F030C0F2018081E6
:100D40009181A281B3818F5D904FAD40BF4D61F520
:100D500080917902882331F088ED90E05FD42FD420
:100D60008823E9F3EFE3F0E0808181FDFDCF1FBA36
:100D70008FEF9FE092BD81BD10BC0FB6F894FA9A38
:100D8000F99A0FBE28E088E190E00FB6F894A89594
:100D9000809360000FBE20936000FFCF609111012F
:100DA00070911201A201DED510925E0128C00F2EB3
:100DB000F2EFAF2EBB24F02D0F2EF1EF8F2E9924E2
:100DC000F02D0F2EF8EEEF2EFF24F02D0F2EFAE16E
:100DD000CF2EF1E0DF2EF02D01E00F2EF8E96F2E7F
:100DE000F0E07F2EF02D0F2EFBE14F2EF1E05F2E75
:100DF000F02D0F2EFEEE2F2EF0E03F2EF02DD50120
:100E00008D919C91892B09F041CFE8EEF0E0808133
:100E10008B7F808380818F77808380917902882384
:100E200009F00CD4CF5BDF4F0FB6F894DEBF0FBED6
:100E3000CDBFCF91DF911F910F91FF90EF90DF9089
:100E4000CF90BF90AF909F908F907F906F905F906A
:100E50004F903F902F9008951F9380E490E0C2DC64
:100E6000182F146081E061EC412F0E94F91D82E08F
:100E700060EC412F0E94F91D80911301882359F0E5
:100E8000182F11FF03C081E060E2CCDC12FF03C029
:100E900082E060E4C7DCE0910F01F09110018081F5
:100EA0008F3F69F0682F677086958695869541E03B
:100EB00075D4E0910F01F0911001808133DB1F9117
:100EC0000895CF92DF92EF92FF920F931F93DF93DB
:100ED000CF93CDB7DEB7C254D0400FB6F894DEBF83
:100EE0000FBECDBF182FFE01EE5BFF4F60838091D8
:100EF0007902882381F08AE391E090D3812F90E0FA
:100F0000B5D388E391E08AD3FE01EE5BFF4F808189
:100F100090E0ACD393D3FE01EE5BFF4F80818295CE
:100F2000869587708370813009F0CEC0113009F04A
:100F3000A7C0E1EFF0E00081108148DC7C0146DCD5
:100F40006C01E8EEF0E08081877F808380917902F8
:100F50008823B9F08CE291E061D3812F90E086D3B1
:100F60008AE291E05BD3802F90E080D388E291E029
:100F700055D3C7017BD386E291E050D3C60176D327
:100F80005DD31330D1F46091110170911201802F63
:100F9000C8D4E8EEF0E080818E7F808380818F77F7
:100FA0008083808182FFFDCFE8EEF0E080818B7F3F
:100FB000808380818F778083B3C0113009F057C060
:100FC000013009F054C01982609111017091120131
:100FD00081E0AE014E5F5F4F9E012F5F3F4F3DD5D9
:100FE00081E08093F10080917902882329F081E0EB
:100FF00090E03CD380E2EDD289818823F9F010E0C3
:10100000CC24DD246894C1F8CC0EDD1E0F2EF1EF48
:10101000EF2EFF24F02DF601E10FF11DE081D70145
:10102000EC9380917902882329F08E2F90E01ED3D3
:1010300080E2CFD21F5F8981181768F3809179020F
:10104000882309F0FBD2E8EEF0E080818E7F808378
:1010500080818F778083808182FFFDCFE8EEF0E092
:1010600080818B7F808380818F77808359C0E8EE79
:10107000F0E080818E7F808380818F77808350C075
:101080001A3009F04DC0A2DB182FA0DB082F809189
:101090007902882369F08CE191E0C0D2812F90E041
:1010A000E5D28AE191E0BAD2802F90E0DFD2C6D2B9
:1010B000E8EEF0E08081877F808380818E7F80836F
:1010C00080818F7780832CC0113051F5E1EFF0E003
:1010D00000811081E080F080809179028823A9F05E
:1010E0008BE091E09BD2912F80E0202F30E0822B8B
:1010F000932BBCD289E091E091D29F2D80E02E2DE0
:1011000030E0822B932BB2D299D2E8EEF0E08081CE
:10111000877F808380818E7F808380818F778083AB
:10112000CE5BDF4F0FB6F894DEBF0FBECDBFCF91C1
:10113000DF911F910F91FF90EF90DF90CF90089576
:10114000DF92EF92FF920F931F93CF93DF93E4E52B
:10115000F0E09081A8958081877F808388E10FB639
:10116000F89480936000109260000FBE1082D92E18
:1011700093FF2CC0EFE3F0E0808181FDFDCF8FEF86
:101180009FE092BD81BDF89A80B58823F9F4EFE322
:10119000F0E0808181FDFDCF1FBA8FEF9FE092BD0F
:1011A00081BD8FEF80BD0FB6F894FA9AF99A0FBE01
:1011B0008CE692E028EC30E0F9013197F1F70197E5
:1011C000D9F7E0910001F09101010995EFE3F0E01A
:1011D000808181FDFDCF1FBA8FEF9FE092BD81BD61
:1011E0008FEF80BD0FB6F894FA9AF99A0FBE8091EE
:1011F000610080931501F894E1E6F0E080E88083D7
:1012000010820F2EF8EDEF2EF3E0FF2EF02D80E090
:1012100090E0B70187DAAC010AE812E0C80160E0AB
:1012200070E0970163DAF80184899589080F191F26
:101230001093100100930F01F8019181892F86709E
:1012400080931301892F807180937902E92EC80160
:10125000419690935C0180935B01C8014B969093FB
:101260001201809311011092190110925E011092E7
:101270001401109217011092160110921801109289
:101280007C0210927B0210927F02109280021092D8
:1012900082021092810282E084BD83E085BD8DE7E9
:1012A00087BDEEE6F0E080818260808384E88093F1
:1012B00064001092B600C801029663E070E00E94DC
:1012C000F81A809113018823F9F0282F30E0A90142
:1012D0004270507081FF05C0EAE2F0E080818063D7
:1012E000808322FF05C0EAE2F0E08081806C808389
:1012F000452B19F081E060E395DA8091130182FFBC
:1013000003C082E060EC8EDA80917902882319F0C4
:101310008CE090E097D1789480917902882349F00D
:1013200083E491E07BD18D2D90E0A0D18FE391E01B
:1013300075D180911301882361F081FF03C081E0A2
:1013400060E170DA8091130182FF03C082E060E8FF
:1013500069DAE5FE05C081E060E00E94CC1D04C0B2
:1013600081E060E00E94CC1D82E08093830200E077
:10137000C2E0D1E010E0202F30E0C901880F991FB2
:10138000880F991FFE01E80FF91F8381882361F000
:10139000C901880F991F880F991FFE01E80FF91FD7
:1013A0000180F281E02D09950F5F023020F3012FBB
:1013B000E2CFEF92FF920F931F93CF93DF93DA0167
:1013C000E9010AE812E0833009F451C0843028F4BE
:1013D000813059F0823039F429C0813209F478C063
:1013E000823209F495C080E0B4C0F801808591850F
:1013F00086579D4F8D939C9382859385998388838F
:1014000080917902882309F4A3C08FEB91E006D183
:10141000F8018085918546D18DEB91E0FFD0F801F0
:10142000828593853FD10AD181E093C0F8018485FC
:10143000958586579D4F8D939C9386859785998337
:10144000888380917902882309F482C08FE991E032
:10145000E5D0F8018485958525D18DE991E0DED030
:10146000F801868597851ED1E9D081E072C0E62E0D
:10147000FF24C701880F991FF801E80FF91F06889C
:10148000F789E02DE657FD4FED93FC93808188832B
:10149000198280917902882309F45AC081E991E088
:1014A000BDD0C701FFD08FE891E0B8D0C701880F49
:1014B000991FF801E80FF91F86899789F3D08DE805
:1014C00091E0ACD088819981EDD0B8D081E041C065
:1014D000F8018089918986579D4F8D939C938289CD
:1014E00093899983888380917902882389F189E798
:1014F00091E094D0F80180899189D4D087E791E078
:101500008DD0F80182899389CDD098D081E021C017
:10151000F8018481958186579D4F8D939C93868198
:1015200097819983888380917902882389F080E666
:1015300091E074D0F80184819581B4D08EE591E07A
:101540006DD0F80186819781ADD078D081E001C05F
:1015500081E0DF91CF911F910F91FF90EF9008955F
:101560001F920F920FB60F920BB60F9211248F930A
:101570009F93EF93FF9390911F0280912002981701
:1015800071F0809120028F5F8F7780932002EFE9C6
:10159000F1E0E80FF11D80818093CE0005C0E9ECF9
:1015A000F0E080818F7D8083FF91EF919F918F91FB
:1015B0000F900BBE0F900FBE0F901F90189590913B
:1015C0001F028091200220E0981709F421E0822F69
:1015D0000895282F80911F028F5F982F9F77809109
:1015E00020029817E1F3EFE9F1E0E90FF11D208304
:1015F00090931F02E9ECF0E080818062808308957F
:10160000CF93DF93EC018881882329F0E2DF2196D4
:1016100088818823D9F7DF91CF910895CF93DF9305
:10162000EC01FC018491882331F0D3DF2196FE0187
:1016300084918823D1F7DF91CF9108958DE0C9DFA0
:101640008AE0C7CF1092200210921F029093CD0023
:101650008093CC001092C800E9ECF0E0108286E0A4
:101660008093CA0080818860808308950F931F93C0
:10167000DF93CF9300D000D00F92CDB7DEB78E01AD
:101680000F5F1F4FB80140E150E062D8C801B8DFDA
:101690000F900F900F900F900F90CF91DF911F91AF
:1016A0000F9108950F931F93DF93CF93CDB7DEB7BC
:1016B00027970FB6F894DEBF0FBECDBF8E010F5F28
:1016C0001F4FB8014AE050E043D8C80199DF279680
:1016D0000FB6F894DEBF0FBECDBFCF91DF911F9143
:1016E0000F9108950F931F93CF93DF93EC018B011C
:1016F000E881F981DB013C912223C1F061E070E0D7
:10170000A0E0B1E0332319F4319610823B2FCB01D6
:1017100084239523892B19F08081832B8083330FB9
:10172000AF5FA21718F4660F771FECCFF983E88339
:10173000F8013083DF91CF911F910F9108950F939E
:101740001F93CF93DF93EC018B01E881F981DB01DB
:101750005C914423B1F0A0E0B0E021E030E060E033
:1017600091E0552311F43196592F8081852311F092
:10177000A22BB32B550F6F5F641728F4220F331F72
:10178000F0CFA0E0B0E0F983E883F80150838A2F1E
:101790009B2FDF91CF911F910F910895823009F413
:1017A0004CC0833030F4882371F0813009F0B8C028
:1017B00027C0843009F47BC0843008F45BC08530D6
:1017C00009F0AEC091C0442369F0E1E2F0E020816D
:1017D00081E090E002C0880F991F6A95E2F7282BFC
:1017E00020830895E1E2F0E0208181E090E002C0F2
:1017F000880F991F6A95E2F7809582238083089568
:10180000442369F0E4E2F0E0208181E090E002C04E
:10181000880F991F6A95E2F7282B20830895E4E248
:10182000F0E0208181E090E002C0880F991F6A9566
:10183000E2F78095822380830895442369F0E7E2EC
:10184000F0E0208181E090E002C0880F991F6A9546
:10185000E2F7282B20830895E7E2F0E0208181E081
:1018600090E002C0880F991F6A95E2F78095822365
:1018700080830895442369F0EAE2F0E0208181E06A
:1018800090E002C0880F991F6A95E2F7282B208309
:101890000895EAE2F0E0208181E090E002C0880F44
:1018A000991F6A95E2F780958223808308954423E7
:1018B00069F0EDE2F0E0208181E090E002C0880F65
:1018C000991F6A95E2F7282B20830895EDE2F0E056
:1018D000208181E090E002C0880F991F6A95E2F7AD
:1018E0008095822380830895442369F0E0E3F0E04B
:1018F000208181E090E002C0880F991F6A95E2F78D
:10190000282B20830895E0E3F0E0208181E090E03F
:1019100002C0880F991F6A95E2F780958223808321
:101920000895FF920F931F93CF93DF93F82EEB014F
:101930008881882389F08E018A818F1531F488810E
:10194000893019F4CE010E949E15F8018181C80FDB
:10195000D11D8881882379F7DF91CF911F910F9155
:10196000FF9008959F92AF92BF92CF92DF92EF9235
:10197000FF920F931F93DF93CF9300D00F92CDB7B9
:10198000DEB7982E8B015A83498381E08B83FB015C
:101990008081882309F452C00F2EF3E0AF2EBB24C0
:1019A000F02DAC0EBD1E6E010894C11CD11C780137
:1019B000F80182818915C9F58081893029F18A3041
:1019C00038F4873089F08830A0F4863071F507C08C
:1019D0008E30A1F08F30F1F08D3039F521C0C80183
:1019E000B601A501D4D621C0C801B601A50138D7DA
:1019F0001CC0C801B601A501ADD717C0C801B6010A
:101A0000A5010E94421511C0C801B601A5010E949E
:101A10009C170BC0C801B601A5010E94561705C04E
:101A2000C801B601A5010E94081CF7018181080FB9
:101A3000111DF8018081882309F0B9CF0F900F9014
:101A40000F90CF91DF911F910F91FF90EF90DF905A
:101A5000CF90BF90AF909F9008954F925F927F92EA
:101A60008F929F92AF92BF92CF92DF92EF92FF92AE
:101A70000F931F93DF93CF9300D00F92CDB7DEB7B4
:101A8000782E8B016A0129015A83498381E08B8377
:101A9000FA011082FB018081882309F450C00F2EC7
:101AA000F3E08F2E9924F02D8C0E9D1E5E0108947C
:101AB000A11CB11C7801F80182818715B9F58081DC
:101AC0008430F9F0853038F4823089F08330A0F426
:101AD000813061F507C08A30F1F08B3011F185302B
:101AE00029F514C0C801B501A4013AD11FC0C8012D
:101AF000B501A401A5D11AC0C801B501A40106D23F
:101B000015C0C801B501A40127D310C0C801B50193
:101B1000A40196D50BC0C801B501A4010E942219E9
:101B200005C0C801B501A4010E948D1AF701818189
:101B3000080F111DF8018081882309F0BBCF89812E
:101B40008F5F8C19F20180830F900F900F90CF91CF
:101B5000DF911F910F91FF90EF90DF90CF90BF909A
:101B6000AF909F908F907F905F904F9008950F93CC
:101B70001F93CF93DF93EC018881882309F465C01C
:101B80008E0188818730A1F1883078F4833021F18B
:101B9000843030F48130D1F0823009F042C019C075
:101BA000853001F1863008F51AC08B3091F18C3008
:101BB00028F4893031F18A3040F51DC08E30F1F0C3
:101BC0008F3009F43AC08D3061F527C0CE01F0D0D6
:101BD00034C0CE0171D131C0CE0145D22EC0CE016C
:101BE0005CD32BC0CE016BD528C0CE0106D625C054
:101BF000CE017FD622C0CE01FED61FC0CE0180D737
:101C00001CC0CE010E94331818C0CE010E94451A94
:101C100014C0CE010E949D1A10C0CE010E94A91CC2
:101C20000CC080917902882381F086ED91E0F6DC8A
:101C3000888190E01BDD02DD08C0F8018181C80FBA
:101C4000D11D8881882309F09BCFDF91CF911F910F
:101C50000F9108951F920F920FB60F920BB60F922D
:101C600011242F933F934F935F936F937F938F93A1
:101C70009F93AF93BF93EF93FF93809178009091E0
:101C8000790020913A0230913B02DC01A20FB31F90
:101C9000B0933B02A0933A0280913C028F5F809305
:101CA0003C02843009F049C080917C00582F577065
:101CB000852F8F5F482F4770842F90E0FC01EE0F37
:101CC000FF1FE80FF91FEE5DFD4F8081882399F417
:101CD00062E272E0842F8F5F482F4770242F30E03C
:101CE000C901880F991F820F931FFB01E80FF91F8D
:101CF0008081882379F3EAE7F0E080818F73808325
:101D0000842F806480937C008081806C8083852F09
:101D100090E0FC01EE0FFF1FE80FF91FED5DFD4F96
:101D2000CD0196958795969587959183808310929E
:101D30003C0210923B0210923A02FF91EF91BF9148
:101D4000AF919F918F917F916F915F914F913F9153
:101D50002F910F900BBE0F900FBE0F901F901895F4
:101D6000CF93DF93DC01EA01F89413968C911397DB
:101D700090E087709070FC01EE0FFF1FE80FF91FD5
:101D8000ED5DFD4F40815181789414962C912A305D
:101D900049F08AE090E0821B910902C05695479570
:101DA0008A95E2F7CB01BE019DDCDF91CF910895CA
:101DB000CF93DF93EC0180912102882339F488E1ED
:101DC000E2E2F2E0DF011D928A95E9F79B81892F1B
:101DD000869586958695853041F08FEF91E01EDCE3
:101DE0008B8190E043DC2ADC28C0892F90E09C01A5
:101DF00027703070F901EE0FFF1FE20FF31FEE5D49
:101E0000FD4F81E0808380912102882399F4109214
:101E10003C0210923B0210923A02822F806480931F
:101E20007C00EAE7F0E08EE2808310927B00808104
:101E3000806C808381E080932102DF91CF910895AF
:101E4000EF92FF920F931F93CF93DF93EC018B01DF
:101E50007A018B810E94CA01482F8C81982F90FFB4
:101E600003C081E0841B482F91FF1AC0442311F462
:101E70001D8216C09D8199239CF0992331F4809195
:101E800080028F778D8340E00BC080918002981B89
:101E9000892F8F778B3010F440E002C080E88D836B
:101EA000C801B70150E021E01DDCDF91CF911F9107
:101EB0000F91FF90EF9008950F931F93CF93DF93AF
:101EC000EC0180917902882319F08BE292E0A6DB85
:101ED0008B81082F069506950695182F1770802F71
:101EE000612F40E05BDC8C8180FF07C0802F880F72
:101EF000880F880F810F0E9492021D8281E08093DB
:101F00003D02DF91CF911F910F9108955F926F92E3
:101F10007F928F929F92AF92BF92CF92DF92EF9279
:101F2000FF920F931F93CF93DF938C014B013A01E4
:101F3000FC018581BB246894B2F8B822CC24C394F8
:101F4000C822DD246894D1F8D8228381882311F433
:101F5000EE2471C0EE24FF24AA24A3940F2EF0E8EF
:101F60005F2EF02DCF2DD0E0CE01880F991F8C0F62
:101F70009D1FF801E80FF91F87810E94CA01CC203C
:101F800019F0FA2DF81B8F2FDD20B9F1882351F4B9
:101F9000CE01880F991F8C0F9D1FF801E80FF91FC4
:101FA000118643C0CE01880F991F8C0F9D1FF80129
:101FB000E80FF91F9185992314F1992369F4809111
:101FC00080029E01220F331F2C0F3D1FF801E20FEC
:101FD000F31F8F77818729C080918002981B892FFA
:101FE0008F778B3010F1CE01880F991F8C0F9D1FBA
:101FF000F801E80FF91F518602C08823B1F0BB2019
:1020000051F4CE01880F991F8C0F9D1FF801E80F26
:10201000F91FE08410C0CE01880F991F8C0F9D1FFF
:10202000F801E80FF91F8085E82AF394F80183810D
:10203000F81608F497CFF801E682C401B3014E2DDB
:1020400050E024814FDBDF91CF911F910F91FF90E2
:10205000EF90DF90CF90BF90AF909F908F907F9048
:102060006F905F9008958F929F92AF92BF92CF92A0
:10207000DF92EF92FF920F931F93CF93DF937C0138
:10208000FC018581CC24C394C8228381882309F470
:1020900053C0DD240F2EFAE38F2EF2E09F2EF02D99
:1020A0000F2EF8E3AF2EF2E0BF2EF02DCD2DD0E0B5
:1020B000CE01880F991F8C0F9D1FF701E80FF91FA4
:1020C0008781182F169516951695082F0770812F62
:1020D000602F40E063DBCC2039F0812F880F880F20
:1020E000880F800F0E949202CE01880F991F8C0FDB
:1020F0009D1FF701E80FF91F11868091790288234F
:10210000A9F0C4018BDACE01880F991F8C0F9D1F97
:102110008701080F191FF801878190E0A7DAC50130
:102120007DDAF801808590E0A1DA88DAD394F701AE
:102130008381D81608F4BACF81E080933E02DF9104
:10214000CF911F910F91FF90EF90DF90CF90BF90B4
:10215000AF909F908F9008952F923F924F925F92F1
:102160006F927F928F929F92AF92BF92CF92DF92A7
:10217000EF92FF920F931F93DF93CF9300D000D085
:10218000CDB7DEB76C014B015A01FC0185814424B7
:1021900043944822A6014A5F5F4F83812481222312
:1021A00009F464C090E006963601680E791E73014A
:1021B000E20EF11C3324CA0149839A8300E02224F1
:1021C0002394522CF30180810E94F902F60183814D
:1021D000882309F43EC089819A819C838B83102FC8
:1021E000EB81FC8180810E94CA01422D481B442062
:1021F00001F1442319F4F701108218C0F70190810E
:102200009923A4F0992331F4809180028F77808301
:10221000402F0CC080918002981B892F8F778B30C4
:1022200010F4402F03C080E8F70180830894E11C7C
:10223000F11CC401B501502F252D54DA1F5FF601A2
:102240008381181730F48B819C8101969C838B834A
:10225000C7CFF30180810E9492023394F6018481FA
:10226000381620F40894611C711CACCF0F900F90AD
:102270000F900F90CF91DF911F910F91FF90EF90F2
:10228000DF90CF90BF90AF909F908F907F906F9096
:102290005F904F903F902F900895CF92DF92EF92F2
:1022A000FF920F931F93CF93DF937C010F2EF6E0E5
:1022B000CF2EDD24F02DC80ED91EFC01838188238A
:1022C000C9F0E6011991012F06950695069517703C
:1022D000802F612F40E062DA000F000F000F802F87
:1022E000810F0E9492029E012C19F7018381281709
:1022F00048F36E01F70184818823C9F0E601199142
:10230000012F0695069506951770802F612F41E0E5
:1023100045DA000F000F000F802F810F0E949202FC
:102320009E012C19F7018481281748F36E01F701EB
:10233000858180FF18C084812381829FC001112480
:102340001816190684F440E050E0F60111926F016E
:102350004F5F5F4FF70184812381829FC001112469
:102360004817590794F381E080933F02DF91CF91A2
:102370001F910F91FF90EF90DF90CF9008958330E1
:1023800031F1843009F44FC0813009F079C0E4E2C2
:10239000F0E0208181E090E002C0880F991F6A95EB
:1023A000E2F7682F809582238083442329F0E5E2B9
:1023B000F0E08081862B8083E8E6F0E08081816018
:1023C0008083EBE6F0E08081862B80830895EAE24B
:1023D000F0E0208170E081E090E0062E02C0880FDE
:1023E000991F0A94E2F7582F809582238083442313
:1023F00029F0EBE2F0E08081852B8083E9E6F0E0D4
:1024000040819B01220F331F81E090E002C0880FC2
:10241000991F2A95E2F7482B4083EDE3F0E0808195
:10242000852B80830895EDE2F0E0208170E081E06B
:1024300090E0062E02C0880F991F0A94E2F7582FE9
:10244000809582238083442329F0EEE2F0E08081AE
:10245000852B8083EAE6F0E040819B0124503040E8
:10246000220F331F81E090E002C0880F991F2A9548
:10247000E2F7482B4083EDE3F0E08081852B8083F9
:1024800008951F920F920FB60F920BB60F92112460
:102490004F925F926F927F928F929F92AF92BF9274
:1024A000CF92DF92EF92FF920F931F932F933F9360
:1024B0004F935F936F937F938F939F93AF93BF934C
:1024C000EF93FF93DF93CF9300D0CDB7DEB7FE013C
:1024D000319683B1808399B18CB1807F9F70892BB5
:1024E000818380914402882349F0109244028981BB
:1024F0009A8190934302809342027DC0E090420211
:10250000F090430209811A81E016F10609F473C0C4
:102510005801AE24BF2420914102222309F467C050
:10252000A5E4B2E0CC24DD24C3940F2EFDE56F2E8C
:10253000F2E07F2EF02D44245524689453F8215066
:1025400030E02F5F3F4FC901880F991F820F931F03
:102550004D01880E991EA6010C9002C0440F551F14
:102560000A94E2F7CA018A219B21892B69F4C601EA
:1025700011960C90119702C0880F991F0A94E2F7E8
:102580008A219B21892B71F1CA018E219F21892BE0
:1025900011F0352D01C0342DB60111960C90119714
:1025A00002C0660F771F0A94E2F7CB018E219F21AC
:1025B000892B09F03460CA0180239123892B09F00B
:1025C0003260CB0180239123892B09F03160F30124
:1025D000E30FF11D12968C9112979081890F12963C
:1025E0008C9312971396A815B90509F0B4CF1093E0
:1025F0004302009342020F900F90CF91DF91FF9121
:10260000EF91BF91AF919F918F917F916F915F916A
:102610004F913F912F911F910F91FF90EF90DF907D
:10262000CF90BF90AF909F908F907F906F905F9072
:102630004F900F900BBE0F900FBE0F901F901895EC
:10264000CF93DF93EA01FC019381892F86958695CC
:102650008695813011F028E001C020E0A091410270
:10266000AA2351F1892F8770922F980F80914502EC
:102670008917E1F440E050E007C0A90180812F5F95
:102680003F4F33968917B1F4F8947894FA01EE0F1E
:10269000FF1FE40FF51FE95BFD4F4081552747FD04
:1026A0005095CB01BE0128E01DD806C0E8E4F2E059
:1026B00021E030E02A1708F3DF91CF910895FF92CF
:1026C0000F931F93CF93DF93EC01809140028823F7
:1026D000A9F41092410291E090934402EDE5F2E0FA
:1026E00080E1DF011D928A95E9F793878FEF80875C
:1026F0009587868794838783928381838B81182F24
:10270000169516951695082F0770812F602F40E0BB
:1027100036DE8C810F2EF7E0FF2EF02DF822869505
:10272000869586956F2D40E02ADE90914102292FF3
:1027300030E0113001F5F901EE0FFF1FE20FF31F3A
:10274000EB5BFD4F008380E0F901EE0FFF1FE20F0E
:10275000F31FEB5BFD4F8F0D81831282892F8F5FFB
:102760008093410281E080934002DF91CF911F91DD
:102770000F91FF900895F901EE0FFF1FE20FF31F75
:10278000EB5BFD4F802F885F808388E0DDCF1F9358
:10279000CF93DF93EC01CB01BA0141E00E949F0B84
:1027A000182F80E492E00E940E0B812F90E00E948F
:1027B000520B0E941E0B8C8180FF03C081E0811BA5
:1027C000182F8B81282F269526952695982F977060
:1027D000112341F0822F880F880F880F890F0E94E4
:1027E000920207C0822F880F880F880F890F0E94DE
:1027F000F902DF91CF911F9108950F931F93CF930B
:10280000DF93EC0180917902882321F08FE492E03C
:102810000E940E0B8B81082F069506950695182FA2
:1028200017708C8180FF14C0802F880F880F880F4D
:10283000810F0E949202802F612F41E00E94CE0BF7
:1028400081E080936D02DF91CF911F910F910895E8
:10285000802F880F880F880F810F0E94F902EBCF1D
:10286000FF920F931F93CF93DF93EC01CB01BA013B
:1028700042E00E949F0B182F80917902882351F02B
:1028800089E592E00E940E0B812F90E00E94520B8E
:102890000E941E0B113069F08C81F82EF694F6948C
:1028A000F694082F07708B810E94F902123061F0B4
:1028B00013C08C81F82EF694F694F694082F0770C6
:1028C0008B810E94920208C08F2D880F880F880F7D
:1028D000800F0E94920207C08F2D880F880F880FEB
:1028E000800F0E94F902DF91CF911F910F91FF900D
:1028F0000895EF92FF920F931F93FC011381F12E25
:10290000F694F694F69417700481E02EE694E6941B
:10291000E69407708F2D880F880F880F810F0E9413
:10292000F9028E2D880F880F880F800F0E94F90200
:102930008F2D612F41E00E94CE0B8E2D602F41E044
:102940000E94CE0B81E080936E021F910F91FF9049
:10295000EF900895FF920F931F93CF93DF93EC01B5
:10296000CB01BA0142E00E949F0B182F80E792E052
:102970000E940E0B812F90E00E94520B0E941E0BB2
:10298000113011F4FF2409C0123019F4FF24F3941C
:1029900021C01330F1F4FF24F3948C81082F0695A5
:1029A00006950695182F17708B810E949202FF20C2
:1029B00041F0802F880F880F880F810F0E949202AC
:1029C00014C0802F880F880F880F810F0E94F90292
:1029D0000CC0FF248C81082F069506950695182FAC
:1029E00017708B810E94F902E2CFDF91CF911F9186
:1029F0000F91FF900895EF92FF920F931F93FC01A8
:102A00001381F12EF694F694F69417700481E02E5B
:102A1000E694E694E69407708F2D880F880F880F50
:102A2000810F0E94F9028E2D880F880F880F800F6A
:102A30000E94F9028F2D612F41E00E94CE0B8E2D56
:102A4000602F41E00E94CE0B81E080936F021F91C6
:102A50000F91FF90EF900895982F969596959695E3
:102A6000282F2770662339F0892F880F880F880F49
:102A7000820F0C949202892F880F880F880F820F83
:102A80000C94F9021F93CF93DF93EC01CB01BA01B1
:102A900043E00E949F0B182F8E8180FD1095612FBF
:102AA00064708B81D9DF612F62708C81D5DF612FDB
:102AB00061708D81D1DFDF91CF911F9108950F93C8
:102AC0001F93082F069506950695182F17706623F5
:102AD00079F0802F880F880F880F810F0E94920253
:102AE000802F612F41E00E94CE0B1F910F9108951E
:102AF000802F880F880F880F810F0E94F902F0CF76
:102B00000F931F938C01FC01668170E061707070FF
:102B10008381D5DFF801668170E061707070848117
:102B2000CEDFF801668170E0617070708581C7DF6B
:102B300081E0809370021F910F910895EF92FF92B0
:102B40000F931F93CF93DF938C010E5F1F4FC0E055
:102B5000D0E00F2EF1EFEF2EFF24F02D80917902BF
:102B6000882341F0F801808190E00E94360B80E2DA
:102B70000E94E90AF8018081F70180832196C33021
:102B8000D10519F00F5F1F4FE9CF8091790288239B
:102B900011F00E941E0BDF91CF911F910F91FF90BA
:102BA000EF9008951F93CF93DF93EC01162F8D8143
:102BB000882321F18985682F67708695869586958B
:102BC000412F0E94CE0B8A85682F67708695869567
:102BD0008695412F0E94CE0B8B85682F6770869556
:102BE00086958695412F0E94CE0B8C85682F677045
:102BF000869586958695412F0E94CE0B8D85682FF0
:102C00006770869586958695412F0E94CE0B8E859E
:102C1000682F6770869586958695412F0E94CE0B0A
:102C20008F85682F6770869586958695412F0E94BF
:102C3000CE0B8889682F6770869586958695412F7B
:102C40000E94CE0BDF91CF911F910895DF92EF92FA
:102C5000FF920F931F93CF93DF93EC01D62EE42EB8
:102C60008D81882309F480C0CE0160E09BDF8E81D6
:102C70000E94F9028F810E9492020FEFFF24689454
:102C8000F1F888850E9492028F2D8A95F1F7888944
:102C90000E94CA01182F88850E94F902112311F0A1
:102CA000015079F7CE0161E07DDFDD2021F08E81DA
:102CB0000E94920203C08E810E94F9028F810E94BD
:102CC000F9021E2DE0FE04C089850E94920203C015
:102CD00089850E94F90211FF04C08A850E94920230
:102CE00003C08A850E94F90212FF04C08B850E94EE
:102CF000920203C08B850E94F90213FF04C08C85E9
:102D00000E94920203C08C850E94F90214FF04C045
:102D10008D850E94920203C08D850E94F90215FFE5
:102D200004C08E850E94920203C08E850E94F90223
:102D300016FF04C08F850E94920203C08F850E94F7
:102D4000F902EE2024F488890E94920203C0888947
:102D50000E94F90288850E94920282E08A95F1F72A
:102D600088850E94F9029AC0CE0160E01BDF8E8147
:102D70000E94F9028F810E9492020FEFFF24689453
:102D8000F1F888850E9492028F2D8A95F1F7888943
:102D90000E94CA01182F88850E94F9028F2D8A95FA
:102DA000F1F788850E9492028F2D8A95F1F7888924
:102DB0000E94CA0188850E94F902112311F0015076
:102DC00001F7CE0161E0EEDEDD2021F08E810E9470
:102DD000920203C08E810E94F9028F810E94F90243
:102DE0000E2DE4FE04C08D850E94920203C08D85E5
:102DF0000E94F90205FF04C08E850E94920203C062
:102E00008E850E94F90206FF04C08F850E949202FF
:102E100003C08F850E94F902EE2024F488890E9465
:102E2000920203C088890E94F90288850E9492025A
:102E300012E0812F8A95F1F788850E94F9021A9590
:102E4000F1F700FF04C08D850E94920203C08D85BA
:102E50000E94F90201FF04C08E850E94920203C005
:102E60008E850E94F90202FF04C08F850E949202A3
:102E700003C08F850E94F90203FF04C088890E9465
:102E8000920203C088890E94F90288850E949202FA
:102E900082E08A95F1F788850E94F902DF91CF914F
:102EA0001F910F91FF90EF90DF900895CF92DF92E6
:102EB000EF92FF920F931F93CF93DF93EC017B016F
:102EC0006A0180917902882331F088E892E00E94BB
:102ED0000E0B0E941E0B8E0105511040C701B6015A
:102EE00048E00E949F0B482F440F440F440F40645A
:102EF000C80160E0ABDEC0E0D0E0C701B60145E04C
:102F00000E949F0B482FC80161E0A0DE2196C730C8
:102F1000D10599F7C80161E040E098DEC701B6012C
:102F200045E00E949F0BDF91CF911F910F91FF9081
:102F3000EF90DF90CF900895AF92BF92CF92DF9243
:102F4000EF92FF921F93CF93DF937C015B016A01A5
:102F500080917902882331F088E992E00E940E0B7B
:102F60000E941E0BC501B60148E00E949F0B182F5E
:102F7000C501B60148E00E949F0BF7019381915073
:102F80009823E90FF11D4189410F4068C70160E0B6
:102F90005DDEF70184818823A1F0C0E0D0E0C501A7
:102FA000B60148E00E949F0B482F882351F0C701CB
:102FB00061E04CDE2196F701848190E0C817D907C3
:102FC00074F3DF91CF911F91FF90EF90DF90CF903E
:102FD000BF90AF9008950F931F93CF93DF93EC01B1
:102FE000162F042F61E0DEDD112321F08E810E9477
:102FF000920203C08E810E94F9028F810E94F90221
:10300000102F00FF04C08D850E94920203C08D85A1
:103010000E94F90211FF04C08E850E94920203C033
:103020008E850E94F90212FF04C08F850E949202D1
:1030300003C08F850E94F90213FF04C088890E9493
:10304000920203C088890E94F90288850E94920238
:1030500082E08A95F1F788850E94F902DF91CF918D
:103060001F910F910895CF93DF93EC01809171022E
:10307000882321F4809180028D32E0F38E810E94BA
:10308000F9028F810E94F90288850E94F902CE011F
:1030900060E088DD8E81682F6770869586958695BD
:1030A00041E00E94CE0B8F81682F677086958695D0
:1030B000869541E00E94CE0B8885682F67708695C3
:1030C0008695869541E00E94CE0B809179028823F7
:1030D000D1F187EC92E00E940E0B8E8190E00E946D
:1030E000360B82EC92E00E940E0B8F8190E00E94E2
:1030F000360B8EEB92E00E940E0B888590E00E94CA
:10310000360B89EB92E00E940E0B8D8590E00E94B9
:10311000360B84EB92E00E940E0B8E8590E00E94AD
:10312000360B8FEA92E00E940E0B8F8590E00E9492
:10313000360B8AEA92E00E940E0B888990E00E948A
:10314000360B0E941E0B8D81882309F439C08091B3
:103150007902882321F08BEC92E00E940E0BCE01C5
:1031600060E040E373DD80E197E20197F1F7CE0183
:1031700060E040E36BDD88EC90E00197F1F7CE0171
:1031800060E040E363DD8B81823028F0CE0160E0B7
:1031900048E35CDD04C0CE0160E040E357DDCE01D2
:1031A00060E048E053DDCE0160E041E04FDDCE015C
:1031B00060E046E04BDDCE0160E04CE047DD3CC026
:1031C00080917902882321F083EE92E00E940E0B19
:1031D000CE0160E043E0FFDE80E197E20197F1F786
:1031E000CE0160E043E0F7DE88EC90E00197F1F774
:1031F000CE0160E043E0EFDECE0160E042E0EBDED6
:103200008B81823028F0CE0160E048E21FDD04C0EF
:10321000CE0160E040E21ADDCE0160E048E016DD5C
:10322000CE0160E041E012DDCE0160E046E00EDD5F
:10323000CE0160E04CE00ADD81E080937102DF9115
:10324000CF9108955F926F927F928F929F92AF92EB
:10325000BF92CF92DF92EF92FF920F931F93CF9383
:10326000DF93EC014B013A018C81882309F4B5C04E
:10327000EE24DD24FF24CC24C394AA24BB24A394ED
:103280000F2EF0E85F2EF02D0F2D10E0C801880FF3
:10329000991FFE01E80FF91F86810E94CA01982F2D
:1032A0008D8180FF03C02C2D291B922F81FF2FC001
:1032B000992341F4C801880F991FFE01E80FF91FF7
:1032C000178230C0C801880F991FFE01E80FF91F4F
:1032D00097819923F4F0992359F480918002980101
:1032E000220F331FFE01E20FF31F8F7787831AC06F
:1032F00080918002981B892F8F778B3098F0C801BE
:10330000880F991FFE01E80FF91F578202C0992309
:1033100049F0C50102C0880F991F0A95E2F7E82A13
:10332000DF2CD394F3948C81F81608F4ADCF4D2D97
:10333000823039F4C401B30150E022E00E94720BE4
:1033400094C0843009F04AC085E0E816F9F08E1583
:1033500050F022E0E21639F184E0E816D9F021E0DD
:10336000E21699F510C088E0E81639F18E1520F0C4
:1033700026E0E21651F513C089E0E81619F12AE0BB
:10338000E21619F515C0DD24D3941FC0DD2468941E
:10339000D1F81BC00F2EF3E0DF2EF02D16C0DD2478
:1033A0006894D2F812C00F2EF5E0DF2EF02D0DC07C
:1033B0000F2EF6E0DF2EF02D08C00F2EF7E0DF2EE7
:1033C000F02D03C0DD246894D3F8C401B3014D2D62
:1033D00050E024E00E94720B48C0DD248D2D90E067
:1033E00001978330910591F1843091054CF481303F
:1033F000910511F182309105B4F4892B69F02EC04A
:103400008530910541F1853091054CF0863091056C
:1034100079F0079719F515C0DD24D3941FC0DD247A
:103420006894D1F81BC00F2EF3E0DF2EF02D16C0EC
:10343000DD246894D2F812C00F2EF5E0DF2EF02DB7
:103440000DC00F2EF6E0DF2EF02D08C00F2EF7E096
:10345000DF2EF02D03C0DD246894D3F8C401B3013E
:103460004D2D50E024E00E94720BDF91CF911F910F
:103470000F91FF90EF90DF90CF90BF90AF909F9013
:103480008F907F906F905F900895DF92EF92FF9200
:103490000F931F93CF93DF93EC018C81882391F1DD
:1034A000DD24ED2CFF24C701880F991FFE01E80FD2
:1034B000F91F8681182F169516951695082F0770F7
:1034C000812F602F40E00E94CE0B8D8180FF08C0CD
:1034D000812F880F880F880F800F0E94920207C0EB
:1034E000812F880F880F880F800F0E94F902C70173
:1034F000880F991FFE01E80FF91F1782D3948C8162
:10350000D81678F281E080937202DF91CF911F91FB
:103510000F91FF90EF90DF900895FC01CB01BA016D
:103520004091770250917802209175023091760295
:103530004223532325810C94720B0F931F93DF9327
:10354000CF9300D000D0CDB7DEB78C01FC018381D2
:10355000948190930B0180930A0110927E02109245
:103560007D02109278021092770281E090E0A0E054
:10357000B0E0058004C0880F991FAA1FBB1F0A94E2
:10358000D2F70197A109B10989839A83AB83BC83E0
:103590009093760280937502809179028823F9F0E6
:1035A0008BE093E00E940E0B80910A0190910B0139
:1035B0000E94360B83E093E00E940E0BF801858198
:1035C00090E00E94360B8BEF92E00E940E0B8091F0
:1035D0007502909176020E94360B0E941E0B0F908E
:1035E0000F900F900F90CF91DF911F910F91089541
:1035F0002F923F924F925F926F927F928F929F9203
:10360000AF92BF92CF92DF92EF92FF920F931F93F0
:10361000CF93DF93282F392F161617060CF0E5C02D
:10362000F90140E050E00F2EF0E7AF2EBB24F02D63
:1036300001EB10E00F2EF3EBEF2EFF24F02D0F2EF9
:10364000F5E0DF2EF02D0F2EF2E96F2E7724F02D0E
:103650000F2EF6E94F2E5524F02D0F2EFFE62F2EBC
:103660003324F02D0F2EF6E88F2E9924F02D0F2EF7
:10367000FAE0CF2EF02DDF014130510509F467C08B
:103680004230510521F04115510509F0A7C0808154
:10369000813011F09C2D01C09EE0218132812034C7
:1036A0003105C1F02134310538F42130310561F0A4
:1036B0002830310559F40CC081E02030380761F022
:1036C0002050344019F40AC021E009C020E007C0AE
:1036D00022E005C023E003C024E001C02D2D4115E8
:1036E0005105D1F4E1011882892F8370A0E8B0E080
:1036F0008C93892F90E08C709070880F991F822B8B
:10370000C1E8D0E08883A2E8B0E01C928381948174
:10371000E4019983888362C0A1E7B0E01C92892FFD
:103720008370C0E9D0E08883892F90E08C7090701E
:10373000880F991F822BA1E9B0E08C93E3011882D6
:1037400083819481D20111969C938E9347C080818E
:10375000813011F09D2D01C097E02181328120340C
:10376000310509F12134310550F428303105B9F023
:1037700020323105B1F02130310579F40CC081E0FF
:1037800020303807A1F084E02030380791F020384D
:10379000310519F40AC021E00DC020E00BC022E081
:1037A00009C023E007C024E005C02D2D03C026E09A
:1037B00001C027E0E5011882892F8370C0EBD0E0BB
:1037C0008883892F90E084709070880F991F822BD6
:1037D000E801888313968C91D7018C934F5F5F4FDC
:1037E0003596461757070CF446CFDF91CF911F91BE
:1037F0000F91FF90EF90DF90CF90BF90AF909F9090
:103800008F907F906F905F904F903F902F90089592
:10381000EF92FF920F931F93DF93CF9300D0CDB71A
:10382000DEB78C01FC0183818230A8F5CB01BA019F
:1038300044810E949F0B9A838983F80125813681F8
:103840002817390710F43A832983F8018581998173
:10385000F82EF91A80917902882399F08BE393E08E
:103860000E940E0BF801838190E00E94360B82E3E8
:1038700093E00E940E0B89819A810E94360B0E9470
:103880001E0BF8018381882319F4F092B30058C00D
:10389000F092B40055C0CB01BA01F80144810E94F6
:1038A0009F0BF801458156814817590708F4CA0152
:1038B0007A01E81AF90A80917902882391F088E266
:1038C00093E00E940E0BF801838190E00E94360B7A
:1038D0008FE193E00E940E0BC7010E94360B0E94FD
:1038E0001E0BF80183818430C1F0853028F48230CA
:1038F00051F0833029F50CC08630C9F0863090F045
:103900008730F1F419C0F0928900E092880018C065
:10391000F0928B00E0928A0013C0F0928D00E0924A
:103920008C000EC0F0929900E092980009C0F092CD
:103930009B00E0929A0004C0F0929D00E0929C00EF
:103940000F900F90CF91DF911F910F91FF90EF900B
:103950000895CF93DF93EC018B81682F6770869574
:103960008695869541E00E94CE0B8B818F3009F4BD
:103970004BC0803140F48D3059F18E30B8F58C3029
:1039800009F079C010C0853109F45AC0863120F49D
:10399000843109F070C062C0863109F443C08931B6
:1039A00009F069C00AC01B82E0EBF0E08081806C06
:1039B00080838D818093B3005EC081E08B83E0EBD8
:1039C000F0E08081806380838D818093B40053C058
:1039D00082E08B83E0E8F0E08081806C80838D81E1
:1039E0009E81909389008093880045C083E08B83FB
:1039F000E0E8F0E08081806380838D819E819093F8
:103A00008B0080938A0037C084E08B83E0E8F0E08D
:103A100080818C6080838D819E8190938D008093C6
:103A20008C0029C085E08B83E0E9F0E08081806C28
:103A300080838D819E8190939900809398001BC014
:103A400086E08B83E0E9F0E08081806380838D8174
:103A50009E8190939B0080939A000DC087E08B839A
:103A6000E0E9F0E080818C6080838D819E8190937D
:103A70009D0080939C0081E080937302DF91CF9141
:103A8000089580918902882309F01ED4E8EDF0E0C2
:103A900080818C7F80831092A0001092E2001092AF
:103AA000DE001092DA0010929F001092E100109256
:103AB000DF00B9D0E0EEF0E0808181608083E7ED47
:103AC000F0E080818E7F80831092890210928802BC
:103AD000109287020895D5DFA6D080918602982F94
:103AE00080FF06C0E0EEF0E080818460808305C046
:103AF000E0EEF0E080818B7F8083E8EDF0E0808174
:103B00008160808391FD05C0E7EDF0E080818160F8
:103B100080838EE089BDE9E4F0E0808180FFFDCF05
:103B2000E8EDF0E080818F778083808180688083FA
:103B300080818F7D808380E060E040E35AD08823DD
:103B400099F0E0EEF0E080818E7F8083E2EEF0E09D
:103B500080818160808380818860808381E0809320
:103B6000880210928902089581E0AED380E0089522
:103B700088DF1092740210928602A8EDB0E08C915A
:103B80008F778C9319BCE7EDF0E080818E7F808386
:103B90008C918F7E8C9308950F931F93182F062F6F
:103BA00080918802882309F0E3DF109374021123C7
:103BB00019F480E089D31AC0113019F081E084D360
:103BC00005C0E7EDF0E080818068808381E080932C
:103BD000880210928902E8EDF0E0808180618083A4
:103BE0000093860280818160808378941F910F9179
:103BF000089587708093E900EBEEF0E080818160AA
:103C000080836093EC00EDEEF0E080818270482BC1
:103C100040838081826080838091EE008823881FAA
:103C20008827881F0895CF93DF9330E0C9EED0E056
:103C3000EBEEF0E040EF50E06DEE70E0232F2770E8
:103C400028838081982F916090838E7F8083288342
:103C5000DA011C92DB018C918D7F8C9380818E7FA9
:103C600080833F5F373051F7DF91CF910895CF9236
:103C7000DF92EF92FF920F931F93DF93CF9300D0C9
:103C800000D00F92CDB7DEB7E1EFF0E000811081F8
:103C900080917902882389F082E50E94E90A812FC8
:103CA00090E00E94520B8EE20E94E90A802F90E081
:103CB0000E94520B80E20E94E90A1530A1F01630F2
:103CC00050F4113009F4ABC1113008F407C11330BE
:103CD00009F000C26AC11830D9F1193021F116304B
:103CE00009F0F8C153C0002309F0F9C19091F10027
:103CF000E3EEF0E080819F738078982B9083E8EE6C
:103D0000F0E08081877F808380818E7F80838081C7
:103D10008F778083808180FFFDCFE3EEF0E08081AC
:103D200080688083E0C1002309F0D9C18091F1004F
:103D300080938702E8EEF0E08081877F8083808136
:103D40008E7F808380818F7780830E942C07CBC1F8
:103D5000003809F0C4C1E8EEF0E08081877F8083FD
:103D6000809187028093F10080818E7F80838081A3
:103D70008F778083808182FFFDCFE8EEF0E0808145
:103D80008B7F808380818F778083ADC1E1EFF0E00E
:103D90000081108180917902882389F084E40E9457
:103DA000E90A802F90E00E94520B8EE20E94E90AFD
:103DB000812F90E00E94520B80E20E94E90A812F3D
:103DC000602FAE014C5F5F4F9E012E5F3F4F0E9400
:103DD000D909882309F487C1E1EFF0E08081898364
:103DE0008081898320814081942F80E030E0282BDE
:103DF000392BE8EEF0E08081877F80838A819B8188
:103E00008217930780F48F739070892B11F411E05F
:103E100001C010E08A819B81892BB1F18091E8007B
:103E200082FF05C031C03B832A8310E0F3CF0F2E01
:103E3000F8EEEF2EFF24F02D50E061EF70E0D70197
:103E40008C9180FFFCCF5EC1EC81FD818081DB0124
:103E50008C932150304009F459C1CF0101969D83C4
:103E60008C833B832A834F5F413471F7F701808154
:103E70008E7F808380818F7780838A819B81892B4D
:103E800019F0808182FFDBCF8091E80082FF09C0BA
:103E9000E8EEF0E080818B7F808380818F77808364
:103EA00022C1112369F0E8EEF0E0808180FFFDCFB0
:103EB000E8EEF0E080818E7F808380818F77808341
:103EC000E8EEF0E0808182FFFDCFE8EEF0E0808157
:103ED0008B7F808380818F77808305C1802F90E0E6
:103EE0009C012F7130702330310509F4F8C08076C1
:103EF00090708034910509F4F2C0E1EFF0E0808128
:103F000089838081898380812130310531F022309D
:103F1000310509F1232B19F0DFC090E026C082E0C3
:103F200060918702AE014E5F5F4F9E012C5F3F4F55
:103F30000E94D909882309F4D6C0EA81FB81278130
:103F4000822F807C11F092E001C090E0822F807A75
:103F500061F091600AC08770E9EEF0E080838091A3
:103F6000EB008095982F91701082A8EEB0E08C91B4
:103F7000877F8C93E1EFF0E0908310828C918E7FAD
:103F80008C938C918F778C93E8EEF0E0808182FFA8
:103F9000FDCFE8EEF0E080818B7F808380818F779A
:103FA00080838081877F80839EC0802F90E09C01EA
:103FB0002F7130702330310509F491C080769070F4
:103FC0008034910509F48BC0E1EFF0E090818081AD
:103FD0008983E0812230310509F07EC0992309F000
:103FE00082C0E770E093E9008091EB0080FF14C08D
:103FF000EE2329F0EBEEF0E0808180628083109266
:10400000E900E8EEF0E08081877F808380818E7F09
:10401000808380818F7780831092E90064C0E02ED6
:10402000FF240F2EFFE1CF2EDD24F02DCE20DF2048
:10403000F3E0CF16D10409F452C0C7018076907026
:10404000892B09F04CC080917902882359F088E4CB
:1040500093E00E940E0BC7010E94360B85E493E0AB
:104060000E940E0BE1EFF0E0908180818983E08176
:1040700082E0C816D10481F59923A9F5E770E09391
:10408000E9008091EB0080FF22C0EE2399F0ABEEB7
:10409000B0E08C918F7D8C9381E090E002C0880F1E
:1040A000991FEA95E2F7EAEEF0E0808310828C91A6
:1040B00088608C931092E900E8EEF0E08081877FC1
:1040C000808380818E7F808380818F778083109230
:1040D000E90009C080E001C081E0882321F4812F3C
:1040E000602F0E9461078091E80083FF18C0EBEE0B
:1040F000F0E0808180628083E8EEF0E08081877F5D
:1041000080830DC02A813B81452FADCEE8EEF0E0E3
:1041100080818E7F808380818F778083B5CE0F9062
:104120000F900F900F900F90CF91DF911F910F91F3
:10413000FF90EF90DF90CF900895809189028823BF
:1041400039F01092E9008091E80083FF01C08FCD23
:1041500008951F920F920FB60F920BB60F92112473
:104160002F933F934F935F936F937F938F939F937F
:10417000AF93BF93EF93FF938091DA0080FF34C039
:104180008091D80080FF30C0EAEDF0E080818E7F22
:1041900080839AD08091D90080FF01C095D0809112
:1041A0008902882381F48091D90080FF0CC080911E
:1041B0008802882341F08FDC8823B1F081E080936E
:1041C000890282D011C080917402813051F4E0EEF6
:1041D000F0E0808181608083E7EDF0E080818E7F78
:1041E000808372D0109289028091E10080FF18C014
:1041F0008091E20080FF14C0E1EEF0E080818E7FCC
:104200008083E8EDF0E080818062808319BCE2EE7B
:10421000F0E080818E7F808380818061808354D0B4
:104220008091E10084FF1EC08091E20084FF1AC0EB
:10423000E1EEF0E080818F7E8083E8EDF0E0808128
:104240008F7D80838EE089BDE9E4F0E0808180FF8E
:10425000FDCFE2EEF0E080818F7E808380818160FF
:10426000808332D08091E10083FF1BC08091E20007
:1042700083FF17C0E1EEF0E08081877F808310929A
:10428000870280818E7F8083E2EEF0E080818E7FE6
:10429000808380818061808380E060E040E3A9DCEE
:1042A00013D0FF91EF91BF91AF919F918F917F912B
:1042B0006F915F914F913F912F910F900BBE0F9097
:1042C0000FBE0F901F9018950895AA1BBB1B51E1BC
:1042D00007C0AA1FBB1FA617B70710F0A61BB70B76
:1042E000881F991F5A95A9F780959095BC01CD011B
:1042F00008952F923F924F925F926F927F928F928A
:104300009F92AF92BF92CF92DF92EF92FF920F9364
:104310001F93CF93DF93CDB7DEB7CA1BDB0B0FB66E
:10432000F894DEBF0FBECDBF09942A88398848882B
:104330005F846E847D848C849B84AA84B984C884C1
:10434000DF80EE80FD800C811B81AA81B981CE0FB8
:10435000D11D0FB6F894DEBF0FBECDBFED0108959D
:04436000F894FFCFFF
:0C43640000F0009D200101410501FFFF59
:00000001FF
