:1000000000C200000C9482120C9482120C94821292
:100010000C9482120C9482120C9482120C94821210
:100020000C9482120C9482120C94202308C20000BB
:1000300006C200002CC400006BC40000AAC400006B
:10004000FEC10000FCC10000FAC10000F8C10000C0
:10005000F6C10000DFC40000F2C10000F0C10000E2
:100060000C947919ECC100000C94CB0AE8C1000093
:10007000E6C100000C94660EE2C10000E0C1000081
:10008000DEC10000DCC10000DAC10000D8C1000000
:10009000D6C10000D4C100004279746573546F5218
:1000A0006561643D00526563656976656420004959
:1000B0006E697469616C69736174696F6E20436FF6
:1000C0006D706C6574650D0A00496E697469616CC8
:1000D0006973696E670D0A005374617274696E67A3
:1000E00020426F6F746C6F616465720D0A0050720C
:1000F0006F63657373696E67204F757470757420D4
:100100005265706F72740D0A002C00434C454152C9
:100110005F464541545552453D002C005345545FC0
:1001200049444C453D002C002C002C004745545FB1
:100130005245504F52543D002C005543503D00292C
:100140000D0A00555342204849442076312E302074
:10015000496E697469616C697365642028002000C8
:10016000476574205265706F7274204465736372C2
:100170006970746F722000200047657420484944FC
:100180002044657363726970746F722000200020D0
:100190000047657420537472696E67200020004721
:1001A000657420436F6E66696775726174696F6EFE
:1001B0002044657363726970746F72200020004779
:1001C000657420446576696365204465736372696C
:1001D00070746F722000476F7420756E657870655B
:1001E00063746564207479706520696E20496E6956
:1001F00074436F6E74726F6C73202D2030780050D2
:100200006F74656E74696F6D6574657220666F7565
:100210006E64206F6E2077726F6E6720706F7274DD
:10022000202D20506F72743D307800496E697453F0
:1002300077697463680D0A002C00506F7274200097
:10024000476F74204C454420537461746520004905
:100250006E69744C45440D0A00476F74204269630F
:100260006F6C6F75724C4544205374617465200047
:10027000476F7420547269636F6C6F75724C45449C
:1002800020537461746520004C434420556E6B6E9E
:100290006F776E207265706F727420696420004CF5
:1002A0004344204F7574707574205265706F72747A
:1002B000004C434420466F6E74205265706F727418
:1002C000002044373D002044363D002044353D00A9
:1002D0002044343D0020453D002052573D005253FC
:1002E0003D00496E697469616C6973696E67203895
:1002F000626974204C43440D0A00496E6974696157
:100300006C6973696E672034626974204C43440DD4
:100310000A004C43445F53504920556E6B6E6F7713
:100320006E207265706F727420696420004C4344C3
:100330005F53504920436861726163746572204F56
:100340007574707574205265706F7274004C4344FC
:100350005F53504920446973706C617920636F6EFC
:1003600074726F6C204F7574707574205265706F65
:100370007274004C43445F53504920447261775279
:10038000656374204F7574707574205265706F7258
:1003900074004C43445F53504920496E697469614D
:1003A0006C6973696E67002C204D61736B3D002C86
:1003B00020426974733D00496E6974436F756E74B1
:1003C000657220506572696F643D002C2056616C27
:1003D00075653D0050574D20506F72743D002C20C4
:1003E00056616C75653D0050574D20506F72743DDD
:1003F000000D0A00436C6561724665617475726533
:100400003D0011241FBECFEFD0E2DEBFCDBF11E013
:10041000A0E0B1E0E4EEF7E400E00BBF02C007901B
:100420000D92AC30B107D9F713E0ACE0B1E001C0F8
:100430001D92A339B107E1F7A2D60C94F023E0CDC9
:10044000E82FFF27EE0FEE0F8827E85DFD4F099498
:10045000009981E008950000019981E0089500006D
:10046000029981E008950000039981E00895000059
:10047000049981E008950000059981E00895000045
:10048000069981E008950000079981E00895000031
:10049000189981E008950000199981E008950000FD
:1004A0001A9981E0089500001B9981E008950000E9
:1004B0001C9981E0089500001D9981E008950000D5
:1004C0001E9981E0089500001F9981E008950000C1
:1004D000309981E008950000319981E0089500008D
:1004E000329981E008950000339981E00895000079
:1004F000349981E008950000359981E00895000065
:10050000369981E008950000379981E00895000050
:10051000489981E008950000499981E0089500001C
:100520004A9981E0089500004B9981E00895000008
:100530004C9981E0089500004D9981E008950000F4
:100540004E9981E0089500004F9981E008950000E0
:10055000609981E008950000619981E008950000AC
:10056000629981E008950000639981E00895000098
:10057000649981E008950000659981E00895000084
:10058000669981E008950000679981E00895000070
:10059000789981E008950000799981E0089500003C
:1005A0007A9981E0089500007B9981E00895000028
:1005B0007C9981E0089500007D9981E00895000014
:1005C0007E9981E0089500007F9981E00895000000
:1005D000E82FFF27EE0F8827E151FD4F0994109A6D
:1005E0000895119A0895129A0895139A0895149AE5
:1005F0000895159A0895169A0895179A0895289AB5
:100600000895299A08952A9A08952B9A08952C9A64
:1006100008952D9A08952E9A08952F9A0895409A34
:100620000895419A0895429A0895439A0895449AE4
:100630000895459A0895469A0895479A0895589AB4
:100640000895599A08955A9A08955B9A08955C9A64
:1006500008955D9A08955E9A08955F9A0895709A34
:100660000895719A0895729A0895739A0895749AE4
:100670000895759A0895769A0895779A0895889AB4
:100680000895899A08958A9A08958B9A08958C9A64
:1006900008958D9A08958E9A08958F9A0895E82F57
:1006A000FF27EE0F8827EA5AFC4F09941098089507
:1006B000119808951298089513980895149808951C
:1006C00015980895169808951798089528980895EC
:1006D000299808952A9808952B9808952C9808959C
:1006E0002D9808952E9808952F980895409808956C
:1006F000419808954298089543980895449808951C
:1007000045980895469808954798089558980895EB
:10071000599808955A9808955B9808955C9808959B
:100720005D9808955E9808955F980895709808956B
:10073000719808957298089573980895749808951B
:1007400075980895769808957798089588980895EB
:10075000899808958A9808958B9808958C9808959B
:100760008D9808958E9808958F980895FB01DC0167
:1007700002C005900D9241505040D8F70895FB01FA
:10078000DC0104C08D910190801921F4415050404A
:10079000C8F7881B990B0895FB01DC0102C001908A
:1007A0000D9241505040D8F70895FB019F01E89405
:1007B0004230C4F04532B4F44A3029F497FB1EF4B9
:1007C000909581959F4F642F77270E94DC23805D51
:1007D0008A330CF0895D8193CB010097A1F716F461
:1007E0005DE251931082C90100C0DC01FC01672F5A
:1007F00071917723E1F7329704C07C916D937083F8
:100800006291AE17BF07C8F30895E1EFF0E0808171
:1008100090E04081342F20E0282B392B822F932F1A
:1008200008958930910510F480E008958131910593
:1008300010F480E108958132910510F480E208956A
:100840008134910510F480E308958138910510F406
:1008500080E408958150914010F080E6089580E58D
:100860000895823049F4EBE2F0E08081962F907C8D
:100870008F73982B90830895813041F4EBE2F0E080
:100880008081962F90738F7C982B908308951F9270
:100890000F920FB60F920BB60F9211240F931F9366
:1008A0002F933F934F935F936F937F938F939F9378
:1008B000AF93BF93CF93DF93EF93FF938091130197
:1008C000982F81FF05C0EAE2F0E080818063808399
:1008D00092FF05C0EAE2F0E08081806C808308EE40
:1008E00013E0C0E9D1E081E060E2BBDF9801CE0116
:1008F0000197F1F721503040D1F781E060E1B1DF9D
:100900009801CE010197F1F721503040D1F7EBCF9C
:100910001F920F920FB60F920BB60F9211240F93E6
:100920001F932F933F934F935F936F937F938F9377
:100930009F93AF93BF93CF93DF93EF93FF938091F8
:100940001301982F81FF05C0EAE2F0E08081806307
:10095000808392FF05C0EAE2F0E08081806C8083B2
:1009600008EE13E0C0E9D1E081E060E27ADF9801AF
:10097000CE010197F1F721503040D1F781E060E1DD
:1009800070DF9801CE010197F1F721503040D1F787
:10099000EBCF1F920F920FB60F920BB60F9211244E
:1009A0000F931F932F933F934F935F936F937F9377
:1009B0008F939F93AF93BF93CF93DF93EF93FF9367
:1009C00080911301982F81FF05C0EAE2F0E0808159
:1009D0008063808392FF05C0EAE2F0E08081806C52
:1009E000808308EE13E0C0E9D1E081E060E239DF06
:1009F0009801CE010197F1F721503040D1F781E005
:100A000060E12FDF9801CE010197F1F721503040CE
:100A1000D1F7EBCF1F920F920FB60F9211242F93A5
:100A20003F938F939F9380918A0390918B030196BC
:100A300090938B0380938A03809189038F5F8093C7
:100A40008903809184039091850301969093850397
:100A5000809384038091840390918503885E934002
:100A600049F4809188038F5F8093880310928503F7
:100A7000109284038091860390918703019690934E
:100A800087038093860320910A0130910B0182171E
:100A9000930768F080918003909181030196909371
:100AA00081038093800310928703109286039F91A5
:100AB0008F913F912F910F900FBE0F901F9018951F
:100AC0002F923F924F925F926F927F928F929F925E
:100AD000AF92BF92CF92DF92EF92FF920F931F934C
:100AE000DF93CF93CDB7DEB7C154D0400FB6F894A3
:100AF000DEBF0FBECDBF809114018823B9F4809171
:100B00008203882319F089EC90E0A3D5809111012C
:100B1000909112010E94F00D81E080931401809168
:100B20008203882319F08FEA90E093D580910D011C
:100B300090910E01019690930E0180930D0190917A
:100B4000880380910C01891791F08091880380932C
:100B50000C0180918203882331F080910D019091E6
:100B60000E01BBD586D510920E0110920D01809119
:100B70008A0390918B032091160130911701821BFB
:100B8000930B895E934018F081E0809318011982DD
:100B9000609111017091120181E0AE014E5F5F4FD3
:100BA0009E012F5F3F4F8BD780918A0390918B03DB
:100BB0002091160130911701821B930BC39758F0B7
:100BC0004981CE0102966FE571E050E0D8DD282F13
:100BD000392F232B29F480911801882309F460C050
:100BE00080919203882309F45BC081E08093E9003F
:100BF0008091E80085FF54C08091E80080FF50C0DC
:100C000081E08093F10080918203882329F081E0C4
:100C100090E047D580E2F8D489818823F9F010E08C
:100C2000EE24FF246894E1F8EC0EFD1E0F2EF1EF88
:100C3000CF2EDD24F02DF701E10FF11DE081D6016B
:100C4000EC9380918203882329F08E2F90E029D5A0
:100C500080E2DAD41F5F8981181768F380918203DC
:100C6000882309F006D5E8EEF0E080818E7F80834E
:100C700080818F7780832FE531E04981FE013296B4
:100C8000822F932F6E2F7F2F50E086DD80918A0375
:100C900090918B0390931701809316011092180185
:100CA00080919203882309F4DCC082E08093E900FC
:100CB0008091E80082FFD5C080918203882309F4E7
:100CC00095C085EA90E0C5D491C0F401108180916F
:100CD0008203882329F0812F90E0E3D480E294D42A
:100CE00080915E01882321F0813009F0A7C029C0DE
:100CF000812F81508331E8F4D6011C9300931901B0
:100D0000E0915B01F0915C01E10FF11D3197808171
:100D100080935D0180918203882341F0C30199D4BF
:100D200080915D0190E0BDD480E26ED400935E01BD
:100D300085C0F70180818B7F808380818F7780835E
:100D40007DC080911901F601E80FF11D10838F5FBE
:100D50008093190180915D01815080935D0188230A
:100D600009F06CC080918203882311F0C10171D415
:100D7000D6018C91833009F030C0F20180819181DD
:100D8000A281B3818F5D904FAD40BF4D61F58091E1
:100D90008203882331F088ED90E05BD42BD4882344
:100DA000E9F3EFE3F0E0808181FDFDCF1FBA8FEF23
:100DB0009FE092BD81BD10BC0FB6F894FA9AF99AE3
:100DC0000FBE28E088E190E00FB6F894A8958093D4
:100DD00060000FBE20936000FFCF60911101709101
:100DE0001201A201E7D510925E0128C00F2EF2EF8A
:100DF000AF2EBB24F02D0F2EF1EF8F2E9924F02D66
:100E00000F2EF8EEEF2EFF24F02D0F2EFAE1CF2E4D
:100E1000F1E0DF2EF02D01E00F2EF8E96F2EF0E06B
:100E20007F2EF02D0F2EFBE14F2EF1E05F2EF02DE7
:100E30000F2EFEEE2F2EF0E03F2EF02DD5018D91DE
:100E40009C91892B09F041CFE8EEF0E080818B7F07
:100E5000808380818F77808380918203882309F04B
:100E600008D4CF5BDF4F0FB6F894DEBF0FBECDBF07
:100E7000CF91DF911F910F91FF90EF90DF90CF9076
:100E8000BF90AF909F908F907F906F905F904F90AA
:100E90003F902F9008951F9380E490E0C2DC182FBC
:100EA000146081E061EC412F0E94702082E060ECD0
:100EB000412F0E94702080911301882359F0182F30
:100EC00011FF03C081E060E2CCDC12FF03C082E0CE
:100ED00060E4C7DCE0910F01F091100180818F3F49
:100EE00069F0682F677086958695869541E071D484
:100EF000E0910F01F091100180816ADB1F9108954C
:100F0000CF92DF92EF92FF920F931F93DF93CF93D5
:100F1000CDB7DEB7C254D0400FB6F894DEBF0FBED7
:100F2000CDBF182FFE01EE5BFF4F608380918203DF
:100F3000882381F08AE391E08CD3812F90E0B1D3B4
:100F400088E391E086D3FE01EE5BFF4F808190E065
:100F5000A8D38FD3FE01EE5BFF4F808182958695EB
:100F600087708370813009F0CEC0113009F0A7C0BE
:100F7000E1EFF0E00081108148DC7C0146DC6C018F
:100F8000E8EEF0E08081877F808380918203882370
:100F9000B9F08CE291E05DD3812F90E082D38AE2B8
:100FA00091E057D3802F90E07CD388E291E051D339
:100FB000C70177D386E291E04CD3C60172D359D3EF
:100FC0001330D1F46091110170911201802FC4D4BB
:100FD000E8EEF0E080818E7F808380818F77808350
:100FE000808182FFFDCFE8EEF0E080818B7F8083FF
:100FF00080818F778083B3C0113009F057C00130F2
:1010000009F054C01982609111017091120181E0C0
:10101000AE014E5F5F4F9E012F5F3F4F50D581E085
:101020008093F10080918203882329F081E090E091
:1010300038D380E2E9D289818823F9F010E0CC240A
:10104000DD246894C1F8CC0EDD1E0F2EF1EFEF2EDB
:10105000FF24F02DF601E10FF11DE081D701EC93A3
:1010600080918203882329F08E2F90E01AD380E2AA
:10107000CBD21F5F8981181768F380918203882380
:1010800009F0F7D2E8EEF0E080818E7F80838081E6
:101090008F778083808182FFFDCFE8EEF0E0808152
:1010A0008B7F808380818F77808359C0E8EEF0E06A
:1010B00080818E7F808380818F77808350C01A30BB
:1010C00009F04DC0A2DB182FA0DB082F809182030E
:1010D000882369F08CE191E0BCD2812F90E0E1D2CD
:1010E0008AE191E0B6D2802F90E0DBD2C2D2E8EE66
:1010F000F0E08081877F808380818E7F8083808104
:101100008F7780832CC0113051F5E1EFF0E0008142
:101110001081E080F080809182038823A9F08BE029
:1011200091E097D2912F80E0202F30E0822B932BFB
:10113000B8D289E091E08DD29F2D80E02E2D30E055
:10114000822B932BAED295D2E8EEF0E08081877FA0
:10115000808380818E7F808380818F778083CE5B48
:10116000DF4F0FB6F894DEBF0FBECDBFCF91DF913A
:101170001F910F91FF90EF90DF90CF900895DF9235
:10118000EF92FF920F931F93CF93DF9380E48AB97E
:10119000E4E5F0E09081A8958081877F808388E1F5
:1011A0000FB6F89480936000109260000FBE10821A
:1011B000D92E93FF2CC0EFE3F0E0808181FDFDCFBD
:1011C0008FEF9FE092BD81BDF89A80B58823F9F436
:1011D000EFE3F0E0808181FDFDCF1FBA8FEF9FE04C
:1011E00092BD81BD8FEF80BD0FB6F894FA9AF99A3F
:1011F0000FBE8CE692E020E931E0F9013197F1F77A
:101200000197D9F7E0910001F09101010995EFE311
:10121000F0E0808181FDFDCF1FBA8FEF9FE092BD8E
:1012200081BD8FEF80BD0FB6F894FA9AF99A0FBE80
:101230008091610080931501F894E1E6F0E00F2EB3
:10124000F0E8FF2EF02DF0821082E0E0F0EE459104
:10125000549103E913E0C80160E070EE87DAF80109
:1012600084899589080F191F1093100100930F01AD
:10127000F8019181892F867080931301892F8071E5
:1012800080938203E92EC801419690935C0180937C
:101290005B01C80185969093120180931101109211
:1012A000190110925E011092140110921701109210
:1012B0001601109218011092850310928403109267
:1012C00088031092890310928B0310928A0382E0A4
:1012D00084BD83E085BD8AEF87BDEEE6F0E08081C6
:1012E00082608083F09264001092B600C80102967A
:1012F00063E070E00E94721D809113018823F9F071
:10130000282F30E0A9014270507081FF05C0EAE249
:10131000F0E080818063808322FF05C0EAE2F0E094
:101320008081806C8083452B19F081E060E399DA3D
:101330008091130182FF03C082E060EC92DA809119
:101340008203882319F08CE090E097D17894809103
:101350008203882349F083E491E07BD18D2D90E0D6
:10136000A0D18FE391E075D180911301882361F0C2
:1013700081FF03C081E060E174DA8091130182FF94
:1013800003C082E060E86DDAE5FE05C081E060E060
:101390000E943E2004C081E060E00E943E2082E086
:1013A00080938C0300E0C2E0D1E010E0202F30E019
:1013B000C901880F991F880F991FFE01E80FF91FB7
:1013C0008381882361F0C901880F991F880F991FB5
:1013D000FE01E80FF91F0180F281E02D09950F5FF2
:1013E000023020F3012FE2CFEF92FF920F931F9371
:1013F000CF93DF93DA01E90103E913E0833009F4C5
:1014000051C0843028F4813059F0823039F429C039
:10141000813209F478C0823209F495C080E0B4C00A
:10142000F801808591858D569C4F8D939C93828584
:1014300093859983888380918203882309F4A3C0CC
:101440008FEB91E006D1F8018085918546D18DEB37
:1014500091E0FFD0F801828593853FD10AD181E0E8
:1014600093C0F801848595858D569C4F8D939C93F0
:10147000868597859983888380918203882309F4E0
:1014800082C08FE991E0E5D0F8018485958525D16A
:101490008DE991E0DED0F801868597851ED1E9D0EF
:1014A00081E072C0E62EFF24C701880F991FF80162
:1014B000E80FF91F0688F789E02DED56FC4FED93F4
:1014C000FC9380818883198280918203882309F4A8
:1014D0005AC081E991E0BDD0C701FFD08FE891E00B
:1014E000B8D0C701880F991FF801E80FF91F868946
:1014F0009789F3D08DE891E0ACD088819981EDD0C7
:10150000B8D081E041C0F801808991898D569C4F07
:101510008D939C9382899389998388838091820398
:10152000882389F189E791E094D0F8018089918935
:10153000D4D087E791E08DD0F80182899389CDD00E
:1015400098D081E021C0F801848195818D569C4F0F
:101550008D939C9386819781998388838091820360
:10156000882389F080E691E074D0F8018481958128
:10157000B4D08EE591E06DD0F80186819781ADD031
:1015800078D081E001C081E0DF91CF911F910F9170
:10159000FF90EF9008951F920F920FB60F920BB627
:1015A0000F9211248F939F93EF93FF9390911F02BB
:1015B00080912002981771F0809120028F5F8F77C1
:1015C00080932002EFE9F1E0E80FF11D8081809324
:1015D000CE0005C0E9ECF0E080818F7D8083FF9133
:1015E000EF919F918F910F900BBE0F900FBE0F90B8
:1015F0001F90189590911F028091200220E098176B
:1016000009F421E0822F0895282F80911F028F5F17
:10161000982F9F77809120029817E1F3EFE9F1E08E
:10162000E90FF11D208390931F02E9ECF0E0808127
:10163000806280830895CF93DF93EC0188818823B3
:1016400029F0E2DF219688818823D9F7DF91CF91B5
:101650000895CF93DF93EC01FC018491882331F04E
:10166000D3DF2196FE0184918823D1F7DF91CF91BA
:1016700008958DE0C9DF8AE0C7CF10922002109252
:101680001F029093CD008093CC001092C800E9EC2B
:10169000F0E0108286E08093CA00808188608083B9
:1016A00008950F931F93DF93CF9300D000D00F9234
:1016B000CDB7DEB78E010F5F1F4FB80140E150E09C
:1016C00074D8C801B8DF0F900F900F900F900F9053
:1016D000CF91DF911F910F9108950F931F93DF9387
:1016E000CF93CDB7DEB727970FB6F894DEBF0FBE06
:1016F000CDBF8E010F5F1F4FB8014AE050E055D8B3
:10170000C80199DF27960FB6F894DEBF0FBECDBF94
:10171000CF91DF911F910F9108950F931F93CF9356
:10172000DF93EC018B01E881F981DB013C912223FD
:10173000C1F061E070E0A0E0B1E0332319F431962C
:1017400010823B2FCB0184239523892B19F08081B4
:10175000832B8083330FAF5FA21718F4660F771FB8
:10176000ECCFF983E883F8013083DF91CF911F91AB
:101770000F9108950F931F93CF93DF93EC018B018B
:10178000E881F981DB015C914423B1F0A0E0B0E095
:1017900021E030E060E091E0552311F43196592FBB
:1017A0008081852311F0A22BB32B550F6F5F641737
:1017B00028F4220F331FF0CFA0E0B0E0F983E883D4
:1017C000F80150838A2F9B2FDF91CF911F910F91AA
:1017D0000895823009F44CC0833030F4882371F0CE
:1017E000813009F0B8C027C0843009F47BC0843050
:1017F00008F45BC0853009F0AEC091C0442369F0A5
:10180000E1E2F0E0208181E090E002C0880F991FC2
:101810006A95E2F7282B20830895E1E2F0E0208129
:1018200081E090E002C0880F991F6A95E2F78095E9
:10183000822380830895442369F0E4E2F0E020816C
:1018400081E090E002C0880F991F6A95E2F7282B8B
:1018500020830895E4E2F0E0208181E090E002C07E
:10186000880F991F6A95E2F78095822380830895F7
:10187000442369F0E7E2F0E0208181E090E002C0DB
:10188000880F991F6A95E2F7282B20830895E7E2D5
:10189000F0E0208181E090E002C0880F991F6A95F6
:1018A000E2F78095822380830895442369F0EAE279
:1018B000F0E0208181E090E002C0880F991F6A95D6
:1018C000E2F7282B20830895EAE2F0E0208181E00E
:1018D00090E002C0880F991F6A95E2F780958223F5
:1018E00080830895442369F0EDE2F0E0208181E0F7
:1018F00090E002C0880F991F6A95E2F7282B208399
:101900000895EDE2F0E0208181E090E002C0880FD0
:10191000991F6A95E2F78095822380830895442376
:1019200069F0E0E3F0E0208181E090E002C0880F00
:10193000991F6A95E2F7282B20830895E0E3F0E0F1
:10194000208181E090E002C0880F991F6A95E2F73C
:101950008095822380830895FF920F931F93CF93E6
:10196000DF93F82EEB0188818823F1F08E018B81C3
:101970008F1529F0F81688F08A818F1570F0F8011C
:101980008081893019F08F3041F404C0CE010E946B
:10199000E01503C0CE010E94E519F8018181C80F4E
:1019A000D11D8881882311F7DF91CF911F910F916D
:1019B000FF9008958F929F92AF92BF92DF92EF9225
:1019C000FF920F931F93DF93CF9300D00F92CDB769
:1019D000DEB7D82E8B015A83498381E08B83FB01CC
:1019E0008081882309F45CC00F2EF3E08F2E9924A8
:1019F000F02D8C0E9D1E5E010894A11CB11C780177
:101A0000F80183818D1539F0D81608F440C0828121
:101A10008D1508F43CC0F7018081893029F18A30A6
:101A200038F4873089F08830A0F4863081F507C01B
:101A30008E30A1F08F3029F18D3049F51CC0C801DE
:101A4000B501A401E6D623C0C801B501A4014AD757
:101A50001EC0C801B501A401BFD719C0C801B50196
:101A6000A4010E94841513C0C8016D2DA501940125
:101A70000E949A170CC0C801B501A4010E94821EE1
:101A800006C0C8016D2DA50194010E944D1AF701F1
:101A90008181080F111DF8018081882309F0AFCFE3
:101AA0000F900F900F90CF91DF911F910F91FF90AA
:101AB000EF90DF90BF90AF909F908F9008954F92DE
:101AC0005F926F927F928F929F92AF92BF92DF92BE
:101AD000EF92FF920F931F93DF93CF9300D00F925B
:101AE000CDB7DEB7D82E8B013A0129015A8349833D
:101AF00081E08B83FA011082FB018081882309F445
:101B000057C00F2EF3E08F2E9924F02D8C0E9D1EC2
:101B10005E010894A11CB11C7801F80183818D1528
:101B200031F0D81608F43BC082818D15C0F1F70161
:101B300080818430F9F0853038F4823089F0833048
:101B4000A0F4813061F507C08A30F1F08B3011F1DB
:101B5000853029F514C0C801B501A4013DD11FC0CD
:101B6000C801B501A401A8D11AC0C801B501A401DA
:101B700009D215C0C801B501A4012FD310C0C801F6
:101B8000B501A4019ED50BC0C801B501A4010E94F6
:101B90009C1B05C0C801B501A4010E94071DF701E7
:101BA0008181080F111DF8018081882309F0B4CFCD
:101BB00089818F5F8619F20180830F900F900F90BB
:101BC000CF91DF911F910F91FF90EF90DF90BF9029
:101BD000AF909F908F907F906F905F904F900895FF
:101BE0000F931F93CF93DF93EC018881882309F42F
:101BF00068C08E018881873099F1883078F483300D
:101C000019F1843030F48130C9F0823009F045C0D8
:101C100018C08530F9F0863000F519C08B3089F195
:101C20008C3028F4893029F18A3038F51CC08E3088
:101C3000E9F08F3071F18D3081F527C0CE01F4D0FD
:101C400038C0CE0175D135C0CE014ED232C0CE01E2
:101C500065D32FC0CE0175D52CC0CE0110D629C0BA
:101C6000CE0189D626C0CE0108D723C0CE018AD79F
:101C700020C0CE010E948A181CC0CE010E94BF1C49
:101C800018C0CE010E94171D14C0CE010E94231F50
:101C900010C0CE010E94191A0CC0809182038823C3
:101CA00081F086ED91E0D5DC888190E0FADCE1DC22
:101CB00008C0F8018181C80FD11D8881882309F0EF
:101CC00098CFDF91CF911F910F9108951F920F929E
:101CD0000FB60F920BB60F9211242F933F934F9391
:101CE0005F936F937F938F939F93AF93BF93EF9384
:101CF000FF93809178009091790020913A02309181
:101D00003B02DC01A20FB31FB0933B02A0933A0247
:101D100080913C028F5F80933C02843009F049C07F
:101D200080917C00582F5770852F8F5F482F477008
:101D3000842F90E0FC01EE0FFF1FE80FF91FEE5D0E
:101D4000FD4F8081882399F462E272E0842F8F5FD7
:101D5000482F4770242F30E0C901880F991F820F48
:101D6000931FFB01E80FF91F8081882379F3EAE7CD
:101D7000F0E080818F738083842F806480937C0067
:101D80008081806C8083852F90E0FC01EE0FFF1F27
:101D9000E80FF91FED5DFD4FCD019695879596955E
:101DA00087959183808310923C0210923B0210929F
:101DB0003A02FF91EF91BF91AF919F918F917F91E7
:101DC0006F915F914F913F912F910F900BBE0F90AC
:101DD0000FBE0F901F901895CF93DF93DC01EA019F
:101DE000F89414968C91149790E087709070FC0191
:101DF000EE0FFF1FE80FF91FED5DFD4F4081518190
:101E0000789415962C912A3049F08AE090E0821B54
:101E1000910902C0569547958A95E2F7CB01BE011C
:101E20007CDCDF91CF910895CF93DF93EC0180911B
:101E30002102882339F488E1E2E2F2E0DF011D9219
:101E40008A95E9F79C81892F8695869586958530B8
:101E500041F08FEF91E0FDDB8C8190E022DC09DC2A
:101E600028C0892F90E09C0127703070F901EE0F97
:101E7000FF1FE20FF31FEE5DFD4F81E08083809135
:101E80002102882399F410923C0210923B02109296
:101E90003A02822F806480937C00EAE7F0E08EE2D1
:101EA000808310927B008081806C808381E08093AE
:101EB0002102DF91CF910895EF92FF920F931F932C
:101EC000CF93DF93EC018B017A018C810E94200279
:101ED000482F8D81982F90FF03C081E0841B482FED
:101EE00091FF1AC0442311F41E8216C09E819923CB
:101EF0009CF0992331F4809189038F778E8340E0A1
:101F00000BC080918903981B892F8F778B3010F439
:101F100040E002C080E88E83C801B70150E021E0B4
:101F2000FCDBDF91CF911F910F91FF90EF9008950F
:101F30000F931F93CF93DF93EC018091820388234B
:101F400019F08BE292E085DB8C81082F06950695CF
:101F50000695182F1770802F612F40E03ADC8D8195
:101F600080FF07C0802F880F880F880F810F0E9485
:101F7000E8021E8281E080933D02DF91CF911F91A4
:101F80000F9108955F926F927F928F929F92AF927E
:101F9000BF92CF92DF92EF92FF920F931F93CF9356
:101FA000DF938C014B013A01FC018681CC24C39460
:101FB000C822DD246894D1F8D822BB246894B2F8F2
:101FC000B82282FF02C0EE2402C0F801E780F801C7
:101FD0008481882309F470C0FF24AA24A3940F2EBF
:101FE000F0E85F2EF02DCF2DD0E0CE01880F991FA5
:101FF0008C0F9D1FF801E80FF91F80850E942002B9
:10200000CC2019F0FA2DF81B8F2FDD20B9F1882391
:1020100051F4CE01880F991F8C0F9D1FF801E80F16
:10202000F91F128643C0CE01880F991F8C0F9D1F88
:10203000F801E80FF91F9285992314F1992369F4A7
:10204000809189039E01220F331F2C0F3D1FF80141
:10205000E20FF31F8F77828729C080918903981B35
:10206000892F8F778B3010F1CE01880F991F8C0F3D
:102070009D1FF801E80FF91F528602C08823B1F0B6
:10208000BB2051F4CE01880F991F8C0F9D1FF801C2
:10209000E80FF91FE18410C0CE01880F991F8C0F43
:1020A0009D1FF801E80FF91F8185E82AF394F801D4
:1020B0008481F81608F497CFF801E782C401B301D0
:1020C0004E2D50E0258129DBDF91CF911F910F919B
:1020D000FF90EF90DF90CF90BF90AF909F908F9048
:1020E0007F906F905F9008958F929F92AF92BF9272
:1020F000CF92DF92EF92FF920F931F93CF93DF93D4
:102100007C01FC018681CC24C394C822848188236D
:1021100009F453C0DD240F2EFAE38F2EF2E09F2E38
:10212000F02D0F2EF8E3AF2EF2E0BF2EF02DCD2DC7
:10213000D0E0CE01880F991F8C0F9D1FF701E80F8B
:10214000F91F8085182F169516951695082F07707C
:10215000812F602F40E03DDBCC2039F0812F880FAC
:10216000880F880F800F0E94E802CE01880F991F08
:102170008C0F9D1FF701E80FF91F128680918203D3
:102180008823A9F0C40165DACE01880F991F8C0F4E
:102190009D1F8701080F191FF801808590E081DAE3
:1021A000C50157DAF801818590E07BDA62DAD394D1
:1021B000F7018481D81608F4BACF81E080933E02FB
:1021C000DF91CF911F910F91FF90EF90DF90CF9013
:1021D000BF90AF909F908F9008952F923F924F9213
:1021E0005F926F927F928F929F92AF92BF92CF92A7
:1021F000DF92EF92FF920F931F93DF93CF9300D064
:1022000000D0CDB7DEB76C014B015A01FC018681CD
:10221000442443944822A601495F5F4F848125816D
:10222000222309F464C090E007963601680E791EF7
:102230007301E20EF11C3324CA0149839A8300E042
:1022400022242394522CF30180810E944F03F60133
:102250008481882309F43EC089819A819C838B8381
:10226000102FEB81FC8180810E942002422D481BAF
:10227000442001F1442319F4F701108218C0F7013A
:1022800090819923A4F0992331F4809189038F7769
:102290008083402F0CC080918903981B892F8F77F2
:1022A0008B3010F4402F03C080E8F701808308943E
:1022B000E11CF11CC401B501502F252D2EDA1F5F42
:1022C000F6018481181730F48B819C8101969C83E0
:1022D0008B83C7CFF30180810E94E8023394F6011B
:1022E0008581381620F40894611C711CACCF0F90C6
:1022F0000F900F900F90CF91DF911F910F91FF9052
:10230000EF90DF90CF90BF90AF909F908F907F9095
:102310006F905F904F903F902F900895CF92DF92F3
:10232000EF92FF920F931F93CF93DF937C010F2EB9
:10233000F7E0CF2EDD24F02DC80ED91EFC018481DC
:102340008823C9F0E6011991012F06950695069597
:102350001770802F612F40E03CDA000F000F000F54
:10236000802F810F0E94E8029E012C19F7018481C1
:10237000281748F36E01F70185818823C9F0E6012B
:102380001991012F0695069506951770802F612FDC
:1023900041E01FDA000F000F000F802F810F0E9415
:1023A000E8029E012C19F7018581281748F36E0178
:1023B000F701868180FF18C085812481829FC0013A
:1023C00011241816190684F440E050E0F601119229
:1023D0006F014F5F5F4FF70185812481829FC001AC
:1023E00011244817590794F381E080933F02DF914D
:1023F000CF911F910F91FF90EF90DF90CF900895B4
:10240000833031F1843009F44FC0813009F079C054
:10241000E4E2F0E0208181E090E002C0880F991FA3
:102420006A95E2F7682F809582238083442329F000
:10243000E5E2F0E08081862B8083E8E6F0E08081B1
:1024400081608083EBE6F0E08081862B80830895B5
:10245000EAE2F0E0208170E081E090E0062E02C028
:10246000880F991F0A94E2F7582F80958223808362
:10247000442329F0EBE2F0E08081852B8083E9E6BC
:10248000F0E040819B01220F331F81E090E002C009
:10249000880F991F2A95E2F7482B4083EDE3F0E07F
:1024A0008081852B80830895EDE2F0E0208170E04B
:1024B00081E090E0062E02C0880F991F0A94E2F78F
:1024C000582F809582238083442329F0EEE2F0E0A8
:1024D0008081852B8083EAE6F0E040819B012450D7
:1024E0003040220F331F81E090E002C0880F991F17
:1024F0002A95E2F7482B4083EDE3F0E08081852BBD
:10250000808308951F920F920FB60F920BB60F9211
:1025100011244F925F926F927F928F929F92AF920F
:10252000BF92CF92DF92EF92FF920F931F932F9360
:102530003F934F935F936F937F938F939F93AF934B
:10254000BF93EF93FF93DF93CF9300D0CDB7DEB768
:10255000FE01319683B1808399B18CB1807F9F70E9
:10256000892B818380914402882349F01092440290
:1025700089819A8190934302809342027DC0E090CA
:102580004202F090430209811A81E016F10609F433
:1025900073C05801AE24BF2420914102222309F4C4
:1025A00067C0A5E4B2E0CC24DD24C3940F2EFDE582
:1025B0006F2EF2E07F2EF02D44245524689453F8BA
:1025C000215030E02F5F3F4FC901880F991F820FC4
:1025D000931F4D01880E991EA6010C9002C0440F56
:1025E000551F0A94E2F7CA018A219B21892B69F4BD
:1025F000C60111960C90119702C0880F991F0A947A
:10260000E2F78A219B21892B71F1CA018E219F213A
:10261000892B11F0352D01C0342DB60111960C9087
:10262000119702C0660F771F0A94E2F7CB018E2143
:102630009F21892B09F03460CA0180239123892BC3
:1026400009F03260CB0180239123892B09F031609E
:10265000F301E30FF11D12968C9112979081890F6F
:1026600012968C9312971396A815B90509F0B4CF5A
:1026700010934302009342020F900F90CF91DF918D
:10268000FF91EF91BF91AF919F918F917F916F914A
:102690005F914F913F912F911F910F91FF90EF907C
:1026A000DF90CF90BF90AF909F908F907F906F9072
:1026B0005F904F900F900BBE0F900FBE0F901F902A
:1026C0001895CF93DF93EA01FC019481892F8695B9
:1026D00086958695813011F028E001C020E0A09118
:1026E0004102AA2359F1892F8770922F980F809168
:1026F00045028917E9F440E050E007C0A901808154
:102700002F5F3F4F33968917B9F4F8947894FA0104
:10271000EE0FFF1FE40FF51FE95BFD4F40815527CA
:1027200047FD5095CB01BE0128E00E948D0B06C0ED
:10273000E8E4F2E021E030E02A1700F3DF91CF91E6
:102740000895FF920F931F93CF93DF93EC01809135
:1027500040028823A9F41092410291E09093440230
:10276000EDE5F2E080E1DF011D928A95E9F79387BC
:102770008FEF808795878687948387839283818371
:102780008C81182F169516951695082F0770812F96
:10279000602F40E035DE8D810F2EF7E0FF2EF02D0B
:1027A000F8228695869586956F2D40E029DE9091DA
:1027B0004102292F30E0113001F5F901EE0FFF1F22
:1027C000E20FF31FEB5BFD4F008380E0F901EE0F9A
:1027D000FF1FE20FF31FEB5BFD4F8F0D8183128212
:1027E000892F8F5F8093410281E080934002DF91C7
:1027F000CF911F910F91FF900895F901EE0FFF1FE8
:10280000E20FF31FEB5BFD4F802F885F808388E032
:10281000DDCF1F93CF93DF93EC01CB01BA0141E0F1
:102820000E94BA0B182F80E492E00E94290B812F9E
:1028300090E00E946D0B0E94390B8D8180FF03C0D8
:1028400081E0811B182F8C81282F269526952695AF
:10285000982F9770112341F0822F880F880F880FCF
:10286000890F0E94E80207C0822F880F880F880F07
:10287000890F0E944F03DF91CF911F9108950F930D
:102880001F93CF93DF93EC0180918203882321F083
:102890008FE492E00E94290B8C81082F0695069503
:1028A0000695182F17708D8180FF14C0802F880F18
:1028B000880F880F810F0E94E802802F612F41E06E
:1028C0000E94E90B81E080936D02DF91CF911F910F
:1028D0000F910895802F880F880F880F810F0E9415
:1028E0004F03EBCFFF920F931F93CF93DF93EC0136
:1028F000CB01BA0142E00E94BA0B182F80918203EB
:10290000882351F089E592E00E94290B812F90E005
:102910000E946D0B0E94390B113069F08D81F82EE9
:10292000F694F694F694082F07708C810E944F035A
:10293000123061F013C08D81F82EF694F694F6945F
:10294000082F07708C810E94E80208C08F2D880F25
:10295000880F880F800F0E94E80207C08F2D880F14
:10296000880F880F800F0E944F03DF91CF911F9136
:102970000F91FF900895EF92FF920F931F93FC0128
:102980001481F12EF694F694F69417700581E02EDA
:10299000E694E694E69407708F2D880F880F880FD1
:1029A000810F0E944F038E2D880F880F880F800F94
:1029B0000E944F038F2D612F41E00E94E90B8E2D65
:1029C000602F41E00E94E90B81E080936E021F912D
:1029D0000F91FF90EF900895FF920F931F93CF9365
:1029E000DF93EC01CB01BA0142E00E94BA0B182F31
:1029F00080E792E00E94290B812F90E00E946D0BEE
:102A00000E94390B113011F4FF2409C0123019F45F
:102A1000FF24F39421C01330F1F4FF24F3948D814B
:102A2000082F069506950695182F17708C810E9421
:102A3000E802FF2041F0802F880F880F880F810F58
:102A40000E94E80214C0802F880F880F880F810F22
:102A50000E944F030CC0FF248D81082F0695069518
:102A60000695182F17708C810E944F03E2CFDF91DB
:102A7000CF911F910F91FF900895EF92FF920F93C6
:102A80001F93FC011481F12EF694F694F6941770BE
:102A90000581E02EE694E694E69407708F2D880F6A
:102AA000880F880F810F0E944F038E2D880F880F8B
:102AB000880F800F0E944F038F2D612F41E00E94ED
:102AC000E90B8E2D602F41E00E94E90B81E080939D
:102AD0006F021F910F91FF90EF900895982F969598
:102AE00096959695282F2770662339F0892F880FA1
:102AF000880F880F820F0C94E802892F880F880FA7
:102B0000880F820F0C944F031F93CF93DF93EC0138
:102B1000CB01BA0143E00E94BA0B182F8F8180FDD0
:102B20001095612F64708C81D9DF612F62708D8167
:102B3000D5DF612F61708E81D1DFDF91CF911F9141
:102B400008950F931F93082F069506950695182F45
:102B50001770662379F0802F880F880F880F810FF8
:102B60000E94E802802F612F41E00E94E90B1F9133
:102B70000F910895802F880F880F880F810F0E9472
:102B80004F03F0CF0F931F938C01FC01678170E01E
:102B9000617070708481D5DFF801678170E06170C9
:102BA00070708581CEDFF801678170E061707070B0
:102BB0008681C7DF81E0809370021F910F91089595
:102BC000EF92FF920F931F93CF93DF938C010D5FD2
:102BD0001F4FC0E0D0E00F2EF1EFEF2EFF24F02DBD
:102BE00080918203882341F0F801808190E00E9467
:102BF000510B80E20E94040BF8018081F701808371
:102C00002196C330D10519F00F5F1F4FE9CF809196
:102C10008203882311F00E94390BDF91CF911F911D
:102C20000F91FF90EF9008951F93CF93DF93EC01E6
:102C3000162F8E81882321F18A85682F67708695EB
:102C400086958695412F0E94E90B8B85682F6770CA
:102C5000869586958695412F0E94E90B8C85682F75
:102C60006770869586958695412F0E94E90B8D8524
:102C7000682F6770869586958695412F0E94E90B8F
:102C80008E85682F6770869586958695412F0E9460
:102C9000E90B8F85682F6770869586958695412FFD
:102CA0000E94E90B8889682F6770869586958695BE
:102CB000412F0E94E90B8989682F67708695869558
:102CC0008695412F0E94E90BDF91CF911F910895C6
:102CD000DF92EF92FF920F931F93CF93DF93EC015C
:102CE000D62EE42E8E81882309F481C0CE0160E0C7
:102CF0009BDF8F810E944F0388850E94E8020FEFBF
:102D00000F2EF5E0FF2EF02D89850E94E8028F2D11
:102D10008A95F1F789890E942002182F89850E94DF
:102D20004F03112311F0015079F7CE0161E07CDFF0
:102D3000DD2021F08F810E94E80203C08F810E9474
:102D40004F0388850E944F031E2DE0FE04C08A8534
:102D50000E94E80203C08A850E944F0311FF04C04D
:102D60008B850E94E80203C08B850E944F0312FFEF
:102D700004C08C850E94E80203C08C850E944F032A
:102D800013FF04C08D850E94E80203C08D850E9458
:102D90004F0314FF04C08E850E94E80203C08E8595
:102DA0000E944F0315FF04C08F850E94E80203C0F4
:102DB0008F850E944F0316FF04C088890E94E80295
:102DC00003C088890E944F03EE2024F489890E9461
:102DD000E80203C089890E944F0389850E94E802A6
:102DE00085E08A95F1F789850E944F039BC0CE014B
:102DF00060E01ADF8F810E944F0388850E94E802FD
:102E00000FEF0F2EF5E0FF2EF02D89850E94E802CE
:102E10008F2D8A95F1F789890E942002182F8985C4
:102E20000E944F038F2D8A95F1F789850E94E80251
:102E30008F2D8A95F1F789890E94200289850E9449
:102E40004F03112311F0015001F7CE0161E0ECDED8
:102E5000DD2021F08F810E94E80203C08F810E9453
:102E60004F0388850E944F030E2DE4FE04C08E851B
:102E70000E94E80203C08E850E944F0305FF04C034
:102E80008F850E94E80203C08F850E944F0306FFD2
:102E900004C088890E94E80203C088890E944F0309
:102EA000EE2024F489890E94E80203C089890E94E7
:102EB0004F0389850E94E80215E0812F8A95F1F77A
:102EC00089850E944F031A95F1F700FF04C08E8593
:102ED0000E94E80203C08E850E944F0301FF04C0D8
:102EE0008F850E94E80203C08F850E944F0302FF76
:102EF00004C088890E94E80203C088890E944F03A9
:102F000003FF04C089890E94E80203C089890E94E6
:102F10004F0389850E94E80285E08A95F1F789854B
:102F20000E944F03DF91CF911F910F91FF90EF907F
:102F3000DF900895BF92CF92DF92EF92FF920F93AE
:102F40001F93CF93DF938C016A017901FC01838188
:102F5000861709F046C080918203882331F08FE9FB
:102F600092E00E94290B0E94390BC601B70148E08C
:102F70000E94BA0BB82EC601B70148E00E94BA0BF6
:102F8000482FF8015481282F30E0852F90E00197D9
:102F90008217930714F4452F4150F801E40FF11DF7
:102FA00042894B0D4068C80160E092DEF8018581DE
:102FB000882309F45DC0C0E0D0E0C601B70148E055
:102FC0000E94BA0B482F882309F452C0C80161E05F
:102FD0007FDE2196F801858190E0C817D9076CF350
:102FE00047C0C62FD0E090E00196C817D90759F521
:102FF00080918203882331F081EB92E00E94290BBB
:103000000E94390BC601B70148E00E94BA0B482F55
:10301000440F440F440F4064C80160E059DEC0E033
:10302000D0E0C601B70145E00E94BA0B482FC801A5
:1030300061E04EDE2196C730D10599F7C80161E005
:1030400040E046DE15C080918203882389F088E83D
:1030500092E00E94290BCE010E946D0B8FE30E942B
:10306000040BF801838190E00E946D0B0E94390BE4
:10307000DF91CF911F910F91FF90EF90DF90CF9054
:10308000BF9008950F931F93CF93DF93EC01162FFA
:10309000042F61E0C9DD112321F08F810E94E80235
:1030A00003C08F810E944F0388850E944F03102F19
:1030B00000FF04C08E850E94E80203C08E850E9436
:1030C0004F0311FF04C08F850E94E80203C08F8563
:1030D0000E944F0312FF04C088890E94E80203C0C7
:1030E00088890E944F0313FF04C089890E94E80267
:1030F00003C089890E944F0389850E94E80285E008
:103100008A95F1F789850E944F03DF91CF911F9136
:103110000F910895CF93DF93EC0180917102882382
:1031200021F4809189038D32E0F38F810E944F0357
:1031300088850E944F0389850E944F03CE0160E07D
:1031400073DD8F81682F677086958695869541E03F
:103150000E94E90B8885682F67708695869586950D
:1031600041E00E94E90B8985682F677086958695F6
:10317000869541E00E94E90B809182038823D1F17A
:103180008EED92E00E94290B8F8190E00E94510BFE
:1031900089ED92E00E94290B888590E00E94510BF6
:1031A00085ED92E00E94290B898590E00E94510BE9
:1031B00080ED92E00E94290B8E8590E00E94510BD9
:1031C0008BEC92E00E94290B8F8590E00E94510BBE
:1031D00086EC92E00E94290B888990E00E94510BB6
:1031E00081EC92E00E94290B898990E00E94510BAA
:1031F0000E94390B8E81882309F439C080918203A3
:10320000882321F082EE92E00E94290BCE0160E03B
:1032100040E35EDD80E29EE40197F1F7CE0160E0DD
:1032200040E356DD80E991E00197F1F7CE0160E0DF
:1032300040E34EDD8C81823028F0CE0160E048E32F
:1032400047DD04C0CE0160E040E342DDCE0160E036
:1032500048E03EDDCE0160E041E03ADDCE0160E0D5
:1032600046E036DDCE0160E04CE032DD3CC08091CE
:103270008203882321F08AEF92E00E94290BCE017D
:1032800060E043E0FFDE80E29EE40197F1F7CE01CB
:1032900060E043E0F7DE80E991E00197F1F7CE01CD
:1032A00060E043E0EFDECE0160E042E0EBDE8C81E7
:1032B000823028F0CE0160E048E20ADD04C0CE0191
:1032C00060E040E205DDCE0160E048E001DDCE01D6
:1032D00060E041E0FDDCCE0160E046E0F9DCCE01DB
:1032E00060E04CE0F5DC81E080937102DF91CF91EA
:1032F00008951F920F920FB60F920BB60F921124E2
:103300008F939F93EF93FF93E5E2F0E080818160DC
:1033100080839091790380917A03981779F0909146
:103320007A039F5F90937A0380818E7F8083E9E7A1
:10333000F2E0E90FF11D80818EBD05C0ECE4F0E004
:1033400080818F778083FF91EF919F918F910F9074
:103350000BBE0F900FBE0F901F901895282F8091D5
:103360007903982F9F5F80917A039817C9F0F8949A
:103370008CB588236CF07894ECE4F0E08081806870
:103380008083E5E2F0E080818E7F80832EBD08950A
:10339000E9E7F2E0E90FF11D208390937903789437
:1033A00008950F931F93CF93DF938C0161157105DF
:1033B00039F0EB01F80181918F01D0DF2197D1F72E
:1033C000DF91CF911F910F910895EF92FF920F938C
:1033D0001F93CF93DF938C010D5F1F4FC0E0D0E0B0
:1033E0000F2EF1EFEF2EFF24F02D80918203882322
:1033F00041F0F801808190E00E94510B80E20E9430
:10340000040BF8018081F70180832196C330D10538
:1034100019F00F5F1F4FE9CF80918203882311F0CD
:103420000E94390BDF91CF911F910F91FF90EF9088
:10343000089580918203882331F082E993E00E940D
:10344000290B0E94390B80917202882311F584E6C2
:10345000809373028FEF9FEF9093750280937402B5
:10346000109277021092760210927802E4E2F0E075
:103470008081877F808380818760808383E58CBDA6
:10348000E5E2F0E080818160808310927A031092FF
:10349000790381E08093720208958F929F92AF9298
:1034A000BF92CF92DF92EF92FF920F931F93DF9321
:1034B000CF93CDB7DEB728970FB6F894DEBF0FBE17
:1034C000CDBF5C017A016901FC018381861709F097
:1034D00053C080918203882331F08DE293E00E94F3
:1034E000290B0E94390BC701B60149E00E94BA0BB3
:1034F000982E892EC701B60148E00E94BA0B082F0A
:10350000C701B60141E00E94BA0B182FC701B601EE
:1035100046E00E94BA0B112359F085E889839A820C
:103520008B820C83CE01019664E070E03ADF09C023
:1035300084E889839A820B83CE01019663E070E070
:1035400030DF83E80BDFF5018581882391F000E00F
:1035500010E0C701B60148E00E94BA0B882349F089
:10356000FDDE0F5F1F4FF501858190E008171907F9
:1035700084F380E0F3DECDC0062F10E0282F30E08A
:10358000C90101960817190709F077C080918203D5
:10359000882331F08DE493E00E94290B0E94390BBF
:1035A000C701B60141E00E94BA0B882EC701B601DF
:1035B00047E00E94BA0B982EC701B60140E10E9475
:1035C000BA0B8C01C701B60140E10E94BA0B5C0145
:1035D000C701B60141E00E94BA0BF82E8091730238
:1035E000981651F087E889839A82CE01019662E0AD
:1035F00070E0D7DE90927302809174029091750210
:103600000817190769F081E889831B830A83CE01B3
:10361000019663E070E0C5DE1093750200937402BA
:103620008091760290917702A816B90669F080E839
:103630008983BB82AA82CE01019663E070E0B1DE8D
:10364000B0927702A092760280917802F81651F03B
:1036500086E88983FA82CE01019662E070E0A1DEFD
:10366000F0927802882009F454C082E88983CE0160
:10367000019661E070E095DE4CC0C9010296081722
:10368000190791F580918203882331F083E793E055
:103690000E94290B0E94390B89E88983C701B60172
:1036A00041E00E94BA0B8887C701B60149E00E9439
:1036B000BA0B9B838A83C701B60148E00E94BA0B0C
:1036C0008C83C701B60149E00E94BA0B9E838D83AB
:1036D000C701B60148E00E94BA0B8F83CE01019664
:1036E00068E070E05EDE15C080918203882389F077
:1036F00082E193E00E94290BC8010E946D0B8FE3C9
:103700000E94040BF501838190E00E946D0B0E94E2
:10371000390B28960FB6F894DEBF0FBECDBFCF9100
:10372000DF911F910F91FF90EF90DF90CF90BF90AE
:10373000AF909F908F9008955F926F927F928F923B
:103740009F92AF92BF92CF92DF92EF92FF920F9330
:103750001F93CF93DF93EC014B013A018D818823B6
:1037600009F4B5C0EE24DD24FF24CC24C394AA249C
:10377000BB24A3940F2EF0E85F2EF02D0F2D10E048
:10378000C801880F991FFE01E80FF91F87810E9469
:103790002002982F8E8180FF03C02C2D291B922F91
:1037A00081FF2FC0992341F4C801880F991FFE01A2
:1037B000E80FF91F108630C0C801880F991FFE015D
:1037C000E80FF91F90859923F4F0992359F480911B
:1037D00089039801220F331FFE01E20FF31F8F7739
:1037E00080871AC080918903981B892F8F778B302F
:1037F00098F0C801880F991FFE01E80FF91F508645
:1038000002C0992349F0C50102C0880F991F0A958B
:10381000E2F7E82ADF2CD394F3948D81F81608F4AC
:10382000ADCF4D2D823039F4C401B30150E022E018
:103830000E948D0B94C0843009F04AC085E0E816E0
:10384000F9F08E1550F022E0E21639F184E0E81626
:10385000D9F021E0E21699F510C088E0E81639F1B8
:103860008E1520F026E0E21651F513C089E0E81627
:1038700019F12AE0E21619F515C0DD24D3941FC012
:10388000DD246894D1F81BC00F2EF3E0DF2EF02D5D
:1038900016C0DD246894D2F812C00F2EF5E0DF2E9A
:1038A000F02D0DC00F2EF6E0DF2EF02D08C00F2EEC
:1038B000F7E0DF2EF02D03C0DD246894D3F8C401B7
:1038C000B3014D2D50E024E00E948D0B48C0DD2453
:1038D0008D2D90E001978330910591F18430910511
:1038E0004CF48130910511F182309105B4F4892BAB
:1038F00069F02EC08530910541F1853091054CF07D
:103900008630910579F0079719F515C0DD24D39419
:103910001FC0DD246894D1F81BC00F2EF3E0DF2E0A
:10392000F02D16C0DD246894D2F812C00F2EF5E0F9
:10393000DF2EF02D0DC00F2EF6E0DF2EF02D08C08B
:103940000F2EF7E0DF2EF02D03C0DD246894D3F8AE
:10395000C401B3014D2D50E024E00E948D0BDF9196
:10396000CF911F910F91FF90EF90DF90CF90BF907C
:10397000AF909F908F907F906F905F900895DF92AF
:10398000EF92FF920F931F93CF93DF93EC018D8102
:10399000882391F1DD24ED2CFF24C701880F991FA6
:1039A000FE01E80FF91F8781182F169516951695B9
:1039B000082F0770812F602F40E00E94E90B8E8155
:1039C00080FF08C0812F880F880F880F800F0E940A
:1039D000E80207C0812F880F880F880F800F0E9490
:1039E0004F03C701880F991FFE01E80FF91F1086CA
:1039F000D3948D81D81678F281E080937B03DF9198
:103A0000CF911F910F91FF90EF90DF900895FC01EF
:103A1000CB01BA01409180035091810320917E0334
:103A200030917F034223532326810C948D0B0F93F7
:103A30001F93DF93CF9300D000D0CDB7DEB78C01BA
:103A4000FC018481958190930B0180930A0110926F
:103A5000870310928603109281031092800381E005
:103A600090E0A0E0B0E0068004C0880F991FAA1F74
:103A7000BB1F0A94D2F70197A109B10989839A83E0
:103A8000AB83BC8390937F0380937E0380918203FA
:103A90008823F9F087EB93E00E94290B80910A01BB
:103AA00090910B010E94510B8FEA93E00E94290B29
:103AB000F801868190E00E94510B87EA93E00E9412
:103AC000290B80917E0390917F030E94510B0E94ED
:103AD000390B0F900F900F900F90CF91DF911F91A6
:103AE0000F9108952F923F924F925F926F927F9223
:103AF0008F929F92AF92BF92CF92DF92EF92FF92FE
:103B00000F931F93CF93DF93282F392F1616170685
:103B10000CF0E5C0F90140E050E00F2EF0E7AF2EC9
:103B2000BB24F02D01EB10E00F2EF3EBEF2EFF2462
:103B3000F02D0F2EF5E0DF2EF02D0F2EF2E96F2E77
:103B40007724F02D0F2EF6E94F2E5524F02D0F2E51
:103B5000FFE62F2E3324F02D0F2EF6E88F2E99241A
:103B6000F02D0F2EFAE0CF2EF02DDF014130510560
:103B700009F467C04230510521F04115510509F0A3
:103B8000A7C08081813011F09C2D01C09EE0218171
:103B9000328120343105C1F02134310538F421302F
:103BA000310561F02830310559F40CC081E0203036
:103BB000380761F02050344019F40AC021E009C0F0
:103BC00020E007C022E005C023E003C024E001C0DC
:103BD0002D2D41155105D1F4E1011882892F8370F3
:103BE000A0E8B0E08C93892F90E08C709070880FE3
:103BF000991F822BC1E8D0E08883A2E8B0E01C9234
:103C000083819481E4019983888362C0A1E7B0E055
:103C10001C92892F8370C0E9D0E08883892F90E0BF
:103C20008C709070880F991F822BA1E9B0E08C9363
:103C3000E301188283819481D20111969C938E9323
:103C400047C08081813011F09D2D01C097E0218116
:103C500032812034310509F12134310550F4283006
:103C60003105B9F020323105B1F02130310579F458
:103C70000CC081E020303807A1F084E02030380704
:103C800091F02038310519F40AC021E00DC020E080
:103C90000BC022E009C023E007C024E005C02D2DA1
:103CA00003C026E001C027E0E5011882892F837058
:103CB000C0EBD0E08883892F90E084709070880FEB
:103CC000991F822BE801888313968C91D7018C93DE
:103CD0004F5F5F4F3596461757070CF446CFDF917D
:103CE000CF911F910F91FF90EF90DF90CF90BF90F9
:103CF000AF909F908F907F906F905F904F903F908C
:103D00002F900895EF92FF920F931F93DF93CF931D
:103D100000D0CDB7DEB78C01FC0184818230A8F5DC
:103D2000CB01BA0145810E94BA0B9A838983F801BD
:103D3000268137812817390710F43A832983F8013F
:103D400086819981F82EF91A80918203882399F04F
:103D500087EE93E00E94290BF801848190E00E9495
:103D6000510B8EED93E00E94290B89819A810E946C
:103D7000510B0E94390BF8018481882319F4F092C9
:103D8000B30058C0F092B40055C0CB01BA01F8019D
:103D900045810E94BA0BF80146815781481759079F
:103DA00008F4CA017A01E81AF90A8091820388238B
:103DB00091F084ED93E00E94290BF801848190E05A
:103DC0000E94510B8BEC93E00E94290BC7010E94CB
:103DD000510B0E94390BF80184818430C1F0853089
:103DE00028F4823051F0833029F50CC08630C9F0B8
:103DF000863090F08730F1F419C0F0928900E0929B
:103E0000880018C0F0928B00E0928A0013C0F092F4
:103E10008D00E0928C000EC0F0929900E092980024
:103E200009C0F0929B00E0929A0004C0F0929D00BD
:103E3000E0929C000F900F90CF91DF911F910F9116
:103E4000FF90EF900895CF93DF93EC018C81682F62
:103E5000677086958695869541E00E94E90B8C8176
:103E60008F3009F44BC0803140F48D3059F18E30E1
:103E7000B8F58C3009F079C010C0853109F45AC00A
:103E8000863120F4843109F070C062C0863109F4B3
:103E900043C0893109F069C00AC01C82E0EBF0E040
:103EA0008081806C80838E818093B3005EC081E0CE
:103EB0008C83E0EBF0E08081806380838E8180934F
:103EC000B40053C082E08C83E0E8F0E08081806C35
:103ED00080838E819F81909389008093880045C064
:103EE00083E08C83E0E8F0E08081806380838E81D2
:103EF0009F8190938B0080938A0037C084E08C83ED
:103F0000E0E8F0E080818C6080838E819F819093D7
:103F10008D0080938C0029C085E08C83E0E9F0E07F
:103F20008081806C80838E819F81909399008093A3
:103F300098001BC086E08C83E0E9F0E0808180631C
:103F400080838E819F8190939B0080939A000DC007
:103F500087E08C83E0E9F0E080818C6080838E8153
:103F60009F8190939D0080939C0081E080937C03CF
:103F7000DF91CF91089580919203882309F01BD49B
:103F8000E8EDF0E080818C7F80831092E200109257
:103F9000DA001092E100BED0E0EEF0E080818160B6
:103FA0008083E7EDF0E080818E7F80831092920322
:103FB00010929103109290030895DDDFABD08091B1
:103FC0008F03982F80FF06C0E0EEF0E080818460D0
:103FD000808305C0E0EEF0E080818B7F8083E8ED98
:103FE000F0E080818160808391FD05C0E7EDF0E025
:103FF0008081816080838AE189BDE9E4F0E080818D
:1040000080FFFDCFE8EDF0E080818F7780838081B5
:104010008068808380818F7D808380E060E040E3E2
:104020005FD0882399F0E0EEF0E080818E7F80837E
:10403000E2EEF0E08081816080838081886080830F
:1040400081E08093910310929203089581E0B3D3AD
:1040500080E0089590DF10927D0310928F03A8ED09
:10406000B0E08C918F778C9319BCE7EDF0E0808104
:104070008E7F80838C918F7E8C9308950F931F93F6
:10408000182F062F80919103882309F0E3DF109306
:104090007D03112319F480E08ED31FC0113019F075
:1040A00081E089D305C0E7EDF0E0808180688083FE
:1040B00081E08093910310929203A8EDB0E08C917F
:1040C00080618C93EBE2F0E08081806480830093D8
:1040D0008F038C9181608C9378941F910F91089538
:1040E00087708093E900EBEEF0E08081816080834F
:1040F0006093EC00EDEEF0E080818270482B40830D
:104100008081826080838091EE008823881F8827C9
:10411000881F0895CF93DF9330E0C9EED0E0EBEE37
:10412000F0E040EF50E06DEE70E0232F2770288321
:104130008081982F916090838E7F80832883DA011D
:104140001C92DB018C918D7F8C9380818E7F80838C
:104150003F5F373051F7DF91CF910895CF92DF92D3
:10416000EF92FF920F931F93DF93CF9300D000D075
:104170000F92CDB7DEB7E1EFF0E0008110818091C2
:104180008203882389F082E50E94040B812F90E04E
:104190000E946D0B8EE20E94040B802F90E00E9423
:1041A0006D0B80E20E94040B1530A1F0163050F424
:1041B000113009F4ABC1113008F407C1133009F014
:1041C00000C26AC11830D9F1193021F1163009F056
:1041D000F8C153C0002309F0F9C19091F100E3EE5A
:1041E000F0E080819F738078982B9083E8EEF0E078
:1041F0008081877F808380818E7F808380818F779D
:104200008083808180FFFDCFE3EEF0E080818068D5
:104210008083E0C1002309F0D9C18091F10080932F
:104220009003E8EEF0E08081877F808380818E7F3D
:10423000808380818F7780830E944B07CBC10038B9
:1042400009F0C4C1E8EEF0E08081877F808380912F
:1042500090038093F10080818E7F808380818F77AF
:104260008083808182FFFDCFE8EEF0E080818B7F4C
:10427000808380818F778083ADC1E1EFF0E00081A2
:10428000108180918203882389F084E40E94040BCA
:10429000802F90E00E946D0B8EE20E94040B812F14
:1042A00090E00E946D0B80E20E94040B812F602F32
:1042B000AE014C5F5F4F9E012E5F3F4F0E94F4099D
:1042C000882309F487C1E1EFF0E080818983808150
:1042D000898320814081942F80E030E0282B392B86
:1042E000E8EEF0E08081877F80838A819B8182175E
:1042F000930780F48F739070892B11F411E001C043
:1043000010E08A819B81892BB1F18091E80082FFC6
:1043100005C031C03B832A8310E0F3CF0F2EF8EEA7
:10432000EF2EFF24F02D50E061EF70E0D7018C916B
:1043300080FFFCCF5EC1EC81FD818081DB018C932D
:104340002150304009F459C1CF0101969D838C83DF
:104350003B832A834F5F413471F7F70180818E7F61
:10436000808380818F7780838A819B81892B19F05C
:10437000808182FFDBCF8091E80082FF09C0E8EEF8
:10438000F0E080818B7F808380818F77808322C162
:10439000112369F0E8EEF0E0808180FFFDCFE8EEC8
:1043A000F0E080818E7F808380818F778083E8EE4C
:1043B000F0E0808182FFFDCFE8EEF0E080818B7F2E
:1043C000808380818F77808305C1802F90E09C015E
:1043D0002F7130702330310509F4F8C08076907069
:1043E0008034910509F4F2C0E1EFF0E08081898327
:1043F0008081898380812130310531F0223031057F
:1044000009F1232B19F0DFC090E026C082E0609113
:104410009003AE014E5F5F4F9E012C5F3F4F0E94A5
:10442000F409882309F4D6C0EA81FB812781822F11
:10443000807C11F092E001C090E0822F807A61F0E0
:1044400091600AC08770E9EEF0E080838091EB0014
:104450008095982F91701082A8EEB0E08C91877FA4
:104460008C93E1EFF0E0908310828C918E7F8C939F
:104470008C918F778C93E8EEF0E0808182FFFDCF06
:10448000E8EEF0E080818B7F808380818F7780836E
:104490008081877F80839EC0802F90E09C012F7158
:1044A00030702330310509F491C0807690708034EB
:1044B000910509F48BC0E1EFF0E090818081898360
:1044C000E0812230310509F07EC0992309F082C0D5
:1044D000E770E093E9008091EB0080FF14C0EE23C9
:1044E00029F0EBEEF0E08081806280831092E90099
:1044F000E8EEF0E08081877F808380818E7F8083FB
:1045000080818F7780831092E90064C0E02EFF24C1
:104510000F2EFFE1CF2EDD24F02DCE20DF20F3E0A3
:10452000CF16D10409F452C0C70180769070892B50
:1045300009F04CC080918203882359F084EF93E006
:104540000E94290BC7010E94510B81EF93E00E944A
:10455000290BE1EFF0E0908180818983E08182E0A6
:10456000C816D10481F59923A9F5E770E093E90015
:104570008091EB0080FF22C0EE2399F0ABEEB0E01B
:104580008C918F7D8C9381E090E002C0880F991F01
:10459000EA95E2F7EAEEF0E0808310828C91886081
:1045A0008C931092E900E8EEF0E08081877F8083B1
:1045B00080818E7F808380818F7780831092E90055
:1045C00009C080E001C081E0882321F4812F602FA1
:1045D0000E9480078091E80083FF18C0EBEEF0E0B6
:1045E000808180628083E8EEF0E08081877F808335
:1045F0000DC02A813B81452FADCEE8EEF0E08081F1
:104600008E7F808380818F778083B5CE0F900F90CF
:104610000F900F900F90CF91DF911F910F91FF900E
:10462000EF90DF90CF90089580919203882339F026
:104630001092E9008091E80083FF01C08FCD0895BA
:104640001F920F920FB60F920BB60F9211242F9359
:104650003F934F935F936F937F938F939F93AF930A
:10466000BF93EF93FF938091DA0080FF34C0809175
:10467000D80080FF30C0EAEDF0E080818E7F80833B
:104680009AD08091D90080FF01C095D0809192038B
:10469000882381F48091D90080FF0CC08091910320
:1046A000882341F08ADC8823B1F081E08093920373
:1046B00082D011C080917D03813051F4E0EEF0E0B2
:1046C000808181608083E7EDF0E080818E7F808350
:1046D00072D0109292038091E10080FF18C0809107
:1046E000E20080FF14C0E1EEF0E080818E7F8083E5
:1046F000E8EDF0E080818062808319BCE2EEF0E0BA
:1047000080818E7F808380818061808354D080917E
:10471000E10084FF1EC08091E20084FF1AC0E1EE38
:10472000F0E080818F7E8083E8EDF0E080818F7DF6
:1047300080838AE189BDE9E4F0E0808180FFFDCFDC
:10474000E2EEF0E080818F7E8083808181608083D3
:1047500032D08091E10083FF1BC08091E20083FF93
:1047600017C0E1EEF0E08081877F80831092900394
:1047700080818E7F8083E2EEF0E080818E7F808377
:1047800080818061808380E060E040E3A9DC13D019
:10479000FF91EF91BF91AF919F918F917F916F9119
:1047A0005F914F913F912F910F900BBE0F900FBED5
:1047B0000F901F9018950895AA1BBB1B51E107C0CD
:1047C000AA1FBB1FA617B70710F0A61BB70B881FA1
:1047D000991F5A95A9F780959095BC01CD01089530
:0447E000F894FFCF7B
:0C47E40000FE0014230101600501FFFF2E
:00000001FF
