:1000000036C200000C9498120C9498120C9498121A
:100010000C9498120C9498120C9498120C949812B8
:100020000C9498120C9498120C94FE233EC200007B
:100030003CC200003AC2000038C2000036C20000D4
:1000400034C2000032C2000030C200002EC20000E4
:100050002CC20000D2C3000028C2000026C200004B
:100060000C94571A22C200000C9493091EC200007F
:100070001CC200000C948C0D18C2000016C20000B7
:1000800014C2000012C2000010C200000EC2000024
:100090000CC200000AC200000D0A436F6E6E656359
:1000A000740D0A000D0A446973636F6E6E656374A4
:1000B0000D0A003F0D0A0053757370656E64656428
:1000C0000D0A00436F6E666967757265640D0A00FC
:1000D0004164647265737365640D0A00446566610A
:1000E000756C740D0A00506F77657265640D0A00B7
:1000F000556E61747461636865640D0A000D0A438E
:10010000666743686720004745545F49444C450093
:100110005345545F49444C45005345545F50524F3A
:10012000544F434F4C004745545F50524F544F4338
:100130004F4C005345545F49444C45002C002C0063
:100140002C004745545F5245504F52543D002C00FF
:100150005543503D00506F7765723D5000290D0AA0
:1001600000555342204849442076312E3020496EB4
:10017000697469616C6973656420280042797465EB
:1001800073546F526561643D0052656365697665BD
:10019000642000496E697469616C69736174696F88
:1001A0006E20436F6D706C6574650D0A00496E6951
:1001B0007469616C6973696E670D0A0053746172CA
:1001C00074696E6720426F6F746C6F616465720D45
:1001D0000A0050726F63657373696E67204F7574A0
:1001E000707574205265706F72740D0A0020005291
:1001F00065706F7274200020004849442000200080
:10020000200053747220002000436F6E66696720DF
:100210000020004465762000476F7420756E657875
:10022000706563746564207479706520696E204917
:100230006E6974436F6E74726F6C73202D2030780A
:1002400000506F74656E74696F6D657465722066B9
:100250006F756E64206F6E2077726F6E6720706F9F
:100260007274202D20506F72743D307800496E6991
:10027000745377697463680D0A002C00506F7274B0
:100280002000476F74204C454420537461746520EE
:1002900000496E69744C45440D0A00476F74204252
:1002A00069636F6C6F75724C45442053746174655B
:1002B0002000476F7420547269636F6C6F75724CC5
:1002C000454420537461746520004C434420556EAE
:1002D0006B6E6F776E207265706F72742069642028
:1002E000004C4344204F7574707574205265706FD4
:1002F0007274004C434420466F6E74205265706FD8
:100300007274004C434420437572736F72205265BF
:10031000706F7274004C43442046756E6374696F4D
:100320006E536574205265706F7274002044373DBF
:10033000002044363D002044353D002044343D003B
:1003400020453D002052573D0052533D00496E6903
:100350007469616C6973696E672038626974204CD6
:1003600043440D0A00496E697469616C6973696E72
:10037000672034626974204C43440D0A004C4344A6
:100380005F53504920556E6B6E6F776E20726570AB
:100390006F727420696420004C43445F53504920BD
:1003A000436861726163746572204F75747075740F
:1003B000205265706F7274004C43445F5350492063
:1003C000446973706C617920636F6E74726F6C2016
:1003D0004F7574707574205265706F7274004C4361
:1003E000445F535049204472617752656374204FD3
:1003F0007574707574205265706F7274004C43444C
:100400005F53504920496E697469616C6973696E04
:1004100067002C204D61736B3D002C204269747382
:100420003D00496E6974436F756E74657220506546
:1004300072696F643D002C2056616C75653D0050FB
:10044000574D20506F72743D002C2056616C7565BD
:100450003D0050574D20506F72743D000D0A00430F
:100460006C656172466561747572653D00001124AA
:100470001FBECFEFD0E2DEBFCDBF11E0A0E0B1E004
:10048000EEEBFAE400E00BBF02C007900D92A4303F
:10049000B107D9F714E0A4E0B1E001C01D92A93181
:1004A000B107E1F7A1D30C945D25AACDE82FFF2772
:1004B000EE0FEE0F8827E25AFD4F0994009981E074
:1004C00008950000019981E008950000029981E0FB
:1004D00008950000039981E008950000049981E0E7
:1004E00008950000059981E008950000069981E0D3
:1004F00008950000079981E008950000189981E0AF
:1005000008950000199981E0089500001A9981E08A
:10051000089500001B9981E0089500001C9981E076
:10052000089500001D9981E0089500001E9981E062
:10053000089500001F9981E008950000309981E03E
:1005400008950000319981E008950000329981E01A
:1005500008950000339981E008950000349981E006
:1005600008950000359981E008950000369981E0F2
:1005700008950000379981E008950000489981E0CE
:1005800008950000499981E0089500004A9981E0AA
:10059000089500004B9981E0089500004C9981E096
:1005A000089500004D9981E0089500004E9981E082
:1005B000089500004F9981E008950000609981E05E
:1005C00008950000619981E008950000629981E03A
:1005D00008950000639981E008950000649981E026
:1005E00008950000659981E008950000669981E012
:1005F00008950000679981E008950000789981E0EE
:1006000008950000799981E0089500007A9981E0C9
:10061000089500007B9981E0089500007C9981E0B5
:10062000089500007D9981E0089500007E9981E0A1
:10063000089500007F9981E008950000E82FFF27CA
:10064000EE0F8827EB5DFC4F0994109A0895119ADC
:100650000895129A0895139A0895149A0895159A70
:100660000895169A0895179A0895289A0895299A30
:1006700008952A9A08952B9A08952C9A08952D9AF0
:1006800008952E9A08952F9A0895409A0895419AB0
:100690000895429A0895439A0895449A0895459A70
:1006A0000895469A0895479A0895589A0895599A30
:1006B00008955A9A08955B9A08955C9A08955D9AF0
:1006C00008955E9A08955F9A0895709A0895719AB0
:1006D0000895729A0895739A0895749A0895759A70
:1006E0000895769A0895779A0895889A0895899A30
:1006F00008958A9A08958B9A08958C9A08958D9AF0
:1007000008958E9A08958F9A0895E82FFF27EE0F87
:100710008827E457FC4F099410980895119808957C
:1007200012980895139808951498089515980895A7
:100730001698089517980895289808952998089567
:100740002A9808952B9808952C9808952D98089527
:100750002E9808952F9808954098089541980895E7
:1007600042980895439808954498089545980895A7
:100770004698089547980895589808955998089567
:100780005A9808955B9808955C9808955D98089527
:100790005E9808955F9808957098089571980895E7
:1007A00072980895739808957498089575980895A7
:1007B0007698089577980895889808958998089567
:1007C0008A9808958B9808958C9808958D98089527
:1007D0008E9808958F980895823049F0813009F0FD
:1007E00008958BB160738F7C862B8BB908958BB184
:1007F000607C8F73862B8BB908951F920F920FB672
:100800000F9211242F933F938F939F93809109040C
:1008100090910A04019690930A04809309048091B0
:1008200007048F5F80930704809102049091030472
:1008300001969093030480930204809102049091A6
:100840000304885E934031F1809104049091050483
:100850000196909305048093040420910201309145
:1008600003018217930768F08091FF0390910004C1
:100870000196909300048093FF0310920504109258
:1008800004049F918F913F912F910F900FBE0F9075
:100890001F901895809106048F5F80930604109234
:1008A000030410920204D0CF089580910804882395
:1008B00009F4089588E990E092C5E0910701F0916C
:1008C000080180818F3F09F0B9DE809108048823F8
:1008D00009F4089584EA90E082C5EF92FF921F9395
:1008E000DF93CF93CDB7DEB7C154D0400FB6F894A5
:1008F000DEBF0FBECDBF182F198260910901709124
:100900000A0182E0E82EF12CEC0EFD1E81E0A70129
:100910009E012F5F3F4FC3D78091090490910A0435
:1009200020910E0130910F01821B930BC39708F0A9
:100930005CC0112309F44BC080911004882309F492
:1009400046C091E09093E9008091E80085FF3FC0A8
:100950008091E80080FF3BC09093F10090910804E3
:100960009B3008F052C089818823A9F010E004C0B0
:100970001F5F8981181778F4F701E10FF11D80815D
:100980008093F1009B30A0F390E051D580E204D534
:1009900090910804EDCF9B3008F03FC08091E800B3
:1009A000982F9E7F9093E8008F778093E80027E54B
:1009B00031E04981C901B70150E00E94FB248091D8
:1009C000090490910A0490930F0180930E0180E036
:1009D000CF5BDF4F0FB6F894DEBF0FBECDBFCF9118
:1009E000DF911F91FF90EF9008954981C70167E55E
:1009F00071E050E00E94EE24009709F49ACF8091B4
:100A00001004882309F09DCFE2CF81E090E00FD55C
:100A100080E2C2D490910804A6CFF1D4BFCFEF9268
:100A2000FF920F931F93CF93DF938091E80083FF92
:100A30001BC08091150490911604892BA9F4109184
:100A4000120400911104809108048B3028F51330B2
:100A500009F483C0143078F01A3009F46FC01B30E9
:100A600009F462C0193041F1DF91CF911F910F91CC
:100A7000FF90EF900895113061F11230A9F7809145
:100A80001104813A89F7809108048B3068F387E07C
:100A900091E0A5D4B4D4E8CF80E591E0A0D4812F33
:100AA00090E0C5D48EE491E09AD4802F90E0BFD43A
:100AB000A6D410911204CBCF809111048132A1F6FB
:100AC000809108048B3080F283E391E088D497D43E
:100AD000CBCF013A09F0C8CF8091E800877F80939F
:100AE000E80000911304109114041150C0911504F2
:100AF000D0911604E0901704F09018048091080437
:100B00008B30A8F5123009F44AC0112319F40130D2
:100B100009F45DC08091E800982F9E7F9093E800D3
:100B20008F778093E800A0CF809108048B3008F481
:100B30009BCF89E191E053D462D496CF8091110488
:100B4000813209F091CF809108048B3008F48CCF6A
:100B500080E191E044D453D487CF809108048B3056
:100B600008F482CF86E291E03AD449D47DCF82E482
:100B700091E035D4812F90E05AD480E491E02FD4D5
:100B8000802F90E054D48EE391E029D4CE014FD44D
:100B90008CE391E024D4C7014AD431D4B3CF60911F
:100BA000090170910A01802F91D58091E800982F5A
:100BB0009E7F9093E8008F778093E8008091E80013
:100BC00082FD08C0809110048823C1F74DCF81E0D9
:100BD00084DE4ACF8091E800982F9B7F9093E800B5
:100BE0008F778093E80040CFFF920F931F9384B7D5
:100BF000A89594B7977F94BF98E10FB6F894909317
:100C00006000109260000FBE14BE082F83FDEDC17E
:100C10008FEF9FE06FEF0E942B2580916100809302
:100C20000D01F89410E81093610010926100E0E06B
:100C3000F0EE4591549189E194E060E070EE0E94FD
:100C4000E524E0912D04F0912E04E75EFB4FF09334
:100C50000801E0930701918195FD03C081E885BFFC
:100C600015BF967090930B01E0910701F091080178
:100C70008281809308047296F0935401E0935301AB
:100C80007496F0930A01E0930901B697109211014E
:100C90001092560110920C0110920F0110920E0149
:100CA0001092100160816F3F89F0862F869586959E
:100CB0008695677041E05ED4E0910701F0910801EC
:100CC0008081BCDCE0910701F091080110920304DF
:100CD00010920204109206041092070410920A0463
:100CE0001092090482E084BD83E085BD8DE787BD55
:100CF00080916E00826080936E0080E88093640033
:100D00001092B600CF01039663E070E00E941E1EB1
:100D100090910B019923A1F0292F30E0A901427095
:100D2000507091FF03C08AB180638AB922FF03C06B
:100D30008AB1806C8AB9452B09F083C192FD73C1D9
:100D400020910804222309F04AC17894222309F053
:100D50001EC190910B01992321F091FD6CC192FD70
:100D600066C180E00E94DE2302E0FF24F3940E942B
:100D7000D124809110048430D1F780910C01882314
:100D8000A9F480910804882319F08DEA91E027D313
:100D90008091090190910A014AD6F0920C0180914C
:100DA0000804882319F083E991E019D32091050103
:100DB000309106012F5F3F4F3093060120930501CC
:100DC0009091060480910401891769F080910604CE
:100DD0008093040180910804882309F0CDC010920B
:100DE0000601109205018091090490910A04209156
:100DF0000E0130910F01821B930B895E934010F01E
:100E0000F09210018091100168DD882311F4109296
:100E100010010093E9008091E80082FFA8CF2091A3
:100E200008042B3028F089E891E0D9D220910804F9
:100E30008091F2009091F300892B89F11091F100DB
:100E40002B3008F06AC0809156018823B1F5812FBC
:100E50008150833108F069C010931201F0921101A2
:100E6000E0915301F0915401E10FF11D3197808120
:100E7000809355012B3058F08CE791E0B0D28091EF
:100E8000550190E0D4D280E287D220910804F092FC
:100E900056018091F2009091F300892B79F68091B0
:100EA000E800982F9B7F9093E8008F778093E8006D
:100EB0002B3008F45CCFA3D25ACF813009F0B8CFE1
:100EC00080911101E82FF0E0EE5EFE4F10838F5FFE
:100ED00080931101809155018150809355018823A1
:100EE00009F0A6CF2B3018F082ED91E078D28091F6
:100EF0001201833021F58091130190911401A0918A
:100F00001501B09116018F5D904FAD40BF4DF9F0C6
:100F100010925601209108048BCF812F90E087D248
:100F200080E23AD2209108048ECF8091E800982F79
:100F30009B7F9093E8008F778093E80079CF609152
:100F4000090170910A0143E151E0ECD3E1CF8091B6
:100F500008048823A9F48FEF9FE060E00E942B250E
:100F600028E088E190E00FB6F894A895809360009F
:100F70000FBE20936000FFCFC90176D240D22FCFA1
:100F80008CEB91E02CD2FCD18823E9F3E4CF81E60D
:100F900091E025D2802F90E04AD28DE591E01FD2DA
:100FA000E0910701F091080180818F3F09F4D1CED3
:100FB00085E591E014D2E0910701F091080180816C
:100FC0008695869586958F5BE7D1E0910701F09134
:100FD000080180818770805DDFD111D2BACE8CE0AC
:100FE00090E011D220910804B0CE8FEF9FE00E94D4
:100FF0002325882309F00CCE8FEF9FE06FEF0E942E
:101000002B2580E090E028EC30E0F9013197F1F7F2
:10101000019642E08C369407C1F7E0910001F0910F
:1010200001010995F5CD82E060ECD6DB89CE82E046
:1010300060E8D2DB96CE81E060E1CEDB90910B01DF
:101040008ECE81E060E3C8DB90910B0177CE80917A
:101050000804882331F581E061EC46E30E944622D2
:1010600082E060EC46E30E9446228091E2008460C8
:101070008093E20080910B01882329F0982F81FD55
:101080002AC092FD23C0E0910701F0910801E081A0
:10109000EF3F31F0809110048430B1F08E2FCECA32
:1010A00008958DEF90E09BD180911004823091F1F2
:1010B0008330C0F0843051F1843000F18530D1F4B8
:1010C00087EB90E08CD1C7CF8E2F1FCB8BB18F7366
:1010D00080648BB9D8CF8BB18F7C80628BB992FF43
:1010E000D2CFF4CF882321F480EF90E078D1B3CF32
:1010F000813041F083EB90E072D1ADCF80ED90E094
:101100006ED1A9CF86EE90E06AD1A5CF83EC90E0B6
:1011100066D1A1CF8CED90E062D19DCFAF92BF920E
:10112000CF92DF92EF92FF920F931F93CF93DF93B3
:101130005A01933009F4CFC0943008F1913209F488
:1011400084C0923209F442C000E010E0EE24FF2493
:1011500080910804853120F0E114F10409F059C0B0
:10116000F50111830083C701DF91CF911F910F918A
:10117000FF90EF90DF90CF90BF90AF9008959130A7
:1011800009F486C0923001F70091250410912604DD
:10119000075E1B4FE0902704F0902804809108041C
:1011A0008B30C0F289E092E01AD1809125049091B1
:1011B00026045AD187E092E012D1809127049091C1
:1011C000280452D11CD180910804C4CF00911D0481
:1011D00010911E04075E1B4FE0901F04F090200446
:1011E000809108048B3008F4B5CF8FEE91E0F7D0F2
:1011F00080911D0490911E0437D18DEE91E0EFD0C7
:1012000080911F04909120042FD1F9D0809108047F
:10121000A1CFC0E0D0E080E090E00DC0F801EC0F7D
:10122000FD1F808190E003D180E2B6D02196CE01EF
:10123000CE15DF0540F48F709070892B79F72097D9
:1012400069F3DDD0EBCFDBD08BCF00912904109177
:101250002A04075E1B4FE0902B04F0902C04809131
:1012600008048B3008F476CF89EF91E0B8D08091F4
:10127000290490912A04F8D087EF91E0B0D08091B2
:101280002B0490912C04F0D0BAD08091080462CF46
:101290000091210410912204075E1B4FE09023046B
:1012A000F0902404809108048B3008F453CF83E13C
:1012B00092E095D08091210490912204D5D081E1D3
:1012C00092E08DD08091230490912404CDD097D0CA
:1012D000809108043FCFC82EDD24E601CC0FDD1F2E
:1012E000C15DDB4F08811981075E1B4FF8018081CA
:1012F000E82EFF24809108048B3008F42BCF82E085
:1013000092E06DD0C601B0D080E092E068D08881D4
:101310009981AAD08EEF91E062D0C701A5D06FD09D
:101320008091080417CF1F920F920FB60F920BB641
:101330000F9211248F939F93EF93FF9390919702B5
:10134000809198029817B1F0E0919802EF5FE093D6
:101350009802F0E0E956FE4F80818093CE00FF9125
:10136000EF919F918F910F900BBE0F900FBE0F903A
:101370001F9018958091C9008F7D8093C900EFCF91
:10138000909197028091980220E0981711F0822F97
:10139000089521E0822F0895282F909197029F5F52
:1013A000809198029817E1F3E92FF0E0E956FE4F9B
:1013B0002083909397028091C90080628093C90036
:1013C0000895CF93DF93EC018881882329F0E4DF2F
:1013D000219688818823D9F7DF91CF910895CF9303
:1013E000DF93EC01FC018491882331F0D5DF219655
:1013F000FE0184918823D1F7DF91CF9108958DE08C
:10140000CBDF8AE0C9CF1092980210929702909396
:10141000CD008093CC001092C800E9ECF0E010827F
:1014200086E08093CA0080818860808308950F934E
:101430001F93DF93CF9300D000D00F92CDB7DEB7CC
:101440008E010F5F1F4FB80140E150E00E9404255C
:10145000C801B7DF0F900F900F900F900F90CF91B2
:10146000DF911F910F9108950F931F93DF93CF93F7
:10147000CDB7DEB727970FB6F894DEBF0FBECDBF4E
:101480008E010F5F1F4FB8014AE050E00E94042513
:10149000C80197DF27960FB6F894DEBF0FBECDBF09
:1014A000CF91DF911F910F910895EF92FF920F93CB
:1014B0001F93CF93DF937C018B01DC01ED91FC91B5
:1014C000EB01A8812223D1F061E070E030E00FC091
:1014D000BA2FAA0FCB0184239523892B19F0808181
:1014E0008B2B80833F5F321748F4660F771FAA2348
:1014F00079F731961082B1E0A2E0ECCFE701F983F1
:10150000E883F801A083DF91CF911F910F91FF90A5
:10151000EF9008950F931F93CF93DF93EC018B010E
:10152000E881F981DB015C914423C1F0A0E0B0E0E7
:1015300061E070E030E00CC0252F550F808128233A
:1015400011F0A62BB72B3F5F341750F4660F771FAF
:10155000552391F7319621E052E0F0CFA0E0B0E0C2
:10156000F983E883F8015083CD01DF91CF911F917A
:101570000F910895823009F454C0833098F084307C
:1015800009F442C0843008F5442309F464C02AB148
:1015900081E090E002C0880F991F6A95E2F7282B3E
:1015A0002AB90895882371F4442309F448C021B16D
:1015B00081E090E002C0880F991F6A95E2F7282B1E
:1015C00021B90895813091F008958530E9F74423D9
:1015D00009F071C020B381E090E002C0880F991F2C
:1015E0006A95E2F78095822380BB0895442309F42D
:1015F0004AC024B181E090E002C0880F991F6A952B
:10160000E2F7282B24B90895442389F12DB181E014
:1016100090E002C0880F991F6A95E2F7282B2DB938
:101620000895442309F43BC027B181E090E002C053
:10163000880F991F6A95E2F7282B27B9089521B1E1
:1016400081E090E002C0880F991F6A95E2F78095CB
:10165000822381B908952AB181E090E002C0880F09
:10166000991F6A95E2F7809582238AB908952DB172
:1016700081E090E002C0880F991F6A95E2F780959B
:1016800082238DB9089524B181E090E002C0880FD3
:10169000991F6A95E2F78095822384B9089527B14E
:1016A00081E090E002C0880F991F6A95E2F780956B
:1016B000822387B9089520B381E090E002C0880FAB
:1016C000991F6A95E2F7282B20BB08951F93CF93AB
:1016D000DF93182FEB018881882361F41FC08F30BE
:1016E00019F4CE010E94B31A8981C80FD11D8881D7
:1016F0008823A1F08B81811729F01817A8F38A811C
:10170000811790F38881893051F7CE010E94F2153C
:101710008981C80FD11D8881882361F7DF91CF911E
:101720001F910895AF92BF92CF92DF92FF920F93D5
:101730001F93DF93CF9300D00F92CDB7DEB7F82E73
:101740008B015B834A8381E08983FB01808188234D
:1017500049F122E0A22EB12CAC0EBD1E6E01089400
:10176000C11CD11CF80183818F1529F0F81690F067
:1017700082818F1578F0F8018081893009F461C089
:101780008A3058F5873009F47BC0883008F069C08A
:101790008630A9F0F8018181080F111DF8018081C0
:1017A000882301F70F900F900F90CF91DF911F9139
:1017B0000F91FF90DF90CF90BF90AF900895C80138
:1017C000B501A6010E940C14F8018181080F111DBA
:1017D000F8018081882331F6E5CF8E3019F18F3002
:1017E00089F08D30B9F6C801B501A6010E94F71E37
:1017F000F8018181080F111DF8018081882309F00B
:10180000B1CFD0CFC8016F2DA50196010E942B1B2F
:10181000F8018181080F111DF8018081882309F0EA
:10182000A1CFC0CFC801B501A6010E948F15F80154
:101830008181080F111DF8018081882309F092CF62
:10184000B1CFC8016F2DA50196010E94C617F801FE
:101850008181080F111DF8018081882309F082CF52
:10186000A1CFC801B501A6010E94F614F80181813B
:10187000080F111DF8018081882309F073CF92CFE2
:10188000C801B501A6010E947614F8018181080FF4
:10189000111DF8018081882309F064CF83CF6F92F6
:1018A0007F928F929F92AF92BF92CF92DF92FF92E0
:1018B0000F931F93DF93CF9300D00F92CDB7DEB776
:1018C000F82E8B014A0139015B834A8381E08983C9
:1018D000FA011082FB018081882349F132E0A32EB6
:1018E000B12CAC0EBD1E6E010894C11CD11CF801B8
:1018F00083818F1529F0F81690F082818F1578F08A
:10190000F8018081843009F468C08530A0F5823008
:1019100009F47FC0833008F06EC08130F1F0F80127
:101920008181080F111DF8018081882301F78A81C8
:101930008F5F8819F30180830F900F900F90CF91E4
:10194000DF911F910F91FF90DF90CF90BF90AF90EC
:101950009F908F907F906F900895C801B501A60168
:1019600047D1F8018181080F111DF801808188237A
:1019700009F0BDCFDCCF8A3009F18B3081F08530A2
:1019800071F6C801B501A601A9D6F8018181080F39
:10199000111DF8018081882309F0A9CFC8CFC801A3
:1019A000B501A6010E94B31DF8018181080F111D28
:1019B000F8018081882309F09ACFB9CFC801B50119
:1019C000A6010E94811CF8018181080F111DF801F8
:1019D0008081882309F08BCFAACFC801B501A60169
:1019E000FBD3F8018181080F111DF8018081882344
:1019F00009F07DCF9CCFC801B501A601D5D1F80172
:101A00008181080F111DF8018081882309F06FCFB3
:101A10008ECFC801B501A6015DD1F8018181080F03
:101A2000111DF8018081882309F061CF80CFCF9309
:101A3000DF93EC0188818823A9F08881873059F1F0
:101A4000883098F4833009F448C08430A8F5813098
:101A500009F449C0823009F443C080910804882306
:101A600009F050C0DF91CF9108958B3009F446C042
:101A70008C30C0F4893009F43DC08A3078F4CE014E
:101A80000E944B158981C80FD11D8881882351F38D
:101A900088818730A9F6CE0178D7F4CFCE010E9495
:101AA000691DF0CF8E3011F18F3099F08D30A9F68D
:101AB000CE010E94AA1FE6CF853041F0863018F093
:101AC000CE01E0D6DFCFCE0150D4DCCFCE0124D67C
:101AD000D9CFCE010E94FE1AD5CFCE01FED2D2CFF1
:101AE000CE0137D1CFCFCE01ABD0CCCFCE010E942B
:101AF000D415C8CFCE010E946B19C4CFCE010E946D
:101B0000C31DC0CF88E192E06ADC888190E08FDC61
:101B100076DCDF91CF9108951F920F920FB60F924E
:101B20000BB60F9211242F933F934F935F938F9394
:101B30009F93EF93FF9340917800509179008091AB
:101B4000B2029091B302480F591F5093B3024093D1
:101B5000B2028091B4028F5F8093B402843079F036
:101B6000FF91EF919F918F915F914F913F912F91B5
:101B70000F900BBE0F900FBE0F901F9018953091D5
:101B80007C0037703F5F232F2770315002C02F5FDA
:101B90002770822F90E0FC01EE0FFF1FE80FF91F66
:101BA000E656FD4F8081882391F380917A008F73F0
:101BB00080937A00206420937C0080917A00806C6E
:101BC00080937A00832F90E0FC01EE0FFF1FE80F57
:101BD000F91FE656FD4F5695479556954795528302
:101BE00041831092B4021092B3021092B202B8CFA5
:101BF000CF93DF93DC01EA01F89414968C9114974B
:101C000090E087709070FC01EE0FFF1FE80FF91F46
:101C1000E656FD4F41815281789415962C912A30D9
:101C200049F08AE090E0821B910902C056954795E1
:101C30008A95E2F7CB01BE0138DCDF91CF910895A0
:101C4000CF93DF93EC01909199029923D9F1EC8124
:101C50008E2F869586958695853051F52E2F30E00E
:101C600027703070F901EE0FFF1FE20FF31FE656E9
:101C7000FD4F81E08083992331F081E080939902C8
:101C8000DF91CF9108951092B4021092B302109296
:101C9000B202822F806480937C008EE280937A006F
:101CA00010927B0080917A00806C80937A00E5CF5F
:101CB00081E492E094DB8C8190E0B9DBA0DBDF91E2
:101CC000CF91089588E1EAE9F2E0DF011D928A955B
:101CD000E9F7BDCFEF92FF920F931F93CF93DF935E
:101CE000EC018B017A018C810E945602482F8D8174
:101CF000982F80FF03C081E0841B482F91FF0FC005
:101D00004423C9F09E8197FD0AC09923C1F08091B8
:101D10000704981B9F779B30C8F080E88E8350E0C3
:101D2000C801B70121E0C1DBDF91CF911F910F9175
:101D3000FF90EF9008951E8240E050E0F1CF809137
:101D400007048F778E8340E050E0EACF40E050E018
:101D5000E7CF0F931F93CF93DF93EC01809108049B
:101D60008823F1F48C81182F169516951695082F57
:101D70000770812F602F40E0FDDB8D8180FF07C061
:101D8000110F110F110F812F800F0E941E031E8251
:101D900081E08093B502DF91CF911F910F9108955B
:101DA0008DE692E01CDBDECF4F925F926F927F92C6
:101DB0009F92AF92BF92CF92DF92EF92FF920F93DA
:101DC0001F93CF93DF937C013B012A01DC01169620
:101DD0008C91282F2170382F3270982F947082FFA9
:101DE0003FC09924D70114968C918823F1F02223C7
:101DF000D1F5332309F055C0992309F41EC110E031
:101E0000812F90E0EC01CC0FDD1FC80FD91FCE0D44
:101E1000DF1D88850E945602882311F08985982A43
:101E20001F5FF7018481181758F3D70117969C920A
:101E30001797C301B201492D50E015962C9135DB5F
:101E4000DF91CF911F910F91FF90EF90DF90CF9096
:101E5000BF90AF909F907F906F905F904F9008954C
:101E6000F7019780BFCF332309F052C0992309F4BB
:101E7000C7C010E0812F90E0EC01CC0FDD1FC80F30
:101E8000D91FCE0DDF1D88850E945602813011F0CA
:101E90008985982A1F5FD70114968C91181750F3E3
:101EA000C4CF992309F4E7C0BB2470E8A72E08C06B
:101EB0001A86B394D70114968C91B81608F0B5CF52
:101EC0000B2D10E06801CC0CDD1CE601C00FD11F0A
:101ED000CE0DDF1D88850E945602882349F39A851E
:101EE00097FD0EC0992329F4809107048F778A8784
:101EF000E0CF80910704981B9F779B30D0F2AA8691
:101F00000C0D1D1D0E0D1F1DF8018185982AD1CFC6
:101F10009923E9F1DD2420E8C22E0D2D10E05801AF
:101F2000AA0CBB1CE501C00FD11FCE0DDF1D88859B
:101F30000E9456028130D1F09A8597FD09C09923FD
:101F4000E1F080910704981B9F779B3048F0CA8688
:101F50000A0D1B1D0E0D1F1DD80119968C91982A74
:101F6000D394F7018481D816C0F25FCF1A86D39438
:101F7000F7018481D81688F258CF809107048F77B3
:101F80008A87D394F7018481D81638F24ECFBB24C8
:101F900008C0F8011286B394F7018481B81608F0DE
:101FA00044CFCB2CDD24E601CC0FDD1F8E010C0DC0
:101FB0001D1D0E0D1F1DD80118968C910E945602F2
:101FC000813039F3F8013A96D8011A969C911A9704
:101FD00097FD10C0992331F4809107048F771A96EA
:101FE0008C93D9CF80910704981B9F779B3098F2F0
:101FF00080E88083CC0DDD1DCE0DDF1D998415CFCB
:1020000010E006C01F5FF7018481181708F00DCF9C
:10201000C12EDD24E601CC0FDD1FFE01EC0DFD1D00
:10202000EE0DFF1D80850E945602813059F3CC0DC4
:10203000DD1DCE0DDF1D9984F8CE10E007C01F5FB7
:10204000D70114968C91181708F0EFCEC12EDD241D
:10205000E601CC0FDD1FFE01EC0DFD1DEE0DFF1D99
:1020600080850E945602882351F3CC0DDD1DCE0DD4
:10207000DF1D9984DACEBB2416C0F8013A96D80148
:102080001A969C9197FDB6CF992309F18091070488
:10209000981B9F779B3008F0ABCFB394F7018481F6
:1020A000B81608F0C2CECB2CDD24E601CC0FDD1F24
:1020B0008E010C0D1D1D0E0D1F1DF80180850E9447
:1020C00056028823D1F6D8011A961C92E6CF809149
:1020D00007048F77F8018287E0CFDF92EF92FF92BB
:1020E0000F931F93CF93DF937C01FC019681917036
:1020F0008481882391F1992309F03AC010E005C04A
:102100001F5FF7018481181740F5812F90E0EC01E3
:10211000CC0FDD1FC80FD91FCE0DDF1D6885862FA0
:10212000869586958695677040E024DA1A868091B8
:1021300008048B3028F38CE792E051D9888590E031
:1021400076D98AE792E04BD9898590E070D957D942
:102150001F5FF70184811817C0F281E08093B602F7
:10216000DF91CF911F910F91FF90EF90DF90089535
:10217000DD2405C0D394F7018481D81670F78D2D26
:1021800090E0EC01CC0FDD1FC80FD91FCE0DDF1D75
:102190001885012F0695069506951770802F612FDB
:1021A00040E0E8D9000F000F000F802F810F0E9440
:1021B0001E031A86809108048B30E0F28CE792E0CF
:1021C0000ED9888590E033D98AE792E008D98985CD
:1021D00090E02DD914D9CECF2F923F924F925F929B
:1021E0006F927F928F929F92AF92BF92CF92DF9227
:1021F000EF92FF920F931F93DF93CF9300D000D005
:10220000CDB7DEB77C013B014A01FC013680F1E02D
:102210003F229C01295F3F4F3A832983FC0184813F
:102220009581992309F48AC0C82EDD2427E030E087
:10223000C20ED31ECE0CDF1C5601A90EB11C5524B4
:102240004424439480E8282EF60180810E9485036F
:10225000F70184818823F9F0332079F529813A81C7
:102260003C832B8310E0F90107C02B813C812F5F59
:102270003F4F3C832B83F90180810E945602442DFD
:10228000481BC301B40150E021E00FD91F5FF701E3
:102290008481181750F3BC82AB82F60180810E94C2
:1022A0001E035394F7018581581608F047C008941F
:1022B000C11CD11CAB80BC80C7CFBC82AB82098162
:1022C0001A8117C0EB81FC81108240E050E02B8125
:1022D0003C812F5F3F4F3C832B83C301B40121E03E
:1022E000E4D89B819A19F70184819817B0F60F5FA3
:1022F0001F4FF80180810E945602442D481B11F3A4
:10230000EB81FC81908197FD0EC0992371F480913F
:1023100007048F77EB81FC81808340E050E0D7CFCA
:10232000EB81FC81208250E0D2CF80910704981B82
:102330009F779B30A8F740E050E0C9CF0F900F90F7
:102340000F900F90CF91DF911F910F91FF90EF9021
:10235000DF90CF90BF90AF909F908F907F906F90C5
:102360005F904F903F902F900895CF92DF92EF9221
:10237000FF920F931F93CF93DF937C0197E0C92EB9
:10238000D12CCE0CDF1CF70184818823C9F0E60133
:102390001991012F0695069506951770802F612FCC
:1023A00040E0E8D8000F000F000F802F810F0E943F
:1023B0001E039E012C19F7018481281748F36E0132
:1023C000F7018581882309F43FC0E6011991012FA7
:1023D0000695069506951770802F612F41E0CAD8A3
:1023E000000F000F000F802F810F0E941E03F701C6
:1023F00095819E012C19291748F36E01F7018681FA
:1024000080FF16C08481989FC0011124892B81F020
:1024100040E050E0F60111926F014F5F5F4FF7010E
:1024200085812481829FC00111244817590794F3A4
:1024300081E08093B702DF91CF911F910F91FF90C0
:10244000EF90DF90CF90089590E0D8CF833009F4DB
:1024500049C08430F9F0813009F0089584B121E059
:1024600030E002C0220F331F6A95E2F7922F909559
:10247000982394B9442319F085B1822B85B98091B2
:10248000680081608093680080916B00282B209306
:102490006B0008958DB170E021E030E0062E02C09F
:1024A000220F331F0A94E2F7522F922F9095982310
:1024B0009DB9442319F08EB1822B8EB980916A00A8
:1024C00064507040660F771F21E030E002C0220F99
:1024D000331F6A95E2F7822B80936A008DB3582BE5
:1024E0005DBB08958AB170E021E030E0062E02C0A5
:1024F000220F331F0A94E2F7522F922F90959823C0
:102500009AB9442319F08BB1822B8BB98091690061
:10251000660F771F21E030E002C0220F331F6A955B
:10252000E2F7822B809369008DB3582B5DBB089531
:102530001F920F920FB60F920BB60F921124AF920B
:10254000BF92CF92DF92EF92FF920F931F932F9340
:102550003F934F935F936F937F938F939F93AF932B
:10256000BF93EF93FF93DF93CF9300D0CDB7DEB748
:1025700083B1898399B18CB1807F9F70892B8A83C5
:102580008091BC02882309F0A0C00091BA0210918A
:10259000BB0269817A810617170709F477C05B01CE
:1025A000A026B1268091B902882309F46BC0ADEB57
:1025B000B2E0815041E0C42ED12CE82EFF24EE0C75
:1025C000FF1CEE0CFF1C81EC92E0E80EF91E36C0F9
:1025D000A60111960C90119702C0440F551F0A9442
:1025E000E2F7C90180239123892B09F048C0F0E06C
:1025F000E4E0CA0180239123892B09F4EF2F2623DD
:102600003723232B09F0E26046235723452B09F09B
:10261000E160F0E0E352FD4F2081332727FD309544
:1026200012968D919C911397820F931F13969C93F2
:102630008E9312971496AE15BF0521F196010C905A
:1026400002C0220F331F0A94E2F7C9018A219B219D
:10265000892B09F0BDCFA60111960C90119702C0ED
:10266000440F551F0A94E2F7CA018A219B21892B46
:1026700009F3C90180239123892B09F4B8CFF8E02D
:10268000ECE0B7CF7093BB026093BA020F900F904B
:10269000CF91DF91FF91EF91BF91AF919F918F917A
:1026A0007F916F915F914F913F912F911F910F916A
:1026B000FF90EF90DF90CF90BF90AF900F900BBE48
:1026C0000F900FBE0F901F9018951092BC02898139
:1026D0009A819093BB028093BA02D8CFDC019A0111
:1026E00018968C911897E82FF0E0F894EE0FFF1FE2
:1026F000EE0FFF1FE154FD4F4081518117968C91E1
:10270000179781FD02C0118210827894CB01B90124
:1027100016962C910C94550ADF92EF92FF920F932C
:102720001F93CF93DF937C018091B802882309F433
:102730004AC0F7018481182F169516951695082F13
:10274000077047814170812F602F80DED701159679
:102750008C911597F7E0DF2ED82217964C91417097
:102760008695869586956D2D71DE9091B902A92F7B
:10277000B0E0113009F445C0ED01CC0FDD1FCC0FE6
:10278000DD1FFE01E354FD4F085F008388E0C35462
:10279000DD4F8D0D8983AA0FBB1FAA0FBB1FA1544C
:1027A000BD4F1D921C92F70190879F5F9093B902D5
:1027B00081E08093B802DF91CF911F910F91FF903C
:1027C000EF90DF9008951092B90291E09093BC02CF
:1027D00080E1EDEDF2E0DF011D928A95E9F790933B
:1027E000E8028FEF8093E5029093EA028093EB0278
:1027F0009093E1028093E4029093DF028093DE02E3
:1028000098CFED01CC0FDD1FCC0FDD1FFE01E3548F
:10281000FD4F008380E0BBCF1F93CF93DF93EC018C
:10282000CB01BA0141E00E948A0A182F82E892E0A7
:102830000E94EF09812F90E00E94340A0E94FF0954
:102840008D8180FF03C081E0811B182F8C81282F90
:102850002695269526958770112351F4220F220F75
:10286000220F820F0E948503DF91CF911F9108955F
:10287000220F220F220F820F0E941E03DF91CF91A1
:102880001F9108950F931F93CF93DF93EC018091D5
:102890000804882331F58C81082F06950695069546
:1028A000182F17708D8180FF14C0802F880F880F1C
:1028B000880F810F0E941E03802F612F41E00E942C
:1028C000BA0A81E08093ED02DF91CF911F910F91C1
:1028D0000895802F880F880F880F810F0E9485032D
:1028E000EBCF81E992E00E94EF09D5CFFF920F93E1
:1028F0001F93CF93DF93EC01CB01BA0142E00E941A
:102900008A0A082F809108048B30A0F50130D1F09D
:102910008D81182F16951695169527E0F22EF82220
:102920008C810E9485030230C1F4110F110F110F29
:10293000812F8F0D0E941E03DF91CF911F910F9168
:10294000FF9008958D81182F16951695169597E08E
:10295000F92EF8228C810E941E03110F110F110F06
:10296000812F8F0D0E948503DF91CF911F910F91D1
:10297000FF9008958BE992E00E94EF09802F90E08C
:102980000E94340A0E94FF09C1CFEF92FF920F9379
:102990001F93FC011481F12EF694F694F6941770AF
:1029A0000581E02EE694E694E69407708F2D880F5B
:1029B000880F880F810F0E9485038E2D880F880F46
:1029C000880F800F0E9485038F2D612F41E00E94A8
:1029D000BA0A8E2D602F41E00E94BA0A81E08093EE
:1029E000EE021F910F91FF90EF900895FF920F93C9
:1029F0001F93CF93DF93EC01CB01BA0142E00E9419
:102A00008A0A182F82EB92E00E94EF09812F90E052
:102A10000E94340A0E94FF09113071F11230E1F076
:102A20001330B1F1FF248D81182F16951695169548
:102A3000082F07708C810E948503FF2081F4110FFD
:102A4000110F110F812F800F0E948503DF91CF910D
:102A50001F910F91FF900895FF24F394E4CF110F7D
:102A6000110F110F812F800F0E941E03DF91CF9154
:102A70001F910F91FF900895FF248D81182F1695B7
:102A800016951695082F07708C810E941E03D5CFCE
:102A9000FF24F394F2CFEF92FF920F931F93FC0168
:102AA0001481F12EF694F694F69417700581E02EB9
:102AB000E694E694E69407708F2D880F880F880FB0
:102AC000810F0E9485038E2D880F880F880F800F3D
:102AD0000E9485038F2D612F41E00E94BA0A8E2D3E
:102AE000602F41E00E94BA0A81E08093EF021F91BB
:102AF0000F91FF90EF900895982F96959695969543
:102B00008770662331F4990F990F990F890F0C94F0
:102B10008503990F990F990F890F0C941E031F932A
:102B2000CF93DF93EC01CB01BA0143E00E948A0A04
:102B3000182F8F8180FD1095612F64708C81DCDFF0
:102B4000612F62708D81D8DF11708E81612FD4DF8B
:102B5000DF91CF911F9108950F931F93082F069532
:102B600006950695182F1770662379F0802F880F29
:102B7000880F880F810F0E941E03802F612F41E074
:102B80000E94BA0A1F910F910895802F880F880F15
:102B9000880F810F0E948503802F612F41E00E94E2
:102BA000BA0A1F910F9108950F931F938C01FC0196
:102BB000678170E0617070708481CEDFF801678199
:102BC00070E0617070708581C7DFF801678170E027
:102BD000617070708681C0DF81E08093F0021F9188
:102BE0000F910895CF93DF93EC01809108048B300F
:102BF00080F48B818093F1009E012C5F3F4FF9019F
:102C000081918093F10080818093F100DF91CF91D9
:102C100008958B8190E00E94170A80E20E94CC09FF
:102C20008B818093F1009E012C5F3F4F80910804BF
:102C30008B3028F38C8190E00E94170A80E20E947A
:102C4000CC098C818093F100FE01359680910804B7
:102C50008B30C8F28D8190E00E94170A80E20E94BA
:102C6000CC098D818093F100809108048B3070F243
:102C70000E94FF09DF91CF9108951F93CF93DF93B7
:102C8000EC01162F8E81882321F16B85862F869586
:102C9000869586956770412F0E94BA0A6C85862FAB
:102CA0008695869586956770412F0E94BA0A6D8534
:102CB000862F8695869586956770412F0E94BA0A61
:102CC0006E85862F8695869586956770412F0E9422
:102CD000BA0A6F85862F8695869586956770412FEF
:102CE0000E94BA0A6889862F8695869586956770B0
:102CF000412F0E94BA0A6989862F86958695869506
:102D00006770412F0E94BA0A6A89862F8695869538
:102D100086956770412F0E94BA0ADF91CF911F916B
:102D20000895DF92EF92FF920F931F93CF93DF935B
:102D3000EC01D62EE42E8E81882309F454C0CE01F6
:102D400060E09BDF88850E94850389850E941E03C1
:102D50000FEF92E0F92E02C0015079F08A850E94AF
:102D60001E038F2D8A95F1F78A890E945602182F2B
:102D70008A850E948503112379F7CE0161E07DDF0A
:102D8000DD2009F0CCC088850E94850389850E94DA
:102D900085031E2DE0FECCC08B850E941E0311FF13
:102DA000CCC08C850E941E0312FFCCC08D850E9472
:102DB0001E0313FFCCC08E850E941E0314FFCCC0DF
:102DC0008F850E941E0315FFCCC088890E941E03B8
:102DD00016FFCCC089890E941E03E7FC70C08A8957
:102DE0000E9485036FC0CE0160E047DF88850E94A6
:102DF000850389850E941E030EEF82E0F82E03C032
:102E000001500F3FF1F08A850E941E038F2D8A9595
:102E1000F1F78A890E945602182F8A850E9485033D
:102E20008F2D8A95F1F78A850E941E038F2D8A9532
:102E3000F1F78A890E9456028A850E948503112330
:102E4000F9F6CE0161E019DFDD2009F04CC088857C
:102E50000E94850389850E9485030E2DE4FE4CC0E7
:102E60008F850E941E0305FF4CC088890E941E03A7
:102E700006FF4CC089890E941E03E7FC4CC08A896A
:102E80000E9485038A850E941E0312E0812F8A9585
:102E9000F1F78A850E9485031A95F1F700FF72C049
:102EA0008F850E941E0301FF69C088890E941E034E
:102EB00002FF60C089890E941E0303FF90CF8A89A8
:102EC0000E941E038A850E941E0382E08A95F1F704
:102ED0008A850E948503DF91CF911F910F91FF900A
:102EE000EF90DF90089588850E941E0389850E94D7
:102EF00085030E2DE4FCB4CF8F850E94850305FD6C
:102F0000B4CF88890E94850306FDB4CF89890E94C9
:102F10008503E7FEB4CF8A890E941E03B3CF88855C
:102F20000E941E0389850E9485031E2DE0FC34CF7C
:102F30008B850E94850311FD34CF8C850E9485030B
:102F400012FD34CF8D850E94850313FD34CF8E850D
:102F50000E94850314FD34CF8F850E94850315FDE3
:102F600034CF88890E94850316FD34CF89890E9459
:102F7000850333CF89890E9485039FCF88890E946A
:102F8000850396CF8F850E9485038DCF8F929F9268
:102F9000AF92BF92CF92DF92EF92FF920F931F9367
:102FA000CF93DF937C016A015901FC01838186176D
:102FB000C9F1C62FD0E0282F30E0C9010196C8170B
:102FC000D90709F46FC0C9010296C817D90709F4D7
:102FD000BFC02D5F3F4FC217D30709F4F2C08091E5
:102FE0000804882369F4DF91CF911F910F91FF901E
:102FF000EF90DF90CF90BF90AF909F908F9008950B
:103000008AEC92E00E94EF09CE010E94340A8FE31D
:103010000E94CC09F701838190E00E94340A0E944B
:10302000FF09E1CF809108048B3008F0E6C0C601AB
:10303000B50148E00E948A0A182FC601B50148E090
:103040000E948A0AF7012481E82FF0E0822F90E0A5
:10305000E817F9071CF02150E22FF0E0EE0DFF1DFC
:103060004389410F4068C70160E05BDEF70185815D
:10307000882309F4B8CFC0E0D0E00BC0C70161E0FD
:1030800050DE2196F701858190E0C817D9070CF032
:10309000AACFC601B50148E00E948A0A482F8823BA
:1030A00069F7A1CF809108048B3008F0ADC0C6014C
:1030B000B50148E00E948A0A482F440F440F440F8C
:1030C0004064C70160E02DDEC601B50145E00E9405
:1030D0008A0A482FC70161E024DEC601B50145E038
:1030E0000E948A0A482FC70161E01BDEC601B501B4
:1030F00045E00E948A0A482FC70161E012DEC6013E
:10310000B50145E00E948A0A482FC70161E009DE47
:10311000C601B50145E00E948A0A482FC70161E057
:1031200000DEC601B50145E00E948A0A482FC701AA
:1031300061E0F7DDC601B50145E00E948A0A482F2B
:10314000C70161E0EEDDC70161E040E0EADD4BCFA1
:10315000809108048B3008F05EC0C601B50148E0DC
:103160000E948A0A882EC601B50148E00E948A0A98
:10317000982EC601B50141E00E948A0A082FC601B7
:10318000B50141E00E948A0A182FF7012481E92D38
:10319000F0E0822F90E0E817F9071CF02150E22FB1
:1031A000F0E0EE0DFF1D4389480D4068C70160E067
:1031B000B8DD1C60000F012BC70160E0402FB1DDBE
:1031C00012CF809108048B3078F5C601B50143E039
:1031D0000E948A0A982FF7018681882361F440E2D1
:1031E000F70184818230F0F088E0492B482BC70139
:1031F00060E097DDF8CE40E3F3CF81EE92E00E94ED
:10320000EF090E94FF0913CF83EF92E00E94EF09BC
:103210000E94FF094CCF83E093E00E94EF090E94D7
:10322000FF099BCF80E0E1CF85E193E00E94EF09A9
:103230000E94FF09CACF0F931F93CF93DF93EC0136
:10324000162F042F61E019DD112349F188850E94B2
:103250001E0389850E948503102F00FF29C08F85DA
:103260000E941E0311FF29C088890E941E0312FFBD
:1032700029C089890E941E0313FD29C08A890E94E2
:1032800085038A850E941E0382E08A95F1F78A856C
:103290000E948503DF91CF911F910F91089588853A
:1032A0000E94850389850E948503102F00FDD7CFDA
:1032B0008F850E94850311FDD7CF88890E948503E1
:1032C00012FDD7CF89890E94850313FFD7CF8A8942
:1032D0000E941E03D6CFCF93DF93EC018091F102C1
:1032E000882309F469C088850E94850389850E9426
:1032F00085038A850E948503CE0160E0BEDC688577
:10330000862F869586958695677041E00E94BA0A59
:103310006985862F869586958695677041E00E941F
:10332000BA0A6A85862F869586958695677041E0EC
:103330000E94BA0A90910804992309F067C08E810F
:10334000882309F043C0992309F0A2C0CE0160E0B0
:1033500043E071DF80E197E20197F1F7CE0160E091
:1033600043E069DF88EC90E00197F1F7CE0160E07F
:1033700043E061DFCE0160E042E05DDF8C818230BE
:1033800008F481C0CE0160E048E2CBDCCE0160E011
:1033900048E0C7DCCE0160E041E0C3DCCE0160E084
:1033A00046E0BFDCCE0160E04CE0BBDC81E0809316
:1033B000F102DF91CF910895809107048D3208F0DA
:1033C00092CF809107048D32B8F38DCF992309F005
:1033D00069C0CE0160E040E3A4DC80E197E20197A0
:1033E000F1F7CE0160E040E39CDC88EC90E00197CF
:1033F000F1F7CE0160E040E394DC8C81823008F488
:103400004CC0CE0160E048E38CDCC0CF89E493E09F
:103410000E94EF09888590E00E94170A84E493E0F7
:103420000E94EF09898590E00E94170A80E493E0EA
:103430000E94EF098A8590E00E94170A8BE393E0CF
:103440000E94EF098F8590E00E94170A86E393E0BF
:103450000E94EF09888990E00E94170A81E393E0B7
:103460000E94EF09898990E00E94170A8CE293E09C
:103470000E94EF098A8990E00E94170A0E94FF09C2
:10348000909108045CCFCE0160E040E24ADC7ECF40
:1034900085E693E00E94EF0959CFCE0160E040E35A
:1034A00040DC74CF8DE493E00E94EF0992CF1F922D
:1034B0000F920FB60F920BB60F9211248F939F931A
:1034C000EF93FF93289A9091F9038091FA0398174C
:1034D000B1F0E091FA03EF5FE093FA032898F0E08F
:1034E000E750FD4F80818EBDFF91EF919F918F91AD
:1034F0000F900BBE0F900FBE0F901F9018958CB5BC
:103500008F778CBDF1CF282F9091F9039F5F809129
:10351000FA03981799F0F8940CB407FC07C0789454
:103520008CB580688CBD28982EBD0895E92FF0E0F9
:10353000E750FD4F20839093F903789408950F93FB
:103540001F93CF93DF938C016115710539F0EB0167
:10355000F80181918F01D7DF2197D1F7DF91CF91CA
:103560001F910F910895CF93DF93EC018091080490
:103570008B3080F48B818093F1009E012C5F3F4F54
:10358000F90181918093F10080818093F100DF91B6
:10359000CF9108958B8190E00E94170A80E20E94EB
:1035A000CC098B818093F1009E012C5F3F4F80916D
:1035B00008048B3028F38C8190E00E94170A80E287
:1035C0000E94CC098C818093F100FE013596809198
:1035D00008048B30C8F28D8190E00E94170A80E2C7
:1035E0000E94CC098D818093F100809108048B307A
:1035F00070F20E94FF09DF91CF9108958091080435
:10360000882311F58091F2028823D1F484E6809317
:10361000F3028FEF9FEF9093F5028093F4021092E4
:10362000F7021092F6021092F802239884B1876094
:1036300084B983E58CBD289A1092FA031092F9039D
:1036400081E08093F20208958DEF93E00E94EF09EC
:103650000E94FF09D7CF8F929F92AF92BF92CF92D5
:10366000DF92EF92FF920F931F93DF93CF93CDB72B
:10367000DEB76A970FB6F894DEBF0FBECDBF5C0110
:103680007A016901FC0183818617C9F1062F10E0D8
:10369000282F30E0C90101960817190709F475C0F1
:1036A0002E5F3F4F0217130709F4E1C08091080411
:1036B000882399F46A960FB6F894DEBF0FBECDBF8B
:1036C000CF91DF911F910F91FF90EF90DF90CF90FE
:1036D000BF90AF909F908F9008958DE793E00E94E8
:1036E000EF09C8010E94340A8FE30E94CC09F5015A
:1036F000838190E00E94340A0E94FF09DBCF809111
:1037000008048B3008F0EFC0C701B60149E00E9401
:103710008A0A982E892EC701B60148E00E948A0ABB
:10372000082FC701B60141E00E948A0A182FC7017D
:10373000B60146E00E948A0A112309F4CAC085E84E
:103740008F87988A898A0A8BCE010F9664E070E091
:10375000F6DE83E8D8DEF5018581882399F000E064
:1037600010E009C0D0DE0F5F1F4FF501858190E0AA
:10377000081719073CF4C701B60148E00E948A0AFD
:10378000882381F780E0BFDE95CF809108048B30DD
:1037900008F0B0C0C701B60141E00E948A0A882E35
:1037A000C701B60147E00E948A0A982EC701B601F8
:1037B00040E10E948A0A8C01C701B60140E10E94E3
:1037C0008A0A5C01C701B60141E00E948A0AF82E0C
:1037D0008091F302981651F087E88A839B82CE018C
:1037E000029662E070E0ABDE9092F3028091F40208
:1037F0009091F5020817190769F081E889871B87FE
:103800000A87CE01099663E070E099DE1093F50215
:103810000093F4028091F6029091F702A816B9067F
:1038200069F080E88C87BE86AD86CE010C9663E099
:1038300070E085DEB092F702A092F6028091F80265
:10384000F81651F086E88C83FD82CE01049662E082
:1038500070E075DEF092F802882009F42BCF82E840
:103860008983CE01019661E070E069DE23CF80910B
:1038700008048B3030F08EED93E00E94EF090E9437
:10388000FF0989E88B8BC701B60141E00E948A0AD3
:103890008A8FC701B60149E00E948A0A9D8B8C8BF2
:1038A000C701B60148E00E948A0A8E8BC701B601A3
:1038B00049E00E948A0A988F8F8BC701B60148E0C1
:1038C0000E948A0A898FCE01439668E070E037DE55
:1038D000F1CE84E88E839F820887CE01069663E04E
:1038E00070E02DDE36CF88E993E00E94EF090E9458
:1038F000FF090ACF88EB93E00E94EF090E94FF09BD
:1039000049CF5F926F927F928F929F92AF92BF92B8
:10391000CF92DF92EF92FF920F931F93CF93DF939B
:103920007C014B013A01FC018581882309F4CAC05E
:1039300000E0DD2411E0CC24C39441E0A42EB12C9E
:1039400030E8532E10C0992309F04EC02496CC0FB6
:10395000DD1FCE0DDF1D1882F7018581912F9F5F3E
:10396000181738F5192F1150C12FD0E01F5FFE0135
:10397000EE0FFF1FEE0DFF1D87810E945602982F4C
:10398000F701868180FF03C0FC2DF91B9F2F81FD6D
:10399000DACF992309F3C50102C0880F991FCA9590
:1039A000E2F7082BD12EF7018581912F9F5F181721
:1039B000C8F2823009F46EC0843079F14D2D50E0A8
:1039C000CA0101978330910509F444C08430910500
:1039D0009CF58130910509F45AC0823091050CF4B0
:1039E00073C043E050E038C0FE013496EE0FFF1F75
:1039F000EE0DFF1D908197FDCECF992329F4809184
:103A000007048F778083A8CF80910704981B9F7746
:103A10009B3008F4A1CF5082BECF053091F1063023
:103A200008F040C0023099F10430D9F2013009F4B5
:103A30004DC04D2D50E010C08530910529F18530E5
:103A40009105FCF086309105D1F1079729F446E005
:103A500050E002C047E050E0C401B30124E00E94FE
:103A6000550ADF91CF911F910F91FF90EF90DF905A
:103A7000CF90BF90AF909F908F907F906F905F900E
:103A8000089542E050E0E8CF48E050E0E5CF45E05F
:103A900050E0E2CFC401B3014D2D50E022E00E947E
:103AA000550ADFCF0830B1F2093030F0093061F348
:103AB0000A3009F0BECFCBCF063009F0BACF44E0D0
:103AC00050E0CACFDD247ACF892B31F641E050E0B7
:103AD000C3CFDF92EF92FF920F931F93CF93DF93A9
:103AE0007C01FC018581882399F1DD2412C0110F2E
:103AF000110F110F812F800F0E941E032496CC0FEF
:103B0000DD1FCE0DDF1D1882D394F7018581D816F5
:103B1000F8F4CD2DD0E0FE01EE0FFF1FEE0DFF1DDE
:103B20008781182F169516951695082F0770812FE7
:103B3000602F40E00E94BA0AF701868180FDD7CF4E
:103B4000110F110F110F812F800F0E948503D6CF07
:103B500081E08093FB03DF91CF911F910F91FF9044
:103B6000EF90DF900895FC01CB01BA014091FF0373
:103B7000509100042091FD033091FE034223532312
:103B800026810C94550A0F931F93DF93CF9300D097
:103B900000D0CDB7DEB78C01FC0184819581909374
:103BA0000301809302011092050410920404109204
:103BB00000041092FF0381E090E0A0E0B0E00680F6
:103BC00004C0880F991FAA1FBB1F0A94D2F7019740
:103BD000A109B10989839A83AB83BC839093FE03C7
:103BE0008093FD03809108048230F8F082E294E033
:103BF0000E94EF0980910201909103010E94170A2F
:103C00008AE194E00E94EF09F801868190E00E9429
:103C1000170A82E194E00E94EF098091FD039091E0
:103C2000FE030E94170A0E94FF090F900F900F9049
:103C30000F90CF91DF911F910F91089516161706DF
:103C40000CF06AC0FC0120E030E0A2E038C0223075
:103C5000310519F02115310561F58081813009F4B4
:103C600096C05AE040E1818192818034910509F447
:103C700096C08134910508F05FC08130910509F448
:103C800098C0089721F4452F440F487142602115D0
:103C9000310509F042C010926F00A093800040935C
:103CA0008100109282008381948190938700809399
:103CB00086002F5F3F4F3596261737076CF521306A
:103CC000310529F68081813009F454C045E051E086
:103CD000818192818034910509F454C08134910529
:103CE000C0F58830910509F473C08032910509F45C
:103CF0006AC0019709F462C088E010927000509386
:103D0000B0008093B10083818093B3002F5F3F4F59
:103D10003596261737079CF2089510927100A093EC
:103D2000900040939100109292008381948190932F
:103D3000970080939600BDCFB1E080309B07A1F142
:103D40008050944009F0A3CF452F440F487145603F
:103D50009ECFB1E080309B0709F444C0B4E08030CE
:103D60009B07D9F18038910539F6842F880F887028
:103D70008560C3CF47E053E0818192818034910513
:103D800009F0ACCF842F880F88708460B6CF5EE0D6
:103D900048E1818192818034910509F06ACF452FF5
:103DA000440F4871436073CF452F440F48714460FE
:103DB0006ECF452F440F4871416069CF842F880F23
:103DC000887081609ACF842F880F8870836095CF28
:103DD000842F880F8870826090CF842F880F88701E
:103DE00087608BCF842F880F8870866086CFDF92A4
:103DF000EF92FF920F931F93DF93CF9300D0CDB735
:103E0000DEB78C01FC018481882339F5CB01BA012E
:103E100045810E948A0A9A838983F801E680F780A7
:103E2000E816F90610F4FA82E982D9808091080434
:103E30008B3008F062C0F8018481882321F48E2D34
:103E40008D198093B4000F900F90CF91DF911F9147
:103E50000F91FF90EF90DF900895CB01BA01F80128
:103E600045810E948A0AF8014681578148175907FF
:103E7000D8F07A01E81AF90A809108048B3030F5FD
:103E8000F8018481833009F451C08430B0F085306A
:103E900009F45BC0853008F453C08630A1F6F09277
:103EA0009D00E0929C00CFCFCA017A01E81AF90A7E
:103EB000809108048B3020F309C08130E1F1823019
:103EC00011F6F0928B00E0928A00BDCF8FE394E070
:103ED0000E94EF09F801848190E00E94170A86E3AE
:103EE00094E00E94EF09C7010E94170A0E94FF098F
:103EF000F8018481833049F619C082E594E00E947C
:103F0000EF09F801848190E00E94170A89E494E0A7
:103F10000E94EF0989819A810E94170A0E94FF0975
:103F2000F8018481882309F08ECF89CFF0928D002B
:103F3000E0928C0088CFF0928900E092880083CFD5
:103F4000F0929900E09298007ECFF0929B00E09270
:103F50009A0079CFCF93DF93EC016C81862F869501
:103F600086958695677041E00E94BA0A8C818431FB
:103F700009F46BC08531C0F0863109F453C0863135
:103F800068F585E08C838091900080638093900039
:103F90008E819F8190939B0080939A0081E0809313
:103FA000FC03DF91CF9108958E3009F461C08F300A
:103FB00031F18D3069F481E08C8380918000806CD8
:103FC000809380008E819F819093890080938800E8
:103FD00081E08093FC03DF91CF9108958931C1F78F
:103FE0001C828091B00080638093B0008E818093AA
:103FF000B40081E08093FC03DF91CF91089583E0CA
:104000008C83809180008C60809380008E819F8162
:1040100090938D0080938C0081E08093FC03DF916E
:10402000CF91089584E08C8380919000806C809380
:1040300090008E819F81909399008093980081E0F9
:104040008093FC03DF91CF91089586E08C8380916B
:1040500090008C60809390008E819F8190939D0052
:1040600080939C0081E08093FC03DF91CF910895C1
:1040700082E08C83809180008063809380008E81B9
:104080009F8190938B0080938A0081E08093FC0352
:10409000DF91CF9108951F93DF93CF93CDB7DEB714
:1040A000AC970FB6F894DEBF0FBECDBF1091F100F4
:1040B000109311048091F100809312048091F1001B
:1040C000809313048091F100809314048091F10097
:1040D000809315048091F100809316048091F10083
:1040E000809317048091F100809318048091080454
:1040F0008B3008F062C080911204853009F475C0DD
:10410000863018F1883009F41FC1893009F4BAC02B
:10411000863009F4D7C00E940F058091E80083FF24
:104120000AC08091EB0080628093EB008091E800F0
:10413000877F8093E800AC960FB6F894DEBF0FBE81
:10414000CDBFCF91DF911F910895813009F4E9C06F
:10415000813008F078C0103811F01238E1F6809103
:104160001104803809F432C18238B9F680911504FF
:104170008093E9008091EB0090E096958795929569
:1041800082958F7089279F708927982F9170109240
:10419000E9008091E800877F8093E8009093F10028
:1041A0001092F1008091E800982F9E7F9093E80094
:1041B0008F778093E800E8D1B0CF82E50E94CC09E8
:1041C0008091120490E00E94340A8EE20E94CC0991
:1041D0008091110490E00E94340A80E20E94CC0990
:1041E00080911204853009F08BCF112309F093CF11
:1041F000109113048091E800877F8093E800C4D178
:1042000005C080911004882309F487CF8091E800CD
:1042100080FFF7CF1F7719F083E080931004812F80
:1042200080688093E300809108048B3008F475CF98
:1042300081E40E94CC09812F90E00E94340A80E240
:104240000E94CC096ACF833009F065CF112319F0A1
:10425000123009F060CF8091110490E08F7190705E
:10426000009709F07EC090911304913009F055CF6A
:1042700010920C0480911204833009F09EC0909338
:104280000C049BC0112309F046CF809108048B30A9
:1042900008F0A5C090911304923008F03ECF8091B1
:1042A000E800877F8093E80090930D046DD18091A2
:1042B0000D04882309F0E2C083E0809310040E947B
:1042C00027082BCF1058123008F025CF8091080412
:1042D0008B3008F08EC0809113049091140423E079
:1042E0008C3D920709F49BC060911504AE014F5FAD
:1042F0005F4F0E948E08BC01009709F40ECF809199
:10430000E800877F8093E80089819A8167D1809156
:10431000E800982F9B7F9093E8008F778093E800C8
:10432000FCCE809108048B3008F490CF8FE594E0A8
:104330000E94EF098091110490E00E94170A8CE519
:1043400094E00E94EF0982CF103809F0E4CE80910A
:10435000E800877F8093E80080910D048093F1004E
:1043600021CF029709F0D9CE80911304882329F533
:1043700020911504277009F4D0CE2093E900809194
:10438000EB0080FF1AC080911204833009F478C0DA
:104390008091EB0080618093EB0081E090E002C0AF
:1043A000880F991F2A95E2F78093EA001092EA009D
:1043B0008091EB0088608093EB001092E90080917F
:1043C000E800877F8093E800DFD0A7CE90910B04B0
:1043D00080910C04882309F4DCCE9260DACE83E469
:1043E0000E94CC0980911304909114040E94340A15
:1043F00051CF84E40E94CC0980911304909114045D
:1044000090700E94340A8EE20E94CC0980911404BC
:1044100090E00E94340A80E20E94CC095CCFDE0169
:1044200015964EE020E030E051E2E42FF0E05093AA
:104430005700849120FF03C082958F704F5F982FA3
:104440009F70892F805D8A3308F0895F8C93119665
:104450001C9211972F5F3F4F12962431310529F797
:104460008091E800877F8093E8008AE28B8383E075
:104470008C83CE0103966AE270E048CF84E01DCFC2
:104480008091EB0080628093EB0097CF8093E900EE
:104490008091EB0081608093EB001092ED006093BF
:1044A000EC004093ED008091EE00881F8827881F64
:1044B0000895CF93DF931092F40069EE70E0EB0162
:1044C000188240EF50E0FA01108228EE30E0E90156
:1044D0001882ADEEB0E08C918D7F8C93EBEEF0E026
:1044E00080818E7F808381E0EB018883EA011882DE
:1044F000E90118828C918D7F8C9380818E7F8083DF
:1045000082E0EB018883EA011882E90118828C912C
:104510008D7F8C9380818E7F808383E0EB01888305
:10452000EA011882E90118828C918D7F8C93808139
:104530008E7F808384E0EB018883EA011882E901A1
:1045400018828C918D7F8C9380818E7F808385E013
:10455000EB018883EA011882E90118828C918D7F32
:104560008C9380818E7F808386E0EB018883EA01D3
:104570001882E90118828C918D7F8C9380818E7FC7
:104580008083DF91CF9108958091110488234CF0AE
:104590008091E80080FD0EC0809110048823C1F74F
:1045A00008958091E80082FD0FC080911004882357
:1045B000C1F708958091E800982F9E7F9093E800BE
:1045C0008F778093E80008958091E800982F9B7F73
:1045D0009093E8008F778093E80008959C01809184
:1045E0001704909118048617970708F063C0BC0160
:1045F000F90140E06115710541F5442309F450C00B
:104600008091E80083FD64C08091E80082FD48C08D
:1046100080911004882309F44BC08091E80080FF4A
:10462000EFCF2091F2003091F30040E020343105CB
:10463000A9F18091E800982F9E7F9093E8008F77F2
:104640008093E80061157105C1F2442309F442C06A
:104650008091E80083FD3CC08091E80082FD20C08D
:1046600080911004882321F18091E80080FFF0CF31
:104670002091F2003091F3000AC081918093F10003
:10468000615070402F5F3F4F6115710571F220340A
:10469000310598F340E02034310559F641E0C9CFA7
:1046A0008091E80082FD27C0809110048823C1F723
:1046B00082E008956115710509F09ACF8091E800B4
:1046C000982F9E7F9093E8008F778093E80090CF9B
:1046D00081E008958091E80083FDFACF8091E800A1
:1046E00082FDDECF80911004882311F38091E800D1
:1046F00080FFF0CFBDCF80E0089573D07AD01092C4
:10470000100410920D0410920C0410920B0480916E
:104710000E0482FD08C08CE089BD89B5826089BD28
:1047200009B400FEFDCF8091D800982F9F77909319
:10473000D80080688093D80080910E0481FD32C03B
:104740008091D70081608093D7008091D8008F7DC1
:104750008093D80080910E0480FD2AC08091E000F3
:104760008B7F8093E0008091E0008E7F8093E0005B
:104770008091E1008E7F8093E1008091E200816072
:104780008093E2008091E100877F8093E100809137
:10479000E20088608093E2008091D800816080937D
:1047A000D80008958091D7008E7F8093D700CDCF19
:1047B0008091E00084608093E000D5CF80930E0468
:1047C000E7EDF0E080818068808397DFE8EDF0E03E
:1047D00080818061808381E080930F0478940895C4
:1047E0000895E8EDF0E080818C7F80831092E200F4
:1047F00008951092DA001092E10008951F920F922E
:104800000FB60F920BB60F9211242F933F934F9335
:104810005F936F937F938F939F93AF93BF93EF9328
:10482000FF938091DA0080FF04C08091D80080FD62
:104830007AC08091E10080FF04C08091E20080FD99
:1048400055C08091E10084FF04C08091E20084FDA6
:1048500023C08091E10083FF04C08091E20083FDCA
:1048600079C08091E10082FF04C08091E20082FD66
:1048700069C0FF91EF91BF91AF919F918F917F910F
:104880006F915F914F913F912F910F900BBE0F90C1
:104890000FBE0F901F90189580910E0482FD08C0E6
:1048A0008CE089BD89B5826089BD09B400FEFDCF69
:1048B0008091D8008F7D8093D8008091E1008F7E19
:1048C0008093E1008091E2008F7E8093E2008091EE
:1048D000E20081608093E20080910D04882309F456
:1048E0005EC084E0809310047BDFB3CF8091E10051
:1048F0008E7F8093E1008091E2008E7F8093E200C2
:104900008091E20080618093E2008091D800806213
:104910008093D80080910E0482FF19BC85E08093BB
:1049200010045EDF8ECF8091DA008E7F8093DA00F4
:104930008091D90080FF2EC081E0809310040E94F6
:10494000550477CF8091E1008B7F8093E1000E9436
:1049500054048FCF8091E100877F8093E10082E053
:104960008093100410920D048091E1008E7F80935B
:10497000E1008091E2008E7F8093E2008091E2006E
:1049800080618093E20095DD80E060E042E37EDDBF
:1049900027DF67CF109210040E945D044ACF83E0A6
:1049A000A1CF1F9380911004882359F01091E90042
:1049B0001092E9008091E80083FD05C01770109304
:1049C000E9001F91089567DBF9CFFB01DC0102C00C
:1049D00005900D9241505040D8F70895FB01DC013D
:1049E00004C08D910190801921F441505040C8F7C6
:1049F000881B990B0895FB01DC0102C001900D9208
:104A000041505040D8F70895FB019F01E89442308F
:104A1000BCF04532ACF44A3029F497FB1EF4909573
:104A200081959F4F642F772734D0805D8A330CF0B7
:104A3000895D8193CB010097A9F716F45DE251934C
:104A40001082C90116C0F999FECF92BD81BDF89AB6
:104A5000992780B50895262FF999FECF1FBA92BDE8
:104A600081BD20BD0FB6F894FA9AF99A0FBE01964F
:104A70000895DC01FC01672F71917723E1F73297EC
:104A800004C07C916D9370836291AE17BF07C8F329
:104A90000895AA1BBB1B51E107C0AA1FBB1FA61785
:104AA000B70710F0A61BB70B881F991F5A95A9F7D7
:0E4AB00080959095BC01CD010895F894FFCF3C
:044ABE0000F0FFFF06
:00000001FF
