:10000000ECC100000C94F0100C94F0100C94F01063
:100010000C94F0100C94F0100C94F0100C94F01060
:100020000C94F0100C94F0100C945E21F4C10000BC
:10003000F2C10000F0C10000EEC10000ECC1000000
:10004000EAC10000E8C10000E6C10000E4C1000010
:10005000E2C10000C6C30000DEC10000DCC1000038
:100060000C94E517D8C100000C943B09D4C10000E2
:10007000D2C100000C94D40CCEC10000CCC1000051
:10008000CAC10000C8C10000C6C10000C4C1000050
:10009000C2C10000C0C100000A436F6E66696743B9
:1000A00068670A004745545F49444C45005345542E
:1000B0005F49444C45005345545F50524F544F43A1
:1000C0004F4C004745545F50524F544F434F4C00E4
:1000D0005345545F49444C45002C002C002C0047EC
:1000E00045545F5245504F52543D002C00554350EB
:1000F0003D00290D0A0055534220484944207631DD
:100100002E3020496E697469616C697365642028BA
:10011000004279746573546F526561643D005265A5
:100120006365697665642000496E697469616C690C
:10013000736174696F6E20436F6D706C6574650DCB
:100140000A00496E697469616C6973696E670D0AAA
:10015000005374617274696E6720426F6F746C6FC4
:10016000616465720D0A0050726F63657373696E26
:1001700067204F7574707574205265706F72740DBE
:100180000A0020005265706F7274200020004849F8
:100190004420002000200053747220002000436F90
:1001A0006E666967200020004465762000476F7402
:1001B00020756E6578706563746564207479706508
:1001C00020696E20496E6974436F6E74726F6C7330
:1001D000202D20307800506F74656E74696F6D65E6
:1001E00074657220666F756E64206F6E2077726F13
:1001F0006E6720706F7274202D20506F72743D30C6
:100200007800496E69745377697463680D0A002C2D
:1002100000506F72742000476F74204C4544205387
:10022000746174652000496E69744C45440D0A0080
:10023000476F74204269636F6C6F75724C45442040
:1002400053746174652000476F7420547269636F42
:100250006C6F75724C454420537461746520004C7A
:10026000434420556E6B6E6F776E207265706F72AF
:100270007420696420004C4344204F757470757479
:10028000205265706F7274004C434420466F6E7448
:10029000205265706F7274002044373D0020443650
:1002A0003D002044353D002044343D0020453D00C4
:1002B0002052573D0052533D00496E697469616C8C
:1002C0006973696E672038626974204C43440D0A73
:1002D00000496E697469616C6973696E6720346284
:1002E0006974204C43440D0A004C43445F53504909
:1002F00020556E6B6E6F776E207265706F72742012
:10030000696420004C43445F535049204368617244
:100310006163746572204F757470757420526570D6
:100320006F7274004C43445F5350492044697370AA
:100330006C617920636F6E74726F6C204F7574708E
:100340007574205265706F7274004C43445F535053
:1003500049204472617752656374204F75747075DB
:1003600074205265706F7274004C43445F5350495F
:1003700020496E697469616C6973696E67002C202D
:100380004D61736B3D002C20426974733D00496ED2
:100390006974436F756E74657220506572696F641D
:1003A0003D002C2056616C75653D0050574D205026
:1003B0006F72743D002C2056616C75653D0050577E
:1003C0004D20506F72743D000D0A00436C656172E0
:1003D000466561747572653D000011241FBECFEF44
:1003E000D0E2DEBFCDBF11E0A0E0B1E0EEE9F4E481
:1003F00000E00BBF02C007900D92A430B107D9F7FF
:1004000014E0A4E0B1E001C01D92A131B107E1F711
:1004100002D40C944D22F4CDE82FFF27EE0FEE0FFF
:100420008827EC5EFD4F0994009981E00895000053
:10043000019981E008950000029981E0089500008B
:10044000039981E008950000049981E00895000077
:10045000059981E008950000069981E00895000063
:10046000079981E008950000189981E0089500003F
:10047000199981E0089500001A9981E0089500001B
:100480001B9981E0089500001C9981E00895000007
:100490001D9981E0089500001E9981E008950000F3
:1004A0001F9981E008950000309981E008950000CF
:1004B000319981E008950000329981E008950000AB
:1004C000339981E008950000349981E00895000097
:1004D000359981E008950000369981E00895000083
:1004E000379981E008950000489981E0089500005F
:1004F000499981E0089500004A9981E0089500003B
:100500004B9981E0089500004C9981E00895000026
:100510004D9981E0089500004E9981E00895000012
:100520004F9981E008950000609981E008950000EE
:10053000619981E008950000629981E008950000CA
:10054000639981E008950000649981E008950000B6
:10055000659981E008950000669981E008950000A2
:10056000679981E008950000789981E0089500007E
:10057000799981E0089500007A9981E0089500005A
:100580007B9981E0089500007C9981E00895000046
:100590007D9981E0089500007E9981E00895000032
:1005A0007F9981E008950000E82FFF27EE0F88274C
:1005B000E552FD4F0994109A0895119A0895129AE0
:1005C0000895139A0895149A0895159A0895169AFD
:1005D0000895179A0895289A0895299A08952A9AAD
:1005E00008952B9A08952C9A08952D9A08952E9A7D
:1005F00008952F9A0895409A0895419A0895429A2D
:100600000895439A0895449A0895459A0895469AFC
:100610000895479A0895589A0895599A08955A9AAC
:1006200008955B9A08955C9A08955D9A08955E9A7C
:1006300008955F9A0895709A0895719A0895729A2C
:100640000895739A0895749A0895759A0895769AFC
:100650000895779A0895889A0895899A08958A9AAC
:1006600008958B9A08958C9A08958D9A08958E9A7C
:1006700008958F9A0895E82FFF27EE0F8827EE5BE5
:10068000FC4F0994109808951198089512980895B0
:100690001398089514980895159808951698089534
:1006A0001798089528980895299808952A980895E4
:1006B0002B9808952C9808952D9808952E980895B4
:1006C0002F98089540980895419808954298089564
:1006D0004398089544980895459808954698089534
:1006E0004798089558980895599808955A980895E4
:1006F0005B9808955C9808955D9808955E980895B4
:100700005F98089570980895719808957298089563
:100710007398089574980895759808957698089533
:100720007798089588980895899808958A980895E3
:100730008B9808958C9808958D9808958E980895B3
:100740008F980895FB01DC0102C005900D92415085
:100750005040D8F70895FB01DC0104C08D91019051
:10076000801921F441505040C8F7881B990B089517
:10077000FB01DC0102C001900D9241505040D8F7BE
:100780000895FB019F01E8944230C4F04532B4F46F
:100790004A3029F497FB1EF4909581959F4F642F62
:1007A00077270E943922805D8A330CF0895D81931E
:1007B000CB010097A1F716F45DE251931082C901B5
:1007C00000C0DC01FC01672F71917723E1F73297BC
:1007D00004C07C916D9370836291AE17BF07C8F31C
:1007E00008951F920F920FB60F9211242F933F93EB
:1007F0008F939F93809101049091020401969093AE
:10080000020480930104809100048F5F80930004B0
:100810008091FB039091FC0301969093FC038093DD
:10082000FB038091FB039091FC03885E934049F4A5
:100830008091FF038F5F8093FF031092FC0310925F
:10084000FB038091FD039091FE0301969093FE03BC
:100850008093FD03209102013091030182179307D9
:1008600068F08091F7039091F80301969093F80354
:100870008093F7031092FE031092FD039F918F91D6
:100880003F912F910F900FBE0F901F9018950895D4
:10089000089508958091F903882319F088E990E07C
:1008A00046D581E061EC46E30E94052082E060ECE1
:1008B00046E30E940520E2EEF0E0808184608083C0
:1008C00080910B01882389F0982F81FF06C0EBE20D
:1008D000F0E080818F7C8062808392FF06C0EBE233
:1008E000F0E080818F7380648083E0910701F09154
:1008F000080180818F3F69F0682F67708695869523
:10090000869541E0D4D5E0910701F09108018081FE
:100910004BCE0895CF92DF92EF92FF921F93DF9319
:10092000CF93CDB7DEB7C154D0400FB6F894DEBF39
:100930000FBECDBF182F19826091090170910A0175
:1009400081E0AE014E5F5F4F9E012F5F3F4F25D785
:10095000809101049091020420910E0130910F01C9
:10096000821B930BC39758F04981CE01029667E52D
:1009700071E050E0F0DE282F392F232B19F41123DA
:1009800009F45EC080910804882309F459C081E00D
:100990008093E9008091E80085FF52C08091E800D3
:1009A00080FF4EC081E08093F1008091F90388239D
:1009B00029F081E090E0E3D480E295D48981882316
:1009C000F9F010E0CC24DD246894C1F8CC0EDD1ED3
:1009D0000F2EF1EFEF2EFF24F02DF601E10FF11DA8
:1009E000E081D701EC938091F903882329F08E2FC1
:1009F00090E0C5D480E277D41F5F8981181768F32F
:100A00008091F903882309F0A2D4E8EEF0E0808118
:100A1000982F9E7F90838F77808327E531E04981EF
:100A2000FE013296822F932F6E2F7F2F50E0A0DE93
:100A3000809101049091020490930F0180930E0124
:100A400080E0CF5BDF4F0FB6F894DEBF0FBECDBFA7
:100A5000CF91DF911F91FF90EF90DF90CF9008959D
:100A6000EF92FF920F931F93CF93DF938091E80053
:100A700083FFCAC080910D0490910E04892B09F068
:100A8000C3C010910A04009109048091F9038823DE
:100A900069F08DEE90E04BD4812F90E070D48BEE16
:100AA00090E045D4802F90E06AD451D480910A041C
:100AB000833009F47EC0843030F4813071F08230AC
:100AC00009F0A2C095C08A3009F485C08B3009F4C2
:100AD00079C0893009F098C05FC0013A09F094C02C
:100AE000E8EEF0E08081877F8083EBE0F4E08181B5
:100AF0000081182F1150C281D381E480F58080914C
:100B0000F9038823B9F08FED90E011D4812F90E0A4
:100B100036D48DED90E00BD4802F90E030D48BED67
:100B200090E005D4CE012BD489ED90E000D4C7012C
:100B300026D40DD4123001F56091090170910A019B
:100B4000802F78D5E8EEF0E08081982F9E7F90830B
:100B50008F77808305C080910804882309F454C0EE
:100B6000808182FFF8CFE8EEF0E08081982F9B7FB4
:100B700090838F77808348C0112329F4013019F4C2
:100B800081E0C8DE41C0E8EEF0E08081982F9E7FD2
:100B900090838F77808338C0809109048132A1F5DA
:100BA0008091F903882381F180ED90E0C0D3CFD309
:100BB0002BC08091F903882339F183EC90E0B7D3FF
:100BC000C6D322C08091F9038823F1F086EB90E030
:100BD000AED3BDD319C0809109048132A9F48091AC
:100BE000F903882389F08DEA90E0A1D3B0D30CC03B
:100BF00080910904813A41F48091F903882321F01E
:100C000084EA90E094D3A3D3DF91CF911F910F9109
:100C1000FF90EF9008952F923F924F925F926F92C4
:100C20007F928F929F92AF92BF92CF92DF92EF927C
:100C3000FF920F931F93DF93CF930F92CDB7DEB741
:100C4000E4E5F0E09081A8958081877F808388E14A
:100C50000FB6F89480936000109260000FBE10826F
:100C6000D92E93FF2DC0EFE3F0E0808181FDFDCF11
:100C70008FEF9FE092BD81BDF89A80B5882301F582
:100C8000EFE3F0E0808181FDFDCF1FBA8FEF9FE0A1
:100C900092BD81BD8FEF80BD0FB6F894FA9AF99A94
:100CA0000FBE2CE632E048EC50E0CA010197F1F7A4
:100CB00021503040D1F7E0910001F09101010995F8
:100CC000EFE3F0E0808181FDFDCF1FBA8FEF9FE061
:100CD00092BD81BD8FEF80BD0FB6F894FA9AF99A54
:100CE0000FBE8091610080930D01F894E1E6F0E081
:100CF0000F2EF0E8FF2EF02DF0821082E0E0F0EEF3
:100D00004591549101E114E0C80160E070EE1ADDF4
:100D1000F80184899589080F191F10930801009321
:100D20000701F8019181892F867080930B01892F2B
:100D300080718093F903E92EC80141969093540184
:100D400080935301C801859690930A01809309010D
:100D5000109211011092560110920C0110920F0185
:100D600010920E01109210011092FC031092FB03DE
:100D70001092FF03109200041092020410920104DA
:100D800082E084BD83E085BD8DE787BDEEE6F0E0BF
:100D9000808182608083F09264001092B600C80166
:100DA000029663E070E00E94DE1B80910B018823B5
:100DB00021F190E09C0124703070AC0142705070C1
:100DC00081FF05C0EAE2F0E0808180638083211525
:100DD000310529F0EAE2F0E08081806C8083452BC8
:100DE00029F0EBE2F0E0808180638083232B29F0FF
:100DF000EBE2F0E08081806C80838091F9038823AE
:100E000019F08CE090E0A7D278948091F9038823C0
:100E100049F086EF90E08BD28D2D90E0B0D282EF3A
:100E200090E085D280910B01882389F0982F81FF73
:100E300006C0EBE2F0E080818F7C8061808392FFCE
:100E400006C0EBE2F0E080818F7380688083E5FE6E
:100E500004C080E00E943E2103C080E00E943E2149
:100E60000F2EF9EEEF2EFF24F02D12E00F2EF2EFF1
:100E7000CF2EDD24F02D0F2EF1EFAF2EBB24F02D61
:100E80000F2EF2E18F2EF1E09F2EF02D0F2EF3E1C9
:100E90006F2EF1E07F2EF02D552453940F2EF1E1AB
:100EA0002F2EF1E03F2EF02DC301462C99830E9496
:100EB0002522809108048430D1F780910C01882389
:100EC000A9F48091F903882319F082E491E02FD2EC
:100ED0008091090190910A01F1D450920C01809106
:100EE000F903882319F088E291E021D2809105016D
:100EF00090910601019690930601809305019091CF
:100F0000FF0380910401891791F08091FF03809382
:100F100004018091F903882331F0809105019091BB
:100F2000060149D214D21092060110920501809157
:100F300001049091020420910E0130910F01821B57
:100F4000930B895E934010F0509210018091100134
:100F5000E1DC882311F410921001F7011083E8EE10
:100F6000F0E0808182FFA3CF8091F903882309F408
:100F700098C08EE191E0DBD194C0F50100818091B1
:100F8000F903882329F0802F90E0F9D180E2ABD1DA
:100F900080915601882321F0813009F082C02AC057
:100FA000802F81508331E8F4F401008350921101C5
:100FB000E0915301F0915401E00FF11D31978081D0
:100FC000809355018091F903882341F0C101AFD18D
:100FD0008091550190E0D3D180E285D150925601A5
:100FE00060C0E8EEF0E08081982F9B7F90838F7740
:100FF000808357C080911101F401E80FF11D008337
:101000008F5F80931101809155018150809355012C
:10101000882309F046C08091F903882319F087E6F8
:1010200091E085D1F4018081833009F031C0F30172
:1010300080819181A281B3818F5D904FAD40BF4D82
:1010400009F02DC08091F903882331F081E591E00A
:101050006ED13FD18823E9F3EFE3F0E0808181FD99
:10106000FDCF1FBA8FEF9FE092BD81BD10BC0FB6C0
:10107000F894FA9AF99A0FBE28E088E190E00FB64A
:10108000F894A895809360000FBE20936000FFCF76
:101090006091090170910A01442D5981F9D2109291
:1010A0005601F60180819181892B09F066CFE8EE27
:1010B000F0E08081982F9B7F90838F778083809151
:1010C000F903882309F4F3CE42D1F1CEAF92BF9257
:1010D000CF92DF92EF92FF920F931F93CF93DF9304
:1010E0005A010F2EF1E1EF2EF4E0FF2EF02D933098
:1010F00009F44CC0943028F4913071F0923039F4F6
:1011000028C0913209F470C0923209F489C000E01D
:1011100010E0C0E0D0E09FC0F701808591858C0190
:101120000F5E1B4FC285D3858091F903882309F494
:1011300092C088EA91E0FBD0F701808591853BD190
:1011400086EA91E0F4D0F7018285938534D1FFD00F
:1011500082C0F701848595858C010F5E1B4FC68583
:10116000D7858091F903882309F475C08EE991E051
:10117000DED0F701848595851ED18CE991E0D7D02A
:10118000F7018685978517D1E2D065C0C82EDD248A
:10119000C601880F991FF701E80FF91F8689978903
:1011A0008C010F5E1B4FF8018081C82FD0E0809129
:1011B000F903882309F44FC087E991E0B8D0C6014C
:1011C000FAD085E991E0B3D0C601880F991FF701E5
:1011D000E80FF91F86899789EED083E991E0A7D0BF
:1011E000CE01E9D0B4D037C0F701808991898C0154
:1011F0000F5E1B4FC289D3898091F903882359F16F
:101200008EE891E094D0F70180899189D4D08CE860
:1012100091E08DD0F70182899389CDD098D01BC001
:10122000F701848195818C010F5E1B4FC681D781A8
:101230008091F903882379F084E891E078D0F70170
:1012400084819581B8D082E891E071D0F7018681E0
:101250009781B1D07CD0F501118300838C2F9D2F15
:10126000DF91CF911F910F91FF90EF90DF90CF9082
:10127000BF90AF9008951F920F920FB60F920BB6CA
:101280000F9211248F939F93EF93FF939091970266
:1012900080919802981769F0809198028F5F8093EF
:1012A0009802E7E9F1E0E80FF11D80818093CE001C
:1012B00005C0E9ECF0E080818F7D8083FF91EF91A4
:1012C0009F918F910F900BBE0F900FBE0F901F90AC
:1012D0001895909197028091980220E0981709F450
:1012E00021E0822F0895282F80919702982F9F5FE9
:1012F000809198029817E1F3E7E9F1E0E90FF11D19
:10130000208390939702E9ECF0E0808180628083F3
:101310000895CF93DF93EC018881882329F0E3DFE0
:10132000219688818823D9F7DF91CF910895CF93B3
:10133000DF93EC01FC018491882331F0D4DF219606
:10134000FE0184918823D1F7DF91CF9108958DE03C
:10135000CADF8AE0C8CF1092980210929702909349
:10136000CD008093CC001092C800E9ECF0E0108230
:1013700086E08093CA0080818860808308950F93FF
:101380001F93DF93CF9300D000D00F92CDB7DEB77D
:101390008E010F5F1F4FB80140E150E0F2D9C80144
:1013A000B8DF0F900F900F900F900F90CF91DF91BB
:1013B0001F910F9108950F931F93DF93CF93CDB794
:1013C000DEB727970FB6F894DEBF0FBECDBF8E01F4
:1013D0000F5F1F4FB8014AE050E0D3D9C80199DF31
:1013E00027960FB6F894DEBF0FBECDBFCF91DF9129
:1013F0001F910F9108950F931F93CF93DF93EC01EB
:101400008B01E881F981DB013C912223C1F061E08D
:1014100070E0A0E0B1E0332319F4319610823B2F45
:10142000CB0184239523892B19F08081832B808322
:10143000330FAF5FA21718F4660F771FECCFF98355
:10144000E883F8013083DF91CF911F910F910895C8
:101450000F931F93CF93DF93EC018B01E881F98108
:10146000DB015C914423B1F0A0E0B0E021E030E08A
:1014700060E091E0552311F43196592F8081852346
:1014800011F0A22BB32B550F6F5F641728F4220FB6
:10149000331FF0CFA0E0B0E0F983E883F801508378
:1014A0008A2F9B2FDF91CF911F910F91089582304A
:1014B00009F44CC0833030F4882371F0813009F096
:1014C000B8C027C0843009F47BC0843008F45BC006
:1014D000853009F0AEC091C0442369F0E1E2F0E04C
:1014E000208181E090E002C0880F991F6A95E2F7A1
:1014F000282B20830895E1E2F0E0208181E090E054
:1015000002C0880F991F6A95E2F780958223808335
:101510000895442369F0E4E2F0E0208181E090E066
:1015200002C0880F991F6A95E2F7282B208308953F
:10153000E4E2F0E0208181E090E002C0880F991F92
:101540006A95E2F78095822380830895442369F0A9
:10155000E7E2F0E0208181E090E002C0880F991F6F
:101560006A95E2F7282B20830895E7E2F0E02081D6
:1015700081E090E002C0880F991F6A95E2F780959C
:10158000822380830895442369F0EAE2F0E0208119
:1015900081E090E002C0880F991F6A95E2F7282B3E
:1015A00020830895EAE2F0E0208181E090E002C02B
:1015B000880F991F6A95E2F78095822380830895AA
:1015C000442369F0EDE2F0E0208181E090E002C088
:1015D000880F991F6A95E2F7282B20830895EDE282
:1015E000F0E0208181E090E002C0880F991F6A95A9
:1015F000E2F78095822380830895442369F0E0E335
:10160000F0E0208181E090E002C0880F991F6A9588
:10161000E2F7282B20830895E0E3F0E0208181E0C9
:1016200090E002C0880F991F6A95E2F780958223A7
:1016300080830895FF920F931F93CF93DF93F82E2B
:10164000EB0188818823F1F08E018B818F1529F0C1
:10165000F81688F08A818F1570F0F8018081893042
:1016600019F08F3041F404C0CE010E944E1403C023
:10167000CE010E945118F8018181C80FD11D8881C7
:10168000882311F7DF91CF911F910F91FF9008955B
:101690008F929F92AF92BF92DF92EF92FF920F9341
:1016A0001F93DF93CF9300D00F92CDB7DEB7D82E24
:1016B0008B015A83498381E08B83FB0180818823DE
:1016C00009F45CC00F2EF3E08F2E9924F02D8C0EC0
:1016D0009D1E5E010894A11CB11C7801F801838154
:1016E0008D1539F0D81608F440C082818D1508F4A4
:1016F0003CC0F7018081893029F18A3038F4873085
:1017000089F08830A0F4863081F507C08E30A1F0D2
:101710008F3029F18D3049F51CC0C801B501A401F5
:10172000E6D623C0C801B501A4014AD71EC0C8012E
:10173000B501A401BFD719C0C801B501A4010E9419
:10174000F21313C0C8016D2DA50194010E94061665
:101750000CC0C801B501A4010E94EE1C06C0C8015E
:101760006D2DA50194010E94B918F7018181080F20
:10177000111DF8018081882309F0AFCF0F900F90E1
:101780000F90CF91DF911F910F91FF90EF90DF901D
:10179000BF90AF909F908F9008954F925F926F92FD
:1017A0007F928F929F92AF92BF92DF92EF92FF92C1
:1017B0000F931F93DF93CF9300D00F92CDB7DEB777
:1017C000D82E8B013A0129015A83498381E08B830A
:1017D000FA011082FB018081882309F457C00F2E83
:1017E000F3E08F2E9924F02D8C0E9D1E5E0108943F
:1017F000A11CB11C7801F80183818D1531F0D81638
:1018000008F43BC082818D15C0F1F70180818430DE
:10181000F9F0853038F4823089F08330A0F48130DB
:1018200061F507C08A30F1F08B3011F1853029F570
:1018300014C0C801B501A4013DD11FC0C801B50144
:10184000A401A8D11AC0C801B501A40109D215C0CC
:10185000C801B501A4012FD310C0C801B501A4016E
:101860009ED50BC0C801B501A4010E94081A05C08D
:10187000C801B501A4010E94731BF7018181080F03
:10188000111DF8018081882309F0B4CF89818F5F11
:101890008619F20180830F900F900F90CF91DF9106
:1018A0001F910F91FF90EF90DF90BF90AF909F90AE
:1018B0008F907F906F905F904F9008950F931F933C
:1018C000CF93DF93EC018881882309F468C08E01EF
:1018D0008881873099F1883078F4833019F1843029
:1018E00030F48130C9F0823009F045C018C085302D
:1018F000F9F0863000F519C08B3089F18C3028F46E
:10190000893029F18A3038F51CC08E30E9F08F30EB
:1019100071F18D3081F527C0CE01F4D038C0CE01F1
:1019200075D135C0CE014ED232C0CE0165D32FC0A5
:10193000CE0175D52CC0CE0110D629C0CE0189D6D6
:1019400026C0CE0108D723C0CE018AD720C0CE0141
:101950000E94F6161CC0CE010E942B1B18C0CE019F
:101960000E94831B14C0CE010E948F1D10C0CE01A7
:101970000E9485180CC08091F903882381F08DEABC
:1019800091E0D5DC888190E0FADCE1DC08C0F80168
:101990008181C80FD11D8881882309F098CFDF91FC
:1019A000CF911F910F9108951F920F920FB60F9232
:1019B0000BB60F9211242F933F934F935F936F9326
:1019C0007F938F939F93AF93BF93EF93FF938091F8
:1019D0007800909179002091B2023091B302DC013D
:1019E000A20FB31FB093B302A093B2028091B402CE
:1019F0008F5F8093B402843009F049C080917C00ED
:101A0000582F5770852F8F5F482F4770842F90E095
:101A1000FC01EE0FFF1FE80FF91FE656FD4F808116
:101A2000882399F46AE972E0842F8F5F482F47700A
:101A3000242F30E0C901880F991F820F931FFB01EB
:101A4000E80FF91F8081882379F3EAE7F0E08081CD
:101A50008F738083842F806480937C008081806C6E
:101A60008083852F90E0FC01EE0FFF1FE80FF91F28
:101A7000E556FD4FCD01969587959695879591836F
:101A800080831092B4021092B3021092B202FF91BE
:101A9000EF91BF91AF919F918F917F916F915F91E6
:101AA0004F913F912F910F900BBE0F900FBE0F9053
:101AB0001F901895CF93DF93DC01EA01F8941496F8
:101AC0008C91149790E087709070FC01EE0FFF1FCF
:101AD000E80FF91FE556FD4F408151817894159626
:101AE0002C912A3049F08AE090E0821B910902C0D3
:101AF000569547958A95E2F7CB01BE017CDCDF91D4
:101B0000CF910895CF93DF93EC01809199028823C0
:101B100039F488E1EAE9F2E0DF011D928A95E9F7FC
:101B20009C81892F869586958695853041F086ED36
:101B300091E0FDDB8C8190E022DC09DC28C0892F5C
:101B400090E09C0127703070F901EE0FFF1FE20F4B
:101B5000F31FE656FD4F81E0808380919902882330
:101B600099F41092B4021092B3021092B202822F32
:101B7000806480937C00EAE7F0E08EE2808310923C
:101B80007B008081806C808381E080939902DF916B
:101B9000CF910895EF92FF920F931F93CF93DF930E
:101BA000EC018B017A018C810E940C02482F8D81FF
:101BB000982F90FF03C081E0841B482F91FF1AC02B
:101BC000442311F41E8216C09E8199239CF0992310
:101BD00031F4809100048F778E8340E00BC08091B8
:101BE0000004981B892F8F778B3010F440E002C0DF
:101BF00080E88E83C801B70150E021E0FCDBDF9173
:101C0000CF911F910F91FF90EF9008950F931F9325
:101C1000CF93DF93EC018091F903882319F082E0E0
:101C200092E085DB8C81082F069506950695182F86
:101C30001770802F612F40E03ADC8D8180FF07C054
:101C4000802F880F880F880F810F0E94D4021E8278
:101C500081E08093B502DF91CF911F910F9108959C
:101C60005F926F927F928F929F92AF92BF92CF922C
:101C7000DF92EF92FF920F931F93CF93DF938C012C
:101C80004B013A01FC018681CC24C394C822DD2497
:101C90006894D1F8D822BB246894B2F8B82282FFA5
:101CA00002C0EE2402C0F801E780F8018481882395
:101CB00009F470C0FF24AA24A3940F2EF0E85F2E2D
:101CC000F02DCF2DD0E0CE01880F991F8C0F9D1FD6
:101CD000F801E80FF91F80850E940C02CC2019F052
:101CE000FA2DF81B8F2FDD20B9F1882351F4CE0196
:101CF000880F991F8C0F9D1FF801E80FF91F12869E
:101D000043C0CE01880F991F8C0F9D1FF801E80F6B
:101D1000F91F9285992314F1992369F480910004A5
:101D20009E01220F331F2C0F3D1FF801E20FF31FFE
:101D30008F77828729C080910004981B892F8F7725
:101D40008B3010F1CE01880F991F8C0F9D1FF80169
:101D5000E80FF91F528602C08823B1F0BB2051F46E
:101D6000CE01880F991F8C0F9D1FF801E80FF91FF6
:101D7000E18410C0CE01880F991F8C0F9D1FF801C0
:101D8000E80FF91F8185E82AF394F8018481F81699
:101D900008F497CFF801E782C401B3014E2D50E05B
:101DA000258129DBDF91CF911F910F91FF90EF905B
:101DB000DF90CF90BF90AF909F908F907F906F906B
:101DC0005F9008958F929F92AF92BF92CF92DF92D1
:101DD000EF92FF920F931F93CF93DF937C01FC014F
:101DE0008681CC24C394C8228481882309F453C0FB
:101DF000DD240F2EF1E18F2EF2E09F2EF02D0F2E1D
:101E0000FFE0AF2EF2E0BF2EF02DCD2DD0E0CE01C1
:101E1000880F991F8C0F9D1FF701E80FF91F808510
:101E2000182F169516951695082F0770812F602F7D
:101E300040E03DDBCC2039F0812F880F880F880FE0
:101E4000800F0E94D402CE01880F991F8C0F9D1F16
:101E5000F701E80FF91F12868091F9038823A9F092
:101E6000C40165DACE01880F991F8C0F9D1F870171
:101E7000080F191FF801808590E081DAC50157DA53
:101E8000F801818590E07BDA62DAD394F7018481EE
:101E9000D81608F4BACF81E08093B602DF91CF91D3
:101EA0001F910F91FF90EF90DF90CF90BF90AF9078
:101EB0009F908F9008952F923F924F925F926F92D2
:101EC0007F928F929F92AF92BF92CF92DF92EF92CA
:101ED000FF920F931F93DF93CF9300D000D0CDB725
:101EE000DEB76C014B015A01FC0186814424439406
:101EF0004822A601495F5F4F84812581222309F48E
:101F000064C090E007963601680E791E7301E20EF8
:101F1000F11C3324CA0149839A8300E022242394CC
:101F2000522CF30180810E943B03F60184818823B7
:101F300009F43EC089819A819C838B83102FEB81A9
:101F4000FC8180810E940C02422D481B442001F13B
:101F5000442319F4F701108218C0F70190819923E6
:101F6000A4F0992331F4809100048F778083402F6F
:101F70000CC080910004981B892F8F778B3010F450
:101F8000402F03C080E8F70180830894E11CF11C16
:101F9000C401B501502F252D2EDA1F5FF601848173
:101FA000181730F48B819C8101969C838B83C7CF5B
:101FB000F30180810E94D4023394F60185813816A2
:101FC00020F40894611C711CACCF0F900F900F90FF
:101FD0000F90CF91DF911F910F91FF90EF90DF90C5
:101FE000CF90BF90AF909F908F907F906F905F90B9
:101FF0004F903F902F900895CF92DF92EF92FF92F3
:102000000F931F93CF93DF937C010F2EF7E0CF2E1A
:10201000DD24F02DC80ED91EFC0184818823C9F06F
:10202000E6011991012F0695069506951770802FE8
:10203000612F40E03CDA000F000F000F802F810F6E
:102040000E94D4029E012C19F7018481281748F3BD
:102050006E01F70185818823C9F0E6011991012FEE
:102060000695069506951770802F612F41E01FDABF
:10207000000F000F000F802F810F0E94D4029E01DD
:102080002C19F7018581281748F36E01F701868125
:1020900080FF18C085812481829FC00111241816F9
:1020A000190684F440E050E0F60111926F014F5F91
:1020B0005F4FF70185812481829FC0011124481759
:1020C000590794F381E08093B702DF91CF911F917C
:1020D0000F91FF90EF90DF90CF900895833031F112
:1020E000843009F44FC0813009F079C0E4E2F0E0B7
:1020F000208181E090E002C0880F991F6A95E2F785
:10210000682F809582238083442329F0E5E2F0E064
:102110008081862B8083E8E6F0E080818160808387
:10212000EBE6F0E08081862B80830895EAE2F0E020
:10213000208170E081E090E0062E02C0880F991F98
:102140000A94E2F7582F809582238083442329F054
:10215000EBE2F0E08081852B8083E9E6F0E04081CE
:102160009B01220F331F81E090E002C0880F991F6E
:102170002A95E2F7482B4083EDE3F0E08081852B40
:1021800080830895EDE2F0E0208170E081E090E04E
:10219000062E02C0880F991F0A94E2F7582F8095E7
:1021A00082238083442329F0EEE2F0E08081852BB6
:1021B0008083EAE6F0E040819B0124503040220F0A
:1021C000331F81E090E002C0880F991F2A95E2F743
:1021D000482B4083EDE3F0E08081852B80830895D8
:1021E0001F920F920FB60F920BB60F9211244F92BF
:1021F0005F926F927F928F929F92AF92BF92CF9297
:10220000DF92EF92FF920F931F932F933F934F9381
:102210005F936F937F938F939F93AF93BF93EF934E
:10222000FF93DF93CF9300D0CDB7DEB7FE01319699
:1022300083B1808399B18CB1807F9F70892B81831A
:102240008091BC02882349F01092BC0289819A8156
:102250009093BB028093BA027DC0E090BA02F090E6
:10226000BB0209811A81E016F10609F473C0580116
:10227000AE24BF242091B902222309F467C0ADEB3C
:10228000B2E0CC24DD24C3940F2EF5ED6F2EF2E0E6
:102290007F2EF02D44245524689453F8215030E0CB
:1022A0002F5F3F4FC901880F991F820F931F4D0168
:1022B000880E991EA6010C9002C0440F551F0A9467
:1022C000E2F7CA018A219B21892B69F4C601119684
:1022D0000C90119702C0880F991F0A94E2F78A2187
:1022E0009B21892B71F1CA018E219F21892B11F02D
:1022F000352D01C0342DB60111960C90119702C0F6
:10230000660F771F0A94E2F7CB018E219F21892B5C
:1023100009F03460CA0180239123892B09F03260CF
:10232000CB0180239123892B09F03160F301E30F66
:10233000F11D12968C9112979081890F12968C93B1
:1023400012971396A815B90509F0B4CF1093BB02E4
:102350000093BA020F900F90CF91DF91FF91EF9110
:10236000BF91AF919F918F917F916F915F914F91AD
:102370003F912F911F910F91FF90EF90DF90CF90A1
:10238000BF90AF909F908F907F906F905F904F9095
:102390000F900BBE0F900FBE0F901F901895CF930C
:1023A000DF93EA01FC019481892F869586958695B5
:1023B000813011F028E001C020E0A091B902AA23E9
:1023C00059F1892F8770922F980F8091BD0289173C
:1023D000E9F440E050E007C0A90180812F5F3F4F42
:1023E00033968917B9F4F8947894FA01EE0FFF1F29
:1023F000E40FF51FE154FD4F4081552747FD5095EF
:10240000CB01BE0128E00E94FB0906C0E0ECF2E02F
:1024100021E030E02A1700F3DF91CF910895FF9279
:102420000F931F93CF93DF93EC018091B802882321
:10243000A9F41092B90291E09093BC02E5EDF2E0AC
:1024400080E1DF011D928A95E9F793878FEF8087FE
:102450009587868794838783928381838C81182FC5
:10246000169516951695082F0770812F602F40E05E
:1024700035DE8D810F2EF7E0FF2EF02DF8228695A8
:10248000869586956F2D40E029DE9091B902292F1F
:1024900030E0113001F5F901EE0FFF1FE20FF31FDD
:1024A000E354FD4F008380E0F901EE0FFF1FE20FC0
:1024B000F31FE354FD4F8F0D81831282892F8F5FAD
:1024C0008093B90281E08093B802DF91CF911F9190
:1024D0000F91FF900895F901EE0FFF1FE20FF31F18
:1024E000E354FD4F802F885F808388E0DDCF1F930A
:1024F000CF93DF93EC01CB01BA0141E00E94280A9F
:10250000182F87E192E00E949709812F90E00E94A6
:10251000DB090E94A7098D8180FF03C081E0811B38
:10252000182F8C81282F269526952695982F977001
:10253000112341F0822F880F880F880F890F0E9486
:10254000D40207C0822F880F880F880F890F0E943E
:102550003B03DF91CF911F9108950F931F93CF936A
:10256000DF93EC018091F903882321F086E292E069
:102570000E9497098C81082F069506950695182FBD
:1025800017708D8180FF14C0802F880F880F880FEF
:10259000810F0E94D402802F612F41E00E94570AD0
:1025A00081E08093E502DF91CF911F910F91089513
:1025B000802F880F880F880F810F0E943B03EBCF7D
:1025C000FF920F931F93CF93DF93EC01CB01BA01DE
:1025D00042E00E94280A182F8091F903882351F0C5
:1025E00080E392E00E949709812F90E00E94DB092E
:1025F0000E94A709113069F08D81F82EF694F694A7
:10260000F694082F07708C810E943B03123061F012
:1026100013C08D81F82EF694F694F694082F077067
:102620008C810E94D40208C08F2D880F880F880FDC
:10263000800F0E94D40207C08F2D880F880F880F4B
:10264000800F0E943B03DF91CF911F910F91FF906C
:102650000895EF92FF920F931F93FC011481F12EC6
:10266000F694F694F69417700581E02EE694E694BD
:10267000E69407708F2D880F880F880F810F0E94B6
:102680003B038E2D880F880F880F800F0E943B031D
:102690008F2D612F41E00E94570A8E2D602F41E05F
:1026A0000E94570A81E08093E6021F910F91FF90EC
:1026B000EF900895FF920F931F93CF93DF93EC0158
:1026C000CB01BA0142E00E94280A182F87E492E069
:1026D0000E949709812F90E00E94DB090E94A709C0
:1026E000113011F4FF2409C0123019F4FF24F394BF
:1026F00021C01330F1F4FF24F3948D81082F069547
:1027000006950695182F17708C810E94D402FF2021
:1027100041F0802F880F880F880F810F0E94D4020C
:1027200014C0802F880F880F880F810F0E943B03F1
:102730000CC0FF248D81082F069506950695182F4D
:1027400017708C810E943B03E2CFDF91CF911F91E4
:102750000F91FF900895EF92FF920F931F93FC014A
:102760001481F12EF694F694F69417700581E02EFC
:10277000E694E694E69407708F2D880F880F880FF3
:10278000810F0E943B038E2D880F880F880F800FCA
:102790000E943B038F2D612F41E00E94570A8E2D2E
:1027A000602F41E00E94570A81E08093E7021F9169
:1027B0000F91FF90EF900895982F96959695969586
:1027C000282F2770662339F0892F880F880F880FEC
:1027D000820F0C94D402892F880F880F880F820FE4
:1027E0000C943B031F93CF93DF93EC01CB01BA0111
:1027F00043E00E94280A182F8F8180FD1095612FD9
:1028000064708C81D9DF612F62708D81D5DF612F7B
:1028100061708E81D1DFDF91CF911F9108950F9369
:102820001F93082F069506950695182F1770662397
:1028300079F0802F880F880F880F810F0E94D402B3
:10284000802F612F41E00E94570A1F910F91089538
:10285000802F880F880F880F810F0E943B03F0CFD5
:102860000F931F938C01FC01678170E061707070A1
:102870008481D5DFF801678170E0617070708581B7
:10288000CEDFF801678170E0617070708681C7DF0C
:1028900081E08093E8021F910F910895EF92FF92DB
:1028A0000F931F93CF93DF938C010D5F1F4FC0E0F9
:1028B000D0E00F2EF1EFEF2EFF24F02D8091F903E1
:1028C000882341F0F801808190E00E94BF0980E2F6
:1028D0000E947309F8018081F70180832196C3303B
:1028E000D10519F00F5F1F4FE9CF8091F9038823BD
:1028F00011F00E94A709DF91CF911F910F91FF90D6
:10290000EF9008951F93CF93DF93EC01162F8E81E4
:10291000882321F18A85682F67708695869586952C
:10292000412F0E94570A8B85682F67708695869580
:102930008695412F0E94570A8C85682F677086956F
:1029400086958695412F0E94570A8D85682F67705E
:10295000869586958695412F0E94570A8E85682F09
:102960006770869586958695412F0E94570A8F85B8
:10297000682F6770869586958695412F0E94570A25
:102980008889682F6770869586958695412F0E9465
:10299000570A8989682F6770869586958695412F95
:1029A0000E94570ADF91CF911F910895DF92EF9215
:1029B000FF920F931F93CF93DF93EC01D62EE42E5B
:1029C0008E81882309F480C0CE0160E09BDF8F8177
:1029D0000E943B0388850E94D4020FEFFF24689475
:1029E000F1F889850E94D4028F2D8A95F1F78989A3
:1029F0000E940C02182F89850E943B03112311F0BD
:102A0000015079F7CE0161E07DDFDD2021F08F817B
:102A10000E94D40203C08F810E943B0388850E94DC
:102A20003B031E2DE0FE04C08A850E94D40203C031
:102A30008A850E943B0311FF04C08B850E94D4024B
:102A400003C08B850E943B0312FF04C08C850E944B
:102A5000D40203C08C850E943B0313FF04C08D8504
:102A60000E94D40203C08D850E943B0314FF04C062
:102A70008E850E94D40203C08E850E943B0315FF01
:102A800004C08F850E94D40203C08F850E943B033F
:102A900016FF04C088890E94D40203C088890E945E
:102AA0003B03EE2024F489890E94D40203C0898963
:102AB0000E943B0389850E94D40282E08A95F1F747
:102AC00089850E943B039AC0CE0160E01BDF8F81A5
:102AD0000E943B0388850E94D4020FEFFF24689474
:102AE000F1F889850E94D4028F2D8A95F1F78989A2
:102AF0000E940C02182F89850E943B038F2D8A9516
:102B0000F1F789850E94D4028F2D8A95F1F7898982
:102B10000E940C0289850E943B03112311F0015091
:102B200001F7CE0161E0EEDEDD2021F08F810E9411
:102B3000D40203C08F810E943B0388850E943B031F
:102B40000E2DE4FE04C08E850E94D40203C08E8543
:102B50000E943B0305FF04C08F850E94D40203C07E
:102B60008F850E943B0306FF04C088890E94D4021F
:102B700003C088890E943B03EE2024F489890E94C7
:102B8000D40203C089890E943B0389850E94D40234
:102B900012E0812F8A95F1F789850E943B031A95EF
:102BA000F1F700FF04C08E850E94D40203C08E8519
:102BB0000E943B0301FF04C08F850E94D40203C022
:102BC0008F850E943B0302FF04C088890E94D402C3
:102BD00003C088890E943B0303FF04C089890E94C7
:102BE000D40203C089890E943B0389850E94D402D4
:102BF00082E08A95F1F789850E943B03DF91CF91AE
:102C00001F910F91FF90EF90DF900895BF92CF92A8
:102C1000DF92EF92FF920F931F93CF93DF938C017C
:102C20006A017901FC018381861709F046C0809111
:102C3000F903882331F086E792E00E9497090E9409
:102C4000A709C601B70148E00E94280AB82EC601AC
:102C5000B70148E00E94280A482FF8015481282F24
:102C600030E0852F90E001978217930714F4452FE9
:102C70004150F801E40FF11D42894B0D4068C80135
:102C800060E094DEF8018581882309F45DC0C0E02E
:102C9000D0E0C601B70148E00E94280A482F8823E7
:102CA00009F452C0C80161E081DE2196F8018581F6
:102CB00090E0C817D9076CF347C0C62FD0E090E06A
:102CC0000196C817D90759F58091F903882331F087
:102CD00088E892E00E9497090E94A709C601B701FF
:102CE00048E00E94280A482F440F440F440F4064D4
:102CF000C80160E05BDEC0E0D0E0C601B70145E09E
:102D00000E94280A482FC80161E050DE2196C73092
:102D1000D10599F7C80161E040E048DE15C0809117
:102D2000F903882389F08FE592E00E949709CE018C
:102D30000E94DB098FE30E947309F801838190E010
:102D40000E94DB090E94A709DF91CF911F910F918B
:102D5000FF90EF90DF90CF90BF9008950F931F9357
:102D6000CF93DF93EC01162F042F61E0CBDD11230D
:102D700021F08F810E94D40203C08F810E943B0307
:102D800088850E943B03102F00FF04C08E850E949F
:102D9000D40203C08E850E943B0311FF04C08F85BF
:102DA0000E94D40203C08F850E943B0312FF04C01F
:102DB00088890E94D40203C088890E943B0313FFC4
:102DC00004C089890E94D40203C089890E943B0300
:102DD00089850E94D40282E08A95F1F789850E9454
:102DE0003B03DF91CF911F910F910895CF93DF9314
:102DF000EC018091E902882321F4809100048D3256
:102E0000E0F38F810E943B0388850E943B03898504
:102E10000E943B03CE0160E075DD8F81682F6770F3
:102E200086958695869541E00E94570A8885682F89
:102E3000677086958695869541E00E94570A898538
:102E4000682F677086958695869541E00E94570A9F
:102E50008091F9038823D1F185EB92E00E949709D4
:102E60008F8190E00E94BF0980EB92E00E94970959
:102E7000888590E00E94BF098CEA92E00E94970941
:102E8000898590E00E94BF0987EA92E00E94970935
:102E90008E8590E00E94BF0982EA92E00E94970925
:102EA0008F8590E00E94BF098DE992E00E9497090A
:102EB000888990E00E94BF0988E992E00E94970902
:102EC000898990E00E94BF090E94A7098E8188230A
:102ED00009F439C08091F903882321F089EB92E04D
:102EE0000E949709CE0160E040E360DD80E197E257
:102EF0000197F1F7CE0160E040E358DD88EC90E007
:102F00000197F1F7CE0160E040E350DD8C81823023
:102F100028F0CE0160E048E349DD04C0CE0160E066
:102F200040E344DDCE0160E048E040DDCE0160E0FA
:102F300041E03CDDCE0160E046E038DDCE0160E0FE
:102F40004CE034DD3CC08091F903882321F081ED11
:102F500092E00E949709CE0160E043E0FFDE80E14D
:102F600097E20197F1F7CE0160E043E0F7DE88ECED
:102F700090E00197F1F7CE0160E043E0EFDECE0193
:102F800060E042E0EBDE8C81823028F0CE0160E030
:102F900048E20CDD04C0CE0160E040E207DDCE0176
:102FA00060E048E003DDCE0160E041E0FFDCCE01FF
:102FB00060E046E0FBDCCE0160E04CE0F7DC81E065
:102FC0008093E902DF91CF9108951F920F920FB67F
:102FD0000F920BB60F9211248F939F93EF93FF9351
:102FE000E5E2F0E08081816080839091F10380913F
:102FF000F203981779F09091F2039F5F9093F20398
:1030000080818E7F8083E1EFF2E0E90FF11D808106
:103010008EBD05C0ECE4F0E080818F778083FF9166
:10302000EF919F918F910F900BBE0F900FBE0F905D
:103030001F901895282F8091F103982F9F5F809102
:10304000F2039817C9F0F8948CB588236CF0789443
:10305000ECE4F0E0808180688083E5E2F0E080814C
:103060008E7F80832EBD0895E1EFF2E0E90FF11D20
:1030700020839093F103789408950F931F93CF9337
:10308000DF938C016115710539F0EB01F801819135
:103090008F01D0DF2197D1F7DF91CF911F910F9151
:1030A0000895EF92FF920F931F93CF93DF938C01BC
:1030B0000D5F1F4FC0E0D0E00F2EF1EFEF2EFF2489
:1030C000F02D8091F903882341F0F801808190E090
:1030D0000E94BF0980E20E947309F8018081F70114
:1030E00080832196C330D10519F00F5F1F4FE9CFC0
:1030F0008091F903882311F00E94A709DF91CF91F5
:103100001F910F91FF90EF9008958091F90388230C
:1031100031F089E693E00E9497090E94A709809107
:10312000EA02882311F584E68093EB028FEF9FEF8C
:103130009093ED028093EC021092EF021092EE0257
:103140001092F002E4E2F0E08081877F808380814A
:103150008760808383E58CBDE5E2F0E0808181605B
:1031600080831092F2031092F10381E08093EA02CF
:1031700008958F929F92AF92BF92CF92DF92EF927B
:10318000FF920F931F93DF93CF93CDB7DEB72897AE
:103190000FB6F894DEBF0FBECDBF5C017A016901A6
:1031A000FC018381861709F053C08091F9038823BD
:1031B00031F084E093E00E9497090E94A709C701BB
:1031C000B60149E00E94280A982E892EC701B6014F
:1031D00048E00E94280A082FC701B60141E00E947A
:1031E000280A182FC701B60146E00E94280A1123B9
:1031F00059F085E889839A828B820C83CE010196EF
:1032000064E070E03ADF09C084E889839A820B8326
:10321000CE01019663E070E030DF83E80BDFF5015B
:103220008581882391F000E010E0C701B60148E0F5
:103230000E94280A882349F0FDDE0F5F1F4FF50129
:10324000858190E00817190784F380E0F3DECDC094
:10325000062F10E0282F30E0C90101960817190742
:1032600009F077C08091F903882331F084E293E07C
:103270000E9497090E94A709C701B60141E00E9478
:10328000280A882EC701B60147E00E94280A982E16
:10329000C701B60140E10E94280A8C01C701B601AE
:1032A00040E10E94280A5C01C701B60141E00E948A
:1032B000280AF82E8091EB02981651F087E889834E
:1032C0009A82CE01019662E070E0D7DE9092EB0226
:1032D0008091EC029091ED020817190769F081E8DE
:1032E00089831B830A83CE01019663E070E0C5DE0B
:1032F0001093ED020093EC028091EE029091EF02A8
:10330000A816B90669F080E88983BB82AA82CE013B
:10331000019663E070E0B1DEB092EF02A092EE029F
:103320008091F002F81651F086E88983FA82CE0186
:10333000019662E070E0A1DEF092F002882009F4CC
:1033400054C082E88983CE01019661E070E095DE89
:103350004CC0C90102960817190791F58091F9032D
:10336000882331F08AE493E00E9497090E94A7091C
:1033700089E88983C701B60141E00E94280A88874D
:10338000C701B60149E00E94280A9B838A83C701CE
:10339000B60148E00E94280A8C83C701B60149E0C3
:1033A0000E94280A9E838D83C701B60148E00E94CF
:1033B000280A8F83CE01019668E070E05EDE15C0BA
:1033C0008091F903882389F089EE92E00E949709A1
:1033D000C8010E94DB098FE30E947309F501838114
:1033E00090E00E94DB090E94A70928960FB6F89486
:1033F000DEBF0FBECDBFCF91DF911F910F91FF9028
:10340000EF90DF90CF90BF90AF909F908F900895F6
:103410005F926F927F928F929F92AF92BF92CF9264
:10342000DF92EF92FF920F931F93CF93DF93EC0104
:103430004B013A018D81882309F4B5C0EE24DD24C7
:10344000FF24CC24C394AA24BB24A3940F2EF0E819
:103450005F2EF02D0F2D10E0C801880F991FFE017F
:10346000E80FF91F87810E940C02982F8E8180FF40
:1034700003C02C2D291B922F81FF2FC0992341F4CB
:10348000C801880F991FFE01E80FF91F108630C090
:10349000C801880F991FFE01E80FF91F9085992335
:1034A000F4F0992359F4809100049801220F331FFE
:1034B000FE01E20FF31F8F7780871AC0809100040E
:1034C000981B892F8F778B3098F0C801880F991F30
:1034D000FE01E80FF91F508602C0992349F0C5018B
:1034E00002C0880F991F0A95E2F7E82ADF2CD394CF
:1034F000F3948D81F81608F4ADCF4D2D823039F458
:10350000C401B30150E022E00E94FB0994C0843062
:1035100009F04AC085E0E816F9F08E1550F022E077
:10352000E21639F184E0E816D9F021E0E21699F5C7
:1035300010C088E0E81639F18E1520F026E0E2167A
:1035400051F513C089E0E81619F12AE0E21619F5E1
:1035500015C0DD24D3941FC0DD246894D1F81BC0AE
:103560000F2EF3E0DF2EF02D16C0DD246894D2F884
:1035700012C00F2EF5E0DF2EF02D0DC00F2EF6E05D
:10358000DF2EF02D08C00F2EF7E0DF2EF02D03C048
:10359000DD246894D3F8C401B3014D2D50E024E03C
:1035A0000E94FB0948C0DD248D2D90E001978330F7
:1035B000910591F1843091054CF48130910511F120
:1035C00082309105B4F4892B69F02EC085309105C5
:1035D00041F1853091054CF08630910579F00797DF
:1035E00019F515C0DD24D3941FC0DD246894D1F8EB
:1035F0001BC00F2EF3E0DF2EF02D16C0DD246894E3
:10360000D2F812C00F2EF5E0DF2EF02D0DC00F2ED8
:10361000F6E0DF2EF02D08C00F2EF7E0DF2EF02DA4
:1036200003C0DD246894D3F8C401B3014D2D50E0EC
:1036300024E00E94FB09DF91CF911F910F91FF9031
:10364000EF90DF90CF90BF90AF909F908F907F9042
:103650006F905F900895DF92EF92FF920F931F9308
:10366000CF93DF93EC018D81882391F1DD24ED2C44
:10367000FF24C701880F991FFE01E80FF91F8781FA
:10368000182F169516951695082F0770812F602F05
:1036900040E00E94570A8E8180FF08C0812F880F6A
:1036A000880F880F800F0E94D40207C0812F880FD7
:1036B000880F880F800F0E943B03C701880F991F56
:1036C000FE01E80FF91F1086D3948D81D81678F289
:1036D00081E08093F303DF91CF911F910F91FF90D1
:1036E000EF90DF900895FC01CB01BA014091F70300
:1036F0005091F8032091F5033091F60342235323B0
:1037000026810C94FB090F931F93DF93CF9300D076
:1037100000D0CDB7DEB78C01FC01848195819093F8
:103720000301809302011092FE031092FD03109298
:10373000F8031092F70381E090E0A0E0B0E006808B
:1037400004C0880F991FAA1FBB1F0A94D2F70197C4
:10375000A109B10989839A83AB83BC839093F60353
:103760008093F5038091F9038823F9F08EE893E0C4
:103770000E94970980910201909103010E94BF0964
:1037800086E893E00E949709F801868190E00E9404
:10379000BF098EE793E00E9497098091F50390910D
:1037A000F6030E94BF090E94A7090F900F900F9087
:1037B0000F90CF91DF911F910F9108952F923F921B
:1037C0004F925F926F927F928F929F92AF92BF9231
:1037D000CF92DF92EF92FF920F931F93CF93DF93DD
:1037E000282F392F161617060CF0E5C0F90140E016
:1037F00050E00F2EF0E7AF2EBB24F02D01EB10E0D0
:103800000F2EF3EBEF2EFF24F02D0F2EF5E0DF2E21
:10381000F02D0F2EF2E96F2E7724F02D0F2EF6E902
:103820004F2E5524F02D0F2EFFE62F2E3324F02D92
:103830000F2EF6E88F2E9924F02D0F2EFAE0CF2EC2
:10384000F02DDF014130510509F467C042305105C8
:1038500021F04115510509F0A7C08081813011F098
:103860009C2D01C09EE02181328120343105C1F0C0
:103870002134310538F42130310561F0283031052B
:1038800059F40CC081E02030380761F020503440FA
:1038900019F40AC021E009C020E007C022E005C0F9
:1038A00023E003C024E001C02D2D41155105D1F4C2
:1038B000E1011882892F8370A0E8B0E08C93892FF2
:1038C00090E08C709070880F991F822BC1E8D0E037
:1038D0008883A2E8B0E01C9283819481E4019983FB
:1038E000888362C0A1E7B0E01C92892F8370C0E991
:1038F000D0E08883892F90E08C709070880F991F9A
:10390000822BA1E9B0E08C93E3011882838194813A
:10391000D20111969C938E9347C08081813011F023
:103920009D2D01C097E0218132812034310509F1BC
:103930002134310550F428303105B9F020323105F9
:10394000B1F02130310579F40CC081E02030380726
:10395000A1F084E02030380791F02038310519F4C7
:103960000AC021E00DC020E00BC022E009C023E026
:1039700007C024E005C02D2D03C026E001C027E0CC
:10398000E5011882892F8370C0EBD0E08883892FEE
:1039900090E084709070880F991F822BE8018883D3
:1039A00013968C91D7018C934F5F5F4F35964617D6
:1039B00057070CF446CFDF91CF911F910F91FF90E5
:1039C000EF90DF90CF90BF90AF909F908F907F90BF
:1039D0006F905F904F903F902F900895EF92FF92DD
:1039E0000F931F93DF93CF9300D0CDB7DEB78C0139
:1039F000FC0184818230A8F5CB01BA0145810E9487
:103A0000280A9A838983F801268137812817390784
:103A100010F43A832983F80186819981F82EF91AE6
:103A20008091F903882399F08EEB93E00E94970927
:103A3000F801848190E00E94BF0985EB93E00E9429
:103A4000970989819A810E94BF090E94A709F801FC
:103A50008481882319F4F092B30058C0F092B40026
:103A600055C0CB01BA01F80145810E94280AF8012E
:103A7000468157814817590708F4CA017A01E81AA4
:103A8000F90A8091F903882391F08BEA93E00E9470
:103A90009709F801848190E00E94BF0982EA93E0CF
:103AA0000E949709C7010E94BF090E94A709F80157
:103AB00084818430C1F0853028F4823051F0833025
:103AC00029F50CC08630C9F0863090F08730F1F4CB
:103AD00019C0F0928900E092880018C0F0928B0023
:103AE000E0928A0013C0F0928D00E0928C000EC02C
:103AF000F0929900E092980009C0F0929B00E09249
:103B00009A0004C0F0929D00E0929C000F900F90EC
:103B1000CF91DF911F910F91FF90EF900895CF9378
:103B2000DF93EC018C81682F67708695869586956A
:103B300041E00E94570A8C818F3009F44BC08031DC
:103B400040F48D3059F18E30B8F58C3009F079C0E1
:103B500010C0853109F45AC0863120F4843109F04F
:103B600070C062C0863109F443C0893109F069C070
:103B70000AC01C82E0EBF0E08081806C80838E8143
:103B80008093B3005EC081E08C83E0EBF0E0808145
:103B9000806380838E818093B40053C082E08C83E5
:103BA000E0E8F0E08081806C80838E819F8190933B
:103BB00089008093880045C083E08C83E0E8F0E0D2
:103BC0008081806380838E819F8190938B0080931E
:103BD0008A0037C084E08C83E0E8F0E080818C606C
:103BE00080838E819F8190938D0080938C0029C06B
:103BF00085E08C83E0E9F0E08081806C80838E81B9
:103C00009F8190939900809398001BC086E08C83DD
:103C1000E0E9F0E08081806380838E819F819093D2
:103C20009B0080939A000DC087E08C83E0E9F0E070
:103C300080818C6080838E819F8190939D00809392
:103C40009C0081E08093F403DF91CF9108950F935E
:103C50001F93DF93CF93CDB7DEB7AC970FB6F89431
:103C6000DEBF0FBECDBFE9E0F4E0A1EFB0E021E19F
:103C700034E08C918193E217F307D9F7009109049E
:103C80008091F903882399F082E50E94730980915D
:103C90000A0490E00E94DB098EE20E947309809181
:103CA000090490E00E94DB0980E20E947309809180
:103CB0000A04853009F4B4C0863048F4813009F430
:103CC00049C0813070F0833009F07FC154C0883022
:103CD00009F44EC1893009F45EC1863009F075C11E
:103CE000CEC0003819F0023809F074C1809109047F
:103CF000803821F0823809F06AC108C0909103042D
:103D0000809104048823A9F0926013C080910D046F
:103D1000E9EEF0E080838091EB0090E09695879546
:103D2000929582958F7089279F708927982F91701F
:103D30001082A8EEB0E08C91877F8C93E1EFF0E0E9
:103D4000908310828C91982F9E7F9C938F778C9379
:103D500095D142C18091F903882369F08BEC93E0FF
:103D60000E9497098091090490E00E94BF0988ECA5
:103D700093E00E949709002319F0023009F02AC14C
:103D80008091090490E08F719070009721F0029764
:103D900009F01DC10FC080910B04813009F01CC1D6
:103DA0001092040480910A04833089F581E08093A5
:103DB00004042DC080910B04882349F580910D04E3
:103DC000282F277009F408C12093E9008091EB00A7
:103DD00080FF1DC080910A04833031F4EBEEF0E0E7
:103DE00080818062808313C0ABEEB0E08C918061F3
:103DF0008C9381E090E002C0880F991F2A95E2F72A
:103E0000EAEEF0E0808310828C9188608C931092AF
:103E1000E900E8EEF0E08081877F80832FD1DCC06D
:103E2000002309F0D7C000910B04E8EEF0E0808198
:103E3000877F808323D1E8EEF0E005C080910804FD
:103E4000882309F4C9C0808180FFF8CF0F7719F06B
:103E500083E080930804802F80688093E300809142
:103E6000F903882309F4B8C081E40E947309802F04
:103E700090E00E94DB0980E20E947309ADC0802FB0
:103E80008058823008F0A6C08091F9038823B1F0F1
:103E900084E40E9473090BE014E0F80180819181B1
:103EA00090700E94DB098EE20E947309F801818103
:103EB00090E00E94DB0980E20E94730980910B046C
:103EC00090910C04F3E08C3D9F07B1F583E08C8367
:103ED0008AE28B83DE0115969EE020E030E041E22D
:103EE000E92FF0E040935700849120FF03C08295B2
:103EF0008F709F5F8F70805D8A3308F0895F8C932D
:103F000011961C9211972F5F3F4F12962431310565
:103F100039F708EE10E0F8018081877F8083CE01B9
:103F200003966AE270E0D5D0F8018081982F9B7FDC
:103F300090838F77808350C060910D04AE014F5FF6
:103F40005F4F0E946608BC01009709F445C008EE67
:103F500010E0F8018081877F808389819A81B9D0C0
:103F6000F8018081982F9B7F90838F77808334C066
:103F7000003881F5E8EEF0E08081877F80838091D2
:103F800005048093F1008081982F9E7F90838F7726
:103F9000808374D021C00023E9F490910B04923007
:103FA000D8F4E8EEF0E08081877F80839093050469
:103FB00065D080910504882311F483E001C084E07A
:103FC000809308040E944A0407C080E001C081E099
:103FD000882311F40E9430058091E80083FF0AC015
:103FE000EBEEF0E0808180628083E8EEF0E080819B
:103FF000877F8083AC960FB6F894DEBF0FBECDBF2F
:10400000CF91DF911F910F9108958093E900EBEE1E
:10401000F0E0808181608083EDEEF0E010826093BB
:10402000EC0040838091EE008823881F8827881F3A
:1040300008950F931F93CF93DF931092F40020E025
:1040400069EE70E040EF50E008EE10E0ADEEB0E059
:10405000EBEEF0E0EB012883EA011882E801188218
:104060008C918D7F8C9380818E7F80832F5F273012
:1040700089F7DF91CF911F910F91089580910904E5
:104080008823CCF405C080910804882319F408958E
:10409000E8EEF0E0808182FFF6CFE8EEF0E080818C
:1040A000982F9B7F90838F77808308958091080459
:1040B000882319F40895E8EEF0E0808180FFF6CFC0
:1040C000E8EEF0E08081982F9E7F90838F77808349
:1040D0000895CF92DF92FF920F931F93CF93DF93B8
:1040E000282F392F80910F0490911004861797077D
:1040F00010F4BC010BC06115710541F4E8EEF0E06D
:104100008081982F9E7F90838F778083D90140E0B4
:10411000E8EEF0E002EF10E050E0FF24F3940F2E01
:10412000F1EFCF2EDD24F02D30C0808183FF02C05F
:1041300081E03EC0808182FD33C0809108048823E5
:10414000B1F1808180FF21C0E801288139816115AA
:10415000710581F02034310568F48D91E601888382
:10416000615070402F5F3F4F6115710519F0203489
:10417000310598F3452F2034310509F44F2D808106
:10418000982F9E7F90838F7780836115710569F6E4
:10419000442359F605C080910804882319F407C008
:1041A000E8EEF0E0808182FFF6CF80E001C082E09F
:1041B000DF91CF911F910F91FF90DF90CF900895E5
:1041C00070D077D010920804109205041092040465
:1041D000109203048091060482FD0AC0E9E4F0E035
:1041E0008CE08083808182608083808180FFFDCF2E
:1041F000E8EDF0E08081982F9F779083806880833E
:104200008091060481FD06C0E7EDF0E080818160C9
:10421000808305C0E7EDF0E080818E7F8083E8ED4C
:10422000F0E080818F7D80838091060480FF06C04E
:10423000E0EEF0E080818460808305C0E0EEF0E095
:1042400080818B7F8083E0EEF0E080818E7F8083B1
:10425000A1EEB0E08C918E7F8C93E2EEF0E0808155
:10426000816080838C91877F8C938081886080833C
:10427000E8EDF0E0808181608083089580930604FA
:10428000E7EDF0E08081806880839ADFE8EDF0E080
:1042900080818061808381E0809307047894089511
:1042A0000895E8EDF0E080818C7F80831092E20039
:1042B00008951092DA001092E10008951F920F9273
:1042C0000FB60F920BB60F9211242F933F934F937B
:1042D0005F936F937F938F939F93AF93BF93EF936E
:1042E000FF938091DA0080FF17C08091D80080FF93
:1042F00013C0EAEDF0E080818E7F80838091D90049
:1043000080FF06C081E0809308040E94490404C035
:10431000109208040E9447048091E10080FF1EC0B3
:104320008091E20080FF1AC0E1EEF0E080818E7F94
:104330008083E2EEF0E080818E7F808380818061E7
:104340008083E8EDF0E080818062808380910604C4
:1043500082FF19BC85E080930804A2DF8091E10010
:1043600084FF2EC08091E20084FF2AC08091060461
:1043700082FD0AC0E9E4F0E08CE080838081826005
:104380008083808180FFFDCFE8EDF0E080818F7D2C
:104390008083E1EEF0E080818F7E8083E2EEF0E0CA
:1043A00080818F7E808380818160808380910504FD
:1043B000882311F483E001C084E08093080470DF57
:1043C0008091E10083FF1FC08091E20083FF1BC04A
:1043D000E1EEF0E08081877F808382E080930804B3
:1043E0001092050480818E7F8083E2EEF0E0808170
:1043F0008E7F80838081806180831BDE80E060E02F
:1044000042E303DE4DDF8091E10082FF0BC080912B
:10441000E20082FF07C0E1EEF0E080818B7F8083C5
:104420000E944804FF91EF91BF91AF919F918F91AE
:104430007F916F915F914F913F912F910F900BBEA4
:104440000F900FBE0F901F9018951F938091080436
:10445000882369F0E9EEF0E0108110828091E80095
:1044600083FF01C0F4DB812F87708093E9001F91E7
:104470000895AA1BBB1B51E107C0AA1FBB1FA617AB
:10448000B70710F0A61BB70B881F991F5A95A9F7FD
:0E44900080959095BC01CD010895F894FFCF62
:04449E0000F0FFFF2C
:00000001FF
