:1000000021C200000C94C9120C94C9120C94C9129C
:100010000C94C9120C94C9120C94C9120C94C912F4
:100020000C94C9120C94C9120C94962329C2000096
:1000300027C2000025C2000023C2000021C2000028
:100040001FC200001DC200001BC2000019C2000038
:1000500017C20000FBC3000013C2000011C2000061
:100060000C94F3190DC200000C94C70909C20000DA
:1000700007C200000C94BD0D03C2000001C20000C5
:10008000FFC10000FDC10000FBC10000F9C100007C
:10009000F7C10000F5C100000D0A436F6E6E656385
:1000A000740D0A000D0A446973636F6E6E656374A4
:1000B0000D0A003F0D0A0053757370656E64656428
:1000C0000D0A00436F6E666967757265640D0A00FC
:1000D0004164647265737365640D0A00446566610A
:1000E000756C740D0A00506F77657265640D0A00B7
:1000F000556E61747461636865640D0A000D0A438E
:10010000666743686720004745545F49444C450093
:100110005345545F49444C45005345545F50524F3A
:10012000544F434F4C004745545F50524F544F4338
:100130004F4C005345545F49444C45002C002C0063
:100140002C004745545F5245504F52543D002C00FF
:100150005543503D00506F7765723D5000290D0AA0
:1001600000555342204849442076312E3020496EB4
:10017000697469616C6973656420280042797465EB
:1001800073546F526561643D0052656365697665BD
:10019000642000496E697469616C69736174696F88
:1001A0006E20436F6D706C6574650D0A00496E6951
:1001B0007469616C6973696E670D0A0053746172CA
:1001C00074696E6720426F6F746C6F616465720D45
:1001D0000A0050726F63657373696E67204F7574A0
:1001E000707574205265706F72740D0A0020005291
:1001F00065706F7274200020004849442000200080
:10020000200053747220002000436F6E66696720DF
:100210000020004465762000476F7420756E657875
:10022000706563746564207479706520696E204917
:100230006E6974436F6E74726F6C73202D2030780A
:1002400000506F74656E74696F6D657465722066B9
:100250006F756E64206F6E2077726F6E6720706F9F
:100260007274202D20506F72743D307800496E6991
:10027000745377697463680D0A002C00506F7274B0
:100280002000476F74204C454420537461746520EE
:1002900000496E69744C45440D0A00476F74204252
:1002A00069636F6C6F75724C45442053746174655B
:1002B0002000476F7420547269636F6C6F75724CC5
:1002C000454420537461746520004C434420556EAE
:1002D0006B6E6F776E207265706F72742069642028
:1002E000004C4344204F7574707574205265706FD4
:1002F0007274004C434420466F6E74205265706FD8
:100300007274002044373D002044363D00204435BF
:100310003D002044343D0020453D002052573D0023
:1003200052533D00496E697469616C6973696E6707
:100330002038626974204C43440D0A00496E697488
:1003400069616C6973696E672034626974204C431B
:10035000440D0A004C43445F53504920556E6B6E68
:100360006F776E207265706F727420696420004C24
:1003700043445F53504920436861726163746572FE
:10038000204F7574707574205265706F7274004CD4
:1003900043445F53504920446973706C6179206312
:1003A0006F6E74726F6C204F757470757420526527
:1003B000706F7274004C43445F5350492044726123
:1003C0007752656374204F75747075742052657030
:1003D0006F7274004C43445F53504920496E6974F6
:1003E00069616C6973696E67002C204D61736B3DA8
:1003F000002C20426974733D00496E6974436F7527
:100400006E74657220506572696F643D002C2056D1
:10041000616C75653D0050574D20506F72743D0002
:100420002C2056616C75653D0050574D20506F7201
:10043000743D000D0A00436C656172466561747518
:1004400072653D0011241FBECFEFD0E2DEBFCDBFED
:1004500011E0A0E0B1E0E6E2F9E400E00BBF02C089
:1004600007900D92A430B107D9F714E0A4E0B1E0F1
:1004700001C01D92A931B107E1F741D40C94912438
:10048000BFCDE82FFF27EE0FEE0F8827E75BFD4F6C
:100490000994009981E008950000019981E0089590
:1004A0000000029981E008950000039981E0089519
:1004B0000000049981E008950000059981E0089505
:1004C0000000069981E008950000079981E00895F1
:1004D0000000189981E008950000199981E00895BD
:1004E00000001A9981E0089500001B9981E00895A9
:1004F00000001C9981E0089500001D9981E0089595
:1005000000001E9981E0089500001F9981E0089580
:100510000000309981E008950000319981E008954C
:100520000000329981E008950000339981E0089538
:100530000000349981E008950000359981E0089524
:100540000000369981E008950000379981E0089510
:100550000000489981E008950000499981E00895DC
:1005600000004A9981E0089500004B9981E00895C8
:1005700000004C9981E0089500004D9981E00895B4
:1005800000004E9981E0089500004F9981E00895A0
:100590000000609981E008950000619981E008956C
:1005A0000000629981E008950000639981E0089558
:1005B0000000649981E008950000659981E0089544
:1005C0000000669981E008950000679981E0089530
:1005D0000000789981E008950000799981E00895FC
:1005E00000007A9981E0089500007B9981E00895E8
:1005F00000007C9981E0089500007D9981E00895D4
:1006000000007E9981E0089500007F9981E00895BF
:100610000000E82FFF27EE0F8827E05FFC4F0994CA
:10062000109A0895119A0895129A0895139A0895A8
:10063000149A0895159A0895169A0895179A089588
:10064000289A0895299A08952A9A08952B9A089528
:100650002C9A08952D9A08952E9A08952F9A089508
:10066000409A0895419A0895429A0895439A0895A8
:10067000449A0895459A0895469A0895479A089588
:10068000589A0895599A08955A9A08955B9A089528
:100690005C9A08955D9A08955E9A08955F9A089508
:1006A000709A0895719A0895729A0895739A0895A8
:1006B000749A0895759A0895769A0895779A089588
:1006C000889A0895899A08958A9A08958B9A089528
:1006D0008C9A08958D9A08958E9A08958F9A089508
:1006E000E82FFF27EE0F8827E958FC4F0994109850
:1006F00008951198089512980895139808951498DC
:1007000008951598089516980895179808952898AB
:100710000895299808952A9808952B9808952C985B
:1007200008952D9808952E9808952F98089540982B
:1007300008954198089542980895439808954498DB
:1007400008954598089546980895479808955898AB
:100750000895599808955A9808955B9808955C985B
:1007600008955D9808955E9808955F98089570982B
:1007700008957198089572980895739808957498DB
:1007800008957598089576980895779808958898AB
:100790000895899808958A9808958B9808958C985B
:1007A00008958D9808958E9808958F980895FB0167
:1007B000DC0102C005900D9241505040D8F70895D9
:1007C000FB01DC0104C08D910190801921F441509E
:1007D0005040C8F7881B990B0895FB01DC0102C04B
:1007E00001900D9241505040D8F70895FB019F01B0
:1007F000E8944230C4F04532B4F44A3029F497FB0F
:100800001EF4909581959F4F642F77270E947D2439
:10081000805D8A330CF0895D8193CB010097A1F74D
:1008200016F45DE251931082C90100C0DC01FC01A5
:10083000672F71917723E1F7329704C07C916D9314
:1008400070836291AE17BF07C8F308951F920F928D
:100850000FB60F9211242F933F938F939F93809104
:10086000090490910A04019690930A048093090464
:10087000809107048F5F8093070480910204909118
:100880000304019690930304809302048091020470
:1008900090910304885E934031F18091040490911B
:1008A00005040196909305048093040420910201AD
:1008B000309103018217930768F08091FF039091B4
:1008C00000040196909300048093FF0310920504A6
:1008D000109204049F918F913F912F910F900FBE22
:1008E0000F901F901895809106048F5F80930604E7
:1008F0001092030410920204D0CF0895809108044E
:10090000882309F4089588E990E09DC5E0910701E6
:10091000F091080180818F3F09F07BDE809108040F
:10092000882309F4089584EA90E08DC58091080435
:10093000882379F581E061EC46E30E94DE2182E0C4
:1009400060EC46E30E94DE218091E20084608093A7
:10095000E20080910B01882349F0982F81FF04C0A9
:100960008BB18F7C80628BB992FD0EC0E091070144
:10097000F0910801E081EF3F31F080911004843064
:10098000D9F08E2F46CE08958BB18F7380648BB9CA
:10099000EDCF8DEF90E057D580911004823031F18A
:1009A000833060F08430F1F08430A0F0853071F451
:1009B00087EB90E048D5BECF8E2F92CE882321F4CE
:1009C00080EF90E040D5B6CF813041F083EB90E0EE
:1009D0003AD5B0CF80ED90E036D5ACCF86EE90E042
:1009E00032D5A8CF83EC90E02ED5A4CF8CED90E04B
:1009F0002AD5A0CFEF92FF921F93DF93CF93CDB76D
:100A0000DEB7C154D0400FB6F894DEBF0FBECDBFE5
:100A1000182F19826091090170910A0182E0E82E75
:100A2000F12CEC0EFD1E81E0A7019E012F5F3F4FD0
:100A300068D78091090490910A0420910E013091A9
:100A40000F01821B930BC39708F05BC0112309F4BD
:100A50004AC080911004882309F445C091E0909326
:100A6000E9008091E80085FF3EC08091E80080FFAA
:100A70003AC09093F100909108049B3008F050C068
:100A800089818823A9F010E004C01F5F89811817AD
:100A900078F4F701E10FF11D80818093F1009B3024
:100AA000A0F390E0F8D480E2ABD490910804EDCFAD
:100AB0009B3008F03DC08091E800982F9E7F909376
:100AC000E8008F778093E80027E531E04981C9018C
:100AD000B70150E082DE8091090490910A0490935E
:100AE0000F0180930E0180E0CF5BDF4F0FB6F894CB
:100AF000DEBF0FBECDBFCF91DF911F91FF90EF9072
:100B000008954981C70167E571E050E059DE00971B
:100B100009F49CCF80911004882309F09FCFE3CF84
:100B200081E090E0B8D480E26BD490910804A8CF23
:100B30009AD4C1CFEF92FF920F931F93CF93DF937D
:100B40008091E80083FF1BC08091150490911604EA
:100B5000892BA9F4109112040091110480910804CA
:100B60008B3028F5133009F483C0143078F01A3034
:100B700009F46FC01B3009F462C0193041F1DF91F4
:100B8000CF911F910F91FF90EF900895113061F177
:100B90001230A9F780911104813A89F780910804F5
:100BA0008B3068F387E091E04ED45DD4E8CF80E5E8
:100BB00091E049D4812F90E06ED48EE491E043D44B
:100BC000802F90E068D44FD410911204CBCF809145
:100BD00011048132A1F6809108048B3080F283E306
:100BE00091E031D440D4CBCF013A09F0C8CF809105
:100BF000E800877F8093E8000091130410911404AB
:100C00001150C0911504D0911604E0901704F09093
:100C10001804809108048B30A8F5123009F44AC0FA
:100C2000112319F4013009F45DC08091E800982F78
:100C30009E7F9093E8008F778093E800A0CF80910B
:100C400008048B3008F49BCF89E191E0FCD30BD4EE
:100C500096CF80911104813209F091CF80910804E0
:100C60008B3008F48CCF80E191E0EDD3FCD387CFBB
:100C7000809108048B3008F482CF86E291E0E3D3C0
:100C8000F2D37DCF82E491E0DED3812F90E003D4D4
:100C900080E491E0D8D3802F90E0FDD38EE391E003
:100CA000D2D3CE01F8D38CE391E0CDD3C701F3D3F7
:100CB000DAD3B3CF6091090170910A01802F38D542
:100CC0008091E800982F9E7F9093E8008F77809323
:100CD000E8008091E80082FD08C08091100488231C
:100CE000C1F74DCF81E086DE4ACF8091E800982F92
:100CF0009B7F9093E8008F778093E80040CFFF922E
:100D00000F931F9384B7A89594B7977F94BF98E1EA
:100D10000FB6F89490936000109260000FBE14BE5E
:100D2000082F83FF2AC0F999FECF8FEF9FE092BD75
:100D300081BDF89A80B5882301F5F999FECF1FBAD5
:100D40008FEF9FE092BD81BD8FEF80BD0FB6F8940D
:100D5000FA9AF99A0FBE20E030E048EC50E0CA0160
:100D60000197F1F72F5F3F4F82E02C363807B9F734
:100D7000E0910001F09101010995F999FECF1FBAA8
:100D80008FEF9FE092BD81BD8FEF80BD0FB6F894CD
:100D9000FA9AF99A0FBE8091610080930D01F89440
:100DA00080E88093610010926100E0E0F0EE4591F0
:100DB000549189E194E060E070EEF9DCE0912D045B
:100DC000F0912E04E75EFB4FF0930801E0930701DA
:100DD0001181812F867080930B018281809308049A
:100DE0007296F0935401E09353017496F0930A01C4
:100DF000E0930901B69710921101109256011092DA
:100E00000C0110920F0110920E01109210016081DE
:100E10006F3F69F0862F869586958695677041E0CD
:100E2000DBD3E0910701F09108018081F2DB1092A1
:100E30000304109202041092060410920704109208
:100E40000A041092090482E084BD83E085BD8DE729
:100E500087BD80916E00826080936E0080E88093F1
:100E600064001092B60080910701909108010396EA
:100E700063E070E00E94B61D80910B018823E1F0D1
:100E800090E09C0124703070AC014270507081FF82
:100E900003C08AB180638AB92115310519F08AB17E
:100EA000806C8AB9452B19F08BB180638BB9232BE9
:100EB00019F08BB1806C8BB920910804222309F0C2
:100EC0005BC17894222309F02FC180910B01882304
:100ED00069F0982F81FF04C08BB18F7C80618BB942
:100EE00092FF04C08BB18F7380688BB980E00E9441
:100EF000762302E0FF24F3940E9469248091100479
:100F00008430D1F780910C018823A9F480910804E2
:100F1000882319F08DEA91E096D280910901909191
:100F20000A01B7D5F0920C0180910804882319F0CA
:100F300083E991E088D220910501309106012F5F6D
:100F40003F4F309306012093050190910604809154
:100F50000401891769F0809106048093040180914F
:100F60000804882309F0D5C01092060110920501EB
:100F70008091090490910A0420910E0130910F0193
:100F8000821B930B895E934010F0F09210018091C8
:100F9000100130DD882311F4109210010093E90054
:100FA0008091E80082FFA8CF209108042B3028F020
:100FB00089E891E048D2209108048091F200909154
:100FC000F300892B89F11091F1002B3008F06AC0F1
:100FD000809156018823B1F5812F8150833108F02B
:100FE00069C010931201F0921101E0915301F09148
:100FF0005401E10FF11D31978081809355012B3011
:1010000058F08CE791E01FD28091550190E043D2D7
:1010100080E2F6D120910804F09256018091F2000E
:101020009091F300892B79F68091E800982F9B7FAF
:101030009093E8008F778093E8002B3008F45CCF22
:1010400012D25ACF813009F0B8CF80911101E82F28
:10105000F0E0EE5EFE4F10838F5F80931101809170
:101060005501815080935501882309F0A6CF2B307C
:1010700018F082ED91E0E7D180911201833021F5E3
:101080008091130190911401A0911501B091160166
:101090008F5D904FAD40BF4DF9F0109256012091F9
:1010A00008048BCF812F90E0F6D180E2A9D1209166
:1010B00008048ECF8091E800982F9B7F9093E800E2
:1010C0008F778093E80079CF6091090170910A01D0
:1010D00043E151E059D3E1CF809108048823E9F43A
:1010E000F999FECF1FBA8FEF9FE092BD81BD10BC72
:1010F0000FB6F894FA9AF99A0FBE28E088E190E0CA
:101100000FB6F894A895809360000FBE20936000FE
:10111000FFCFC901DCD1A7D127CF8CEB91E093D1D0
:1011200063D18823E9F3DCCF81E691E08CD1802F75
:1011300090E0B1D18DE591E086D1E0910701F09189
:10114000080180818F3F09F4C0CE85E591E07BD115
:10115000E0910701F091080180818695869586953A
:101160008F5B4ED1E0910701F0910801808187707B
:10117000805D46D178D1A9CE8CE090E078D12091E5
:1011800008049FCEAF92BF92CF92DF92EF92FF9270
:101190000F931F93CF93DF935A01933009F4CFC07D
:1011A000943008F1913209F484C0923209F442C0BB
:1011B00000E010E0EE24FF2480910804853120F047
:1011C000E114F10409F059C0F50111830083C7014E
:1011D000DF91CF911F910F91FF90EF90DF90CF9013
:1011E000BF90AF900895913009F486C0923001F716
:1011F0000091250410912604075E1B4FE090270400
:10120000F0902804809108048B30C0F289E092E0CD
:101210001AD1809125049091260459D187E092E05B
:1012200012D1809127049091280451D11CD1809132
:101230000804C4CF00911D0410911E04075E1B4FCB
:10124000E0901F04F0902004809108048B3008F493
:10125000B5CF8FEE91E0F7D080911D0490911E04E0
:1012600036D18DEE91E0EFD080911F049091200453
:101270002ED1F9D080910804A1CFC0E0D0E080E069
:1012800090E00DC0F801EC0FFD1F808190E003D1CC
:1012900080E2B6D02196CE01CE15DF0540F48F70E6
:1012A0009070892B79F7209769F3DDD0EBCFDBD0F5
:1012B0008BCF0091290410912A04075E1B4FE09008
:1012C0002B04F0902C04809108048B3008F476CF26
:1012D00089EF91E0B8D08091290490912A04F7D049
:1012E00087EF91E0B0D080912B0490912C04EFD047
:1012F000BAD08091080462CF009121041091220499
:10130000075E1B4FE0902304F090240480910804B2
:101310008B3008F453CF83E192E095D08091210483
:1013200090912204D4D081E192E08DD08091230469
:1013300090912404CCD097D0809108043FCFC82E40
:10134000DD24E601CC0FDD1FC75EDB4F0E891F8950
:10135000075E1B4FF8018081E82EFF24809108046E
:101360008B3008F42BCF82E092E06DD0C601AFD075
:1013700080E092E068D08E899F89A9D08EEF91E0BD
:1013800062D0C701A4D06FD08091080417CF1F92FC
:101390000F920FB60F920BB60F9211248F939F935B
:1013A000EF93FF9390919702809198029817B1F074
:1013B000E0919802EF5FE0939802F0E0E956FE4F6B
:1013C00080818093CE00FF91EF919F918F910F903C
:1013D0000BBE0F900FBE0F901F9018958091C90003
:1013E0008F7D8093C900EFCF9091970280919802F2
:1013F00020E0981711F0822F089521E0822F0895A0
:10140000282F909197029F5F809198029817E1F39F
:10141000E92FF0E0E956FE4F2083909397028091E8
:10142000C90080628093C9000895CF93DF93EC01D7
:101430008881882329F0E4DF219688818823D9F7E1
:10144000DF91CF910895CF93DF93EC01FC0184915C
:10145000882331F0D5DF2196FE0184918823D1F7CE
:10146000DF91CF9108958DE0CBDF8AE0C9CF109254
:101470009802109297029093CD008093CC00109226
:10148000C800E9ECF0E0108286E08093CA00808119
:101490008860808308950F931F93DF93CF9300D0CC
:1014A00000D00F92CDB7DEB78E010F5F1F4FB8018E
:1014B00040E150E09BD9C801B8DF0F900F900F902A
:1014C0000F900F90CF91DF911F910F9108950F937F
:1014D0001F93DF93CF93CDB7DEB727970FB6F8945E
:1014E000DEBF0FBECDBF8E010F5F1F4FB8014AE0B8
:1014F00050E07CD9C80199DF27960FB6F894DEBF7B
:101500000FBECDBFCF91DF911F910F910895EF9244
:10151000FF920F931F93CF93DF937C018B01DC012C
:10152000ED91FC91EB01A8812223D1F061E070E004
:1015300030E00FC0BA2FAA0FCB0184239523892B4B
:1015400019F080818B2B80833F5F321748F4660F40
:10155000771FAA2379F731961082B1E0A2E0ECCF91
:10156000E701F983E883F801A083DF91CF911F9110
:101570000F91FF90EF9008950F931F93CF93DF93F8
:10158000EC018B01E881F981DB015C914423C1F01E
:10159000A0E0B0E061E070E030E00CC0252F550F16
:1015A0008081282311F0A62BB72B3F5F341750F40E
:1015B000660F771F552391F7319621E052E0F0CF67
:1015C000A0E0B0E0F983E883F8015083CD01DF911A
:1015D000CF911F910F910895823009F454C0833048
:1015E00098F0843009F442C0843008F5442309F4AB
:1015F00064C02AB181E090E002C0880F991F6A950B
:10160000E2F7282B2AB90895882371F4442309F4BA
:1016100048C021B181E090E002C0880F991F6A950F
:10162000E2F7282B21B90895813091F00895853093
:10163000E9F7442309F071C020B381E090E002C0D3
:10164000880F991F6A95E2F78095822380BB0895E1
:10165000442309F44AC024B181E090E002C0880F1D
:10166000991F6A95E2F7282B24B90895442389F13C
:101670002DB181E090E002C0880F991F6A95E2F7D2
:10168000282B2DB90895442309F43BC027B181E0EC
:1016900090E002C0880F991F6A95E2F7282B27B9BE
:1016A000089521B181E090E002C0880F991F6A95EA
:1016B000E2F78095822381B908952AB181E090E014
:1016C00002C0880F991F6A95E2F7809582238AB934
:1016D00008952DB181E090E002C0880F991F6A95AE
:1016E000E2F7809582238DB9089524B181E090E0DE
:1016F00002C0880F991F6A95E2F78095822384B90A
:10170000089527B181E090E002C0880F991F6A9583
:10171000E2F78095822387B9089520B381E090E0B5
:1017200002C0880F991F6A95E2F7282B20BB089505
:101730001F93CF93DF93182FEB018881882361F4E7
:101740001FC08F3019F4CE010E944F1A8981C80F33
:10175000D11D88818823A1F08B81811729F018176A
:10176000A8F38A81811790F38881893051F7CE01DF
:101770000E9407168981C80FD11D8881882361F7CF
:10178000DF91CF911F910895AF92BF92CF92DF92D8
:10179000FF920F931F93DF93CF9300D00F92CDB79B
:1017A000DEB7F82E8B015B834A8381E08983FB01DE
:1017B0008081882349F122E0A22EB12CAC0EBD1EFF
:1017C0006E010894C11CD11CF80183818F1529F08A
:1017D000F81690F082818F1578F0F80180818930B9
:1017E00009F461C08A3058F5873009F47BC088302D
:1017F00008F069C08630A9F0F8018181080F111D39
:10180000F8018081882301F70F900F900F90CF91FE
:10181000DF911F910F91FF90DF90CF90BF90AF901D
:101820000895C801B501A6010E942114F801818123
:10183000080F111DF8018081882331F6E5CF8E3025
:1018400019F18F3089F08D30B9F6C801B501A601C4
:101850000E948F1EF8018181080F111DF8018081FF
:10186000882309F0B1CFD0CFC8016F2DA501960113
:101870000E94C71AF8018181080F111DF8018081AB
:10188000882309F0A1CFC0CFC801B501A6010E94ED
:10189000A415F8018181080F111DF80180818823AA
:1018A00009F092CFB1CFC8016F2DA50196010E941A
:1018B000DB17F8018181080F111DF8018081882351
:1018C00009F082CFA1CFC801B501A6010E940B1576
:1018D000F8018181080F111DF8018081882309F02A
:1018E00073CF92CFC801B501A6010E948B14F801F5
:1018F0008181080F111DF8018081882309F064CFD0
:1019000083CF6F927F928F929F92AF92BF92CF922E
:10191000DF92FF920F931F93DF93CF9300D00F922C
:10192000CDB7DEB7F82E8B014A0139015B834A83BC
:1019300081E08983FA011082FB018081882349F1CB
:1019400032E0A32EB12CAC0EBD1E6E010894C11C5A
:10195000D11CF80183818F1529F0F81690F082814F
:101960008F1578F0F8018081843009F468C08530E3
:10197000A0F5823009F47FC0833008F06EC081305A
:10198000F1F0F8018181080F111DF8018081882391
:1019900001F78A818F5F8819F30180830F900F9080
:1019A0000F90CF91DF911F910F91FF90DF90CF901B
:1019B000BF90AF909F908F907F906F900895C801D7
:1019C000B501A60146D1F8018181080F111DF8016A
:1019D0008081882309F0BDCFDCCF8A3009F18B30BC
:1019E00081F0853071F6C801B501A601A8D6F801CD
:1019F0008181080F111DF8018081882309F0A9CF8A
:101A0000C8CFC801B501A6010E944B1DF801818114
:101A1000080F111DF8018081882309F09ACFB9CFF2
:101A2000C801B501A6010E941D1CF8018181080FA3
:101A3000111DF8018081882309F08BCFAACFC8013E
:101A4000B501A601FAD3F8018181080F111DF80133
:101A50008081882309F07DCF9CCFC801B501A60104
:101A6000D4D1F8018181080F111DF80180818823EC
:101A700009F06FCF8ECFC801B501A6015CD1F80186
:101A80008181080F111DF8018081882309F061CF41
:101A900080CFCF93DF93EC0188818823A9F08881E0
:101AA000873051F1883098F4833009F447C084308E
:101AB000A0F5813009F448C0823009F442C0809119
:101AC0000804882309F04FC0DF91CF9108958B302F
:101AD00009F445C08C30B8F4893009F43CC08A3030
:101AE00070F4CE01EDD78981C80FD11D888188237C
:101AF00059F388818730B1F6CE015CD7F4CFCE019F
:101B00000E94041DF0CF8E3011F18F3099F08D308E
:101B1000B1F6CE010E94421FE6CF853041F08630FB
:101B200018F0CE01C4D6DFCFCE0150D4DCCFCE0129
:101B30001BD6D9CFCE010E949A1AD5CFCE01FED2A4
:101B4000D2CFCE0137D1CFCFCE01ABD0CCCFCE01CB
:101B50000E94E915C8CFCE010E940719C4CFCE015B
:101B60000E945B1DC0CF88E192E06DDC888190E02F
:101B700092DC79DCDF91CF9108951F920F920FB61E
:101B80000F920BB60F9211242F933F934F935F93B5
:101B90008F939F93EF93FF9340917800509179003A
:101BA0008091B2029091B302480F591F5093B30233
:101BB0004093B2028091B4028F5F8093B40284306C
:101BC00079F0FF91EF919F918F915F914F913F91AC
:101BD0002F910F900BBE0F900FBE0F901F90189576
:101BE00030917C0037703F5F232F2770315002C047
:101BF0002F5F2770822F90E0FC01EE0FFF1FE80F90
:101C0000F91FE656FD4F8081882391F380917A0079
:101C10008F7380937A00206420937C0080917A00F7
:101C2000806C80937A00832F90E0FC01EE0FFF1F01
:101C3000E80FF91FE656FD4F56954795569547957F
:101C4000528341831092B4021092B3021092B202F6
:101C5000B8CFCF93DF93DC01EA01F89414968C910E
:101C6000149790E087709070FC01EE0FFF1FE80F53
:101C7000F91FE656FD4F41815281789415962C91BB
:101C80002A3049F08AE090E0821B910902C0569503
:101C900047958A95E2F7CB01BE0139DCDF91CF9100
:101CA0000895CF93DF93EC01909199029923D9F194
:101CB000EC818E2F869586958695853051F52E2F51
:101CC00030E027703070F901EE0FFF1FE20FF31FB5
:101CD000E656FD4F81E08083992331F081E08093C7
:101CE0009902DF91CF9108951092B4021092B3023D
:101CF0001092B202822F806480937C008EE28093E7
:101D00007A0010927B0080917A00806C80937A0038
:101D1000E5CF81E492E097DB8C8190E0BCDBA3DB34
:101D2000DF91CF91089588E1EAE9F2E0DF011D92A9
:101D30008A95E9F7BDCFEF92FF920F931F93CF9350
:101D4000DF93EC018B017A018C810E944102482FC4
:101D50008D81982F80FF03C081E0841B482F91FF65
:101D60000FC04423C9F09E8197FD0AC09923C1F09A
:101D700080910704981B9F779B30C8F080E88E8382
:101D800050E0C801B70121E0C2DBDF91CF911F9184
:101D90000F91FF90EF9008951E8240E050E0F1CF48
:101DA000809107048F778E8340E050E0EACF40E0D7
:101DB00050E0E7CF0F931F93CF93DF93EC01809117
:101DC00008048823F1F48C81182F16951695169522
:101DD000082F0770812F602F40E0FEDB8D8180FF90
:101DE00007C0110F110F110F812F800F0E940903DF
:101DF0001E8281E08093B502DF91CF911F910F91F8
:101E000008958DE692E01FDBDECF4F925F926F92D6
:101E10007F929F92AF92BF92CF92DF92EF92FF920A
:101E20000F931F93CF93DF937C013B012A01DC01C9
:101E300016968C91282F2170382F3270982F94701D
:101E400082FF3FC09924D70114968C918823F1F02A
:101E50002223D1F5332309F055C0992309F41EC17B
:101E600010E0812F90E0EC01CC0FDD1FC80FD91FCF
:101E7000CE0DDF1D88850E944102882311F08985DF
:101E8000982A1F5FF7018481181758F3D701179616
:101E90009C921797C301B201492D50E015962C91E1
:101EA00036DBDF91CF911F910F91FF90EF90DF9084
:101EB000CF90BF90AF909F907F906F905F904F902A
:101EC0000895F7019780BFCF332309F052C09923BB
:101ED00009F4C7C010E0812F90E0EC01CC0FDD1FAA
:101EE000C80FD91FCE0DDF1D88850E9441028130A9
:101EF00011F08985982A1F5FD70114968C911817C5
:101F000050F3C4CF992309F4E7C0BB2470E8A72E8F
:101F100008C01A86B394D70114968C91B81608F0AD
:101F2000B5CF0B2D10E06801CC0CDD1CE601C00F15
:101F3000D11FCE0DDF1D88850E944102882349F301
:101F40009A8597FD0EC0992329F4809107048F7715
:101F50008A87E0CF80910704981B9F779B30D0F24F
:101F6000AA860C0D1D1D0E0D1F1DF8018185982AD6
:101F7000D1CF9923E9F1DD2420E8C22E0D2D10E008
:101F80005801AA0CBB1CE501C00FD11FCE0DDF1DEF
:101F900088850E9441028130D1F09A8597FD09C061
:101FA0009923E1F080910704981B9F779B3048F0BC
:101FB000CA860A0D1B1D0E0D1F1DD80119968C9186
:101FC000982AD394F7018481D816C0F25FCF1A867D
:101FD000D394F7018481D81688F258CF80910704F2
:101FE0008F778A87D394F7018481D81638F24ECF41
:101FF000BB2408C0F8011286B394F7018481B81697
:1020000008F044CFCB2CDD24E601CC0FDD1F8E0180
:102010000C0D1D1D0E0D1F1DD80118968C910E94D0
:102020004102813039F3F8013A96D8011A969C9111
:102030001A9797FD10C0992331F4809107048F7788
:102040001A968C93D9CF80910704981B9F779B3069
:1020500098F280E88083CC0DDD1DCE0DDF1D9984C4
:1020600015CF10E006C01F5FF7018481181708F034
:102070000DCFC12EDD24E601CC0FDD1FFE01EC0DDE
:10208000FD1DEE0DFF1D80850E944102813059F338
:10209000CC0DDD1DCE0DDF1D9984F8CE10E007C0FC
:1020A0001F5FD70114968C91181708F0EFCEC12E40
:1020B000DD24E601CC0FDD1FFE01EC0DFD1DEE0D54
:1020C000FF1D80850E944102882351F3CC0DDD1D48
:1020D000CE0DDF1D9984DACEBB2416C0F8013A96E6
:1020E000D8011A969C9197FDB6CF992309F180915A
:1020F0000704981B9F779B3008F0ABCFB394F70190
:102100008481B81608F0C2CECB2CDD24E601CC0FBA
:10211000DD1F8E010C0D1D1D0E0D1F1DF80180858C
:102120000E9441028823D1F6D8011A961C92E6CF6C
:10213000809107048F77F8018287E0CFDF92EF92DA
:10214000FF920F931F93CF93DF937C01FC01968145
:1021500091708481882391F1992309F03AC010E0AD
:1021600005C01F5FF7018481181740F5812F90E0AB
:10217000EC01CC0FDD1FC80FD91FCE0DDF1D688508
:10218000862F869586958695677040E025DA1A86B3
:10219000809108048B3028F38CE792E054D988852D
:1021A00090E079D98AE792E04ED9898590E073D999
:1021B0005AD91F5FF70184811817C0F281E080931C
:1021C000B602DF91CF911F910F91FF90EF90DF90BA
:1021D0000895DD2405C0D394F7018481D81670F7E3
:1021E0008D2D90E0EC01CC0FDD1FC80FD91FCE0D57
:1021F000DF1D1885012F0695069506951770802F0F
:10220000612F40E0E9D9000F000F000F802F810FF0
:102210000E9409031A86809108048B30E0F28CE753
:1022200092E011D9888590E036D98AE792E00BD9FF
:10223000898590E030D917D9CECF2F923F924F9217
:102240005F926F927F928F929F92AF92BF92CF9246
:10225000DF92EF92FF920F931F93DF93CF9300D003
:1022600000D0CDB7DEB77C013B014A01FC013680CE
:10227000F1E03F229C01295F3F4F3A832983FC0113
:1022800084819581992309F48AC0C82EDD2427E032
:1022900030E0C20ED31ECE0CDF1C5601A90EB11CBD
:1022A00055244424439480E8282EF60180810E941E
:1022B0007003F70184818823F9F0332079F52981AF
:1022C0003A813C832B8310E0F90107C02B813C81CC
:1022D0002F5F3F4F3C832B83F90180810E94410295
:1022E000442D481BC301B40150E021E010D91F5F09
:1022F000F7018481181750F3BC82AB82F60180810C
:102300000E9409035394F7018581581608F047C0CD
:102310000894C11CD11CAB80BC80C7CFBC82AB82EF
:1023200009811A8117C0EB81FC81108240E050E0E6
:102330002B813C812F5F3F4F3C832B83C301B40132
:1023400021E0E5D89B819A19F70184819817B0F6AE
:102350000F5F1F4FF80180810E944102442D481BEE
:1023600011F3EB81FC81908197FD0EC0992371F4EC
:10237000809107048F77EB81FC81808340E050E0FF
:10238000D7CFEB81FC81208250E0D2CF809107042F
:10239000981B9F779B30A8F740E050E0C9CF0F9083
:1023A0000F900F900F90CF91DF911F910F91FF90A1
:1023B000EF90DF90CF90BF90AF909F908F907F90E5
:1023C0006F905F904F903F902F900895CF92DF9243
:1023D000EF92FF920F931F93CF93DF937C0197E0CF
:1023E000C92ED12CCE0CDF1CF70184818823C9F0C3
:1023F000E6011991012F0695069506951770802F15
:10240000612F40E0E9D8000F000F000F802F810FEF
:102410000E9409039E012C19F7018481281748F3B3
:102420006E01F7018581882309F43FC0E601199107
:10243000012F0695069506951770802F612F41E0B4
:10244000CBD8000F000F000F802F810F0E940903CF
:10245000F70195819E012C19291748F36E01F701A8
:10246000868180FF16C08481989FC0011124892B2A
:1024700081F040E050E0F60111926F014F5F5F4F35
:10248000F70185812481829FC001112448175907D3
:1024900094F381E08093B702DF91CF911F910F9168
:1024A000FF90EF90DF90CF90089590E0D8CF8330E9
:1024B00009F449C08430F9F0813009F0089584B1FD
:1024C00021E030E002C0220F331F6A95E2F7922F1D
:1024D0009095982394B9442319F085B1822B85B93E
:1024E0008091680081608093680080916B00282B48
:1024F00020936B0008958DB170E021E030E0062E4E
:1025000002C0220F331F0A94E2F7522F922F9095A8
:1025100098239DB9442319F08EB1822B8EB98091F6
:102520006A0064507040660F771F21E030E002C0FF
:10253000220F331F6A95E2F7822B80936A008DB3D6
:10254000582B5DBB08958AB170E021E030E0062E83
:1025500002C0220F331F0A94E2F7522F922F909558
:1025600098239AB9442319F08BB1822B8BB98091AF
:102570006900660F771F21E030E002C0220F331F91
:102580006A95E2F7822B809369008DB3582B5DBB6F
:1025900008951F920F920FB60F920BB60F9211244F
:1025A000AF92BF92CF92DF92EF92FF920F931F9361
:1025B0002F933F934F935F936F937F938F939F934B
:1025C000AF93BF93EF93FF93DF93CF9300D0CDB73B
:1025D000DEB783B1898399B18CB1807F9F70892BDD
:1025E0008A838091BC02882309F0A0C00091BA02BE
:1025F0001091BB0269817A810617170709F477C029
:102600005B01A026B1268091B902882309F46BC032
:10261000ADEBB2E0815041E0C42ED12CE82EFF2476
:10262000EE0CFF1CEE0CFF1C81EC92E0E80EF91E94
:1026300036C0A60111960C90119702C0440F551F89
:102640000A94E2F7C90180239123892B09F048C03D
:10265000F0E0E4E0CA0180239123892B09F4EF2FF5
:1026600026233723232B09F0E26046235723452BEB
:1026700009F0E160F0E0E352FD4F2081332727FDB0
:10268000309512968D919C911397820F931F1396FC
:102690009C938E9312971496AE15BF0521F1960167
:1026A0000C9002C0220F331F0A94E2F7C9018A215D
:1026B0009B21892B09F0BDCFA60111960C90119793
:1026C00002C0440F551F0A94E2F7CA018A219B21D8
:1026D000892B09F3C90180239123892B09F4B8CFF1
:1026E000F8E0ECE0B7CF7093BB026093BA020F90B2
:1026F0000F90CF91DF91FF91EF91BF91AF919F919B
:102700008F917F916F915F914F913F912F911F9189
:102710000F91FF90EF90DF90CF90BF90AF900F9010
:102720000BBE0F900FBE0F901F9018951092BC0219
:1027300089819A819093BB028093BA02D8CFDC0141
:10274000CB01BA01F89478941796EC911797F0E0C2
:10275000EE0FFF1FEE0FFF1FE354FD4F4281538129
:1027600016962C910C94870AFF920F931F93CF9388
:10277000DF93EC018091B8028823D1F18C81182F6E
:10278000169516951695082F0770812F602F40E03B
:102790008EDE8D81E7E0FE2EF82286958695869561
:1027A0006F2D40E084DE9091B902E92FF0E0113006
:1027B000E9F19F01220F331F220F331FF901E35468
:1027C000FD4F085F008388E0F901E354FD4F8F0D52
:1027D0008183138212829F839F5F9093B90281E06D
:1027E0008093B802DF91CF911F910F91FF900895D0
:1027F0001092B90291E09093BC0280E1EDEDF2E01D
:10280000DF011D928A95E9F79093E8028FEF80939C
:10281000E5029093EA028093EB029093E1028093A9
:10282000E4029093DF028093DE02A8CF9F01220F83
:10283000331F220F331FF901E354FD4F008380E063
:10284000C3CF1F93CF93DF93EC01CB01BA0141E0DB
:102850000E94BC0A182F82E892E00E94230A812F6E
:1028600090E00E94670A0E94330A8D8180FF03C0B6
:1028700081E0811B182F8C81282F2695269526957F
:102880008770112351F4220F220F220F820F0E9412
:102890007003DF91CF911F910895220F220F220F15
:1028A000820F0E940903DF91CF911F9108950F932A
:1028B0001F93CF93DF93EC0180910804882331F5B7
:1028C0008C81082F069506950695182F17708D8117
:1028D00080FF14C0802F880F880F880F810F0E94FF
:1028E0000903802F612F41E00E94EC0A81E0809370
:1028F000ED02DF91CF911F910F910895802F880FE6
:10290000880F880F810F0E947003EBCF81E992E05E
:102910000E94230AD5CFFF920F931F93CF93DF938B
:10292000EC01CB01BA0142E00E94BC0A082F809161
:1029300008048B30A0F50130D1F08D81182F169549
:102940001695169527E0F22EF8228C810E947003CE
:102950000230C1F4110F110F110F812F8F0D0E9442
:102960000903DF91CF911F910F91FF9008958D8101
:10297000182F16951695169597E0F92EF8228C814A
:102980000E940903110F110F110F812F8F0D0E944B
:102990007003DF91CF911F910F91FF9008958BE904
:1029A00092E00E94230A802F90E00E94670A0E9412
:1029B000330AC1CFEF92FF920F931F93FC01148152
:1029C000F12EF694F694F69417700581E02EE694B5
:1029D000E694E69407708F2D880F880F880F810F7B
:1029E0000E9470038E2D880F880F880F800F0E9421
:1029F00070038F2D612F41E00E94EC0A8E2D602F15
:102A000041E00E94EC0A81E08093EE021F910F9159
:102A1000FF90EF900895FF920F931F93CF93DF9352
:102A2000EC01CB01BA0142E00E94BC0A182F82EBF4
:102A300092E00E94230A812F90E00E94670A0E9480
:102A4000330A113071F11230E1F01330B1F1FF248B
:102A50008D81182F169516951695082F07708C8165
:102A60000E947003FF2081F4110F110F110F812FAD
:102A7000800F0E947003DF91CF911F910F91FF9003
:102A80000895FF24F394E4CF110F110F110F812F3C
:102A9000800F0E940903DF91CF911F910F91FF904A
:102AA0000895FF248D81182F169516951695082FD9
:102AB00007708C810E940903D5CFFF24F394F2CFD5
:102AC000EF92FF920F931F93FC011481F12EF69465
:102AD000F694F69417700581E02EE694E694E69459
:102AE00007708F2D880F880F880F810F0E94700349
:102AF0008E2D880F880F880F800F0E9470038F2DF6
:102B0000612F41E00E94EC0A8E2D602F41E00E946F
:102B1000EC0A81E08093EF021F910F91FF90EF90FC
:102B20000895982F9695969596958770662331F41B
:102B3000990F990F990F890F0C947003990F990FA2
:102B4000990F890F0C9409031F93CF93DF93EC0126
:102B5000CB01BA0143E00E94BC0A182F8F8180FD8F
:102B60001095612F64708C81DCDF612F62708D8124
:102B7000D8DF11708E81612FD4DFDF91CF911F914B
:102B800008950F931F93082F069506950695182F05
:102B90001770662379F0802F880F880F880F810FB8
:102BA0000E940903802F612F41E00E94EC0A1F91CF
:102BB0000F910895802F880F880F880F810F0E9432
:102BC0007003802F612F41E00E94EC0A1F910F914A
:102BD00008950F931F938C01FC01678170E0617071
:102BE00070708481CEDFF801678170E06170707071
:102BF0008581C7DFF801678170E061707070868140
:102C0000C0DF81E08093F0021F910F910895CF9370
:102C1000DF93EC01809108048B3080F48B818093EA
:102C2000F1009E012C5F3F4FF90181918093F100EB
:102C300080818093F100DF91CF9108958B8190E0A6
:102C40000E944B0A80E20E94000A8B818093F1006F
:102C50009E012C5F3F4F809108048B3028F38C81BC
:102C600090E00E944B0A80E20E94000A8C818093CF
:102C7000F100FE013596809108048B30C8F28D81F9
:102C800090E00E944B0A80E20E94000A8D818093AE
:102C9000F100809108048B3070F20E94330ADF91BA
:102CA000CF9108951F93CF93DF93EC01162F8E8160
:102CB000882321F16A85862F86958695869567708B
:102CC000412F0E94EC0A6B85862F86958695869506
:102CD0006770412F0E94EC0A6C85862F8695869539
:102CE00086956770412F0E94EC0A6D85862F869528
:102CF000869586956770412F0E94EC0A6E85862F17
:102D00008695869586956770412F0E94EC0A6F859F
:102D1000862F8695869586956770412F0E94EC0ACE
:102D20006889862F8695869586956770412F0E94C3
:102D3000EC0A6989862F8695869586956770412F5E
:102D40000E94EC0ADF91CF911F910895DF92EF92DC
:102D5000FF920F931F93CF93DF93EC01D62EE42EB7
:102D60008E81882309F454C0CE0160E09BDF8F81FF
:102D70000E94700388850E9409030FEF92E0F92EEC
:102D800002C0015079F089850E9409038F2D8A9530
:102D9000F1F789890E944102182F89850E947003EA
:102DA000112379F7CE0161E07DDFDD2009F0CCC091
:102DB0008F810E94700388850E9470031E2DE0FEA3
:102DC000CCC08A850E94090311FFCCC08B850E946C
:102DD000090312FFCCC08C850E94090313FFCCC0ED
:102DE0008D850E94090314FFCCC08E850E940903C3
:102DF00015FFCCC08F850E94090316FFCCC08889BF
:102E00000E940903E7FC70C089890E9470036FC0AB
:102E1000CE0160E047DF8F810E94700388850E94A9
:102E200009030EEF82E0F82E03C001500F3FF1F0CE
:102E300089850E9409038F2D8A95F1F789890E945F
:102E40004102182F89850E9470038F2D8A95F1F712
:102E500089850E9409038F2D8A95F1F789890E943F
:102E6000410289850E9470031123F9F6CE0161E0C9
:102E700019DFDD2009F04CC08F810E947003888526
:102E80000E9470030E2DE4FE4CC08E850E94090343
:102E900005FF4CC08F850E94090306FF4CC088893E
:102EA0000E940903E7FC4CC089890E947003898550
:102EB0000E94090312E0812F8A95F1F789850E940B
:102EC00070031A95F1F700FF72C08E850E94090306
:102ED00001FF69C08F850E94090302FF60C08889D5
:102EE0000E94090303FF90CF89890E940903898505
:102EF0000E94090382E08A95F1F789850E94700398
:102F0000DF91CF911F910F91FF90EF90DF90089587
:102F10008F810E94090388850E9470030E2DE4FCB6
:102F2000B4CF8E850E94700305FDB4CF8F850E94BB
:102F3000700306FDB4CF88890E947003E7FEB4CF0A
:102F400089890E940903B3CF8F810E940903888574
:102F50000E9470031E2DE0FC34CF8A850E9470030E
:102F600011FD34CF8B850E94700312FD34CF8C8508
:102F70000E94700313FD34CF8D850E94700314FDF1
:102F800034CF8E850E94700315FD34CF8F850E944B
:102F9000700316FD34CF88890E94700333CF88896F
:102FA0000E9470039FCF8F850E94700396CF8E85FD
:102FB0000E9470038DCFBF92CF92DF92EF92FF926B
:102FC0000F931F93CF93DF938C017A016901FC016A
:102FD0008381861741F1C62FD0E090E00196C81793
:102FE000D90709F460C080910804882351F4DF9167
:102FF000CF911F910F91FF90EF90DF90CF90BF90F6
:1030000008958AEC92E00E94230ACE010E94670A8A
:103010008FE30E94000AF801838190E00E94670A12
:103020000E94330AE4CF809108048B3008F091C0ED
:10303000C701B60148E00E94BC0AB82EC701B6011C
:1030400048E00E94BC0AF8012481E82FF0E0822FBA
:1030500090E0E817F9071CF02150E22FF0E0E00FB4
:10306000F11F42894B0D4068C80160E06FDEF80136
:103070008581882309F4BBCFC0E0D0E00BC0C80134
:1030800061E064DE2196F801858190E0C817D907D8
:103090000CF0ADCFC701B60148E00E94BC0A482F32
:1030A000882369F7A4CF809108048B3008F058C0BA
:1030B000C701B60148E00E94BC0A482F440F440FE4
:1030C000440F4064C80160E041DEC701B60145E03D
:1030D0000E94BC0A482FC80161E038DEC701B60172
:1030E00045E00E94BC0A482FC80161E02FDEC701FD
:1030F000B60145E00E94BC0A482FC80161E026DE07
:10310000C701B60145E00E94BC0A482FC80161E032
:103110001DDEC701B60145E00E94BC0A482FC80168
:1031200061E014DEC701B60145E00E94BC0A482FE9
:10313000C80161E00BDEC701B60145E00E94BC0A90
:10314000482FC80161E002DEC80161E040E0FEDD19
:103150004ECF81EE92E00E94230A0E94330A68CF8C
:1031600083EF92E00E94230A0E94330AA1CF0F93BB
:103170001F93CF93DF93EC01162F042F61E092DDB4
:10318000112349F18F810E94090388850E947003F1
:10319000102F00FF29C08E850E94090311FF29C04E
:1031A0008F850E94090312FF29C088890E940903A4
:1031B00013FD29C089890E94700389850E94090333
:1031C00082E08A95F1F789850E947003DF91CF91A3
:1031D0001F910F9108958F810E94700388850E942E
:1031E0007003102F00FDD7CF8E850E94700311FD54
:1031F000D7CF8F850E94700312FDD7CF88890E9498
:10320000700313FFD7CF89890E940903D6CFCF93CC
:10321000DF93EC018091F102882309F469C08F816A
:103220000E94700388850E94700389850E94700344
:10323000CE0160E037DD6F81862F86958695869575
:10324000677041E00E94EC0A6885862F8695869516
:103250008695677041E00E94EC0A6985862F869505
:1032600086958695677041E00E94EC0A909108046B
:10327000992309F067C08E81882309F043C0992300
:1032800009F0A2C0CE0160E043E071DF80E197E287
:103290000197F1F7CE0160E043E069DF88EC90E050
:1032A0000197F1F7CE0160E043E061DFCE0160E01D
:1032B00042E05DDF8C81823008F481C0CE0160E0A5
:1032C00048E244DDCE0160E048E040DDCE0160E050
:1032D00041E03CDDCE0160E046E038DDCE0160E05B
:1032E0004CE034DD81E08093F102DF91CF910895CD
:1032F000809107048D3208F092CF809107048D32BF
:10330000B8F38DCF992309F069C0CE0160E040E3A6
:103310001DDD80E197E20197F1F7CE0160E040E327
:1033200015DD88EC90E00197F1F7CE0160E040E315
:103330000DDD8C81823008F44CC0CE0160E048E3A2
:1033400005DDC0CF80E293E00E94230A8F8190E0E8
:103350000E944B0A8BE193E00E94230A888590E04B
:103360000E944B0A87E193E00E94230A898590E03E
:103370000E944B0A82E193E00E94230A8E8590E02E
:103380000E944B0A8DE093E00E94230A8F8590E013
:103390000E944B0A88E093E00E94230A888990E00B
:1033A0000E944B0A83E093E00E94230A898990E0FF
:1033B0000E944B0A0E94330A909108045CCFCE0110
:1033C00060E040E2C3DC7ECF8CE393E00E94230AFE
:1033D00059CFCE0160E040E3B9DC74CF84E293E0E2
:1033E0000E94230A92CF1F920F920FB60F920BB634
:1033F0000F9211248F939F93EF93FF93289A9091AC
:10340000F9038091FA039817B1F0E091FA03EF5FA6
:10341000E093FA032898F0E0E750FD4F80818EBDDD
:10342000FF91EF919F918F910F900BBE0F900FBE68
:103430000F901F9018958CB58F778CBDF1CF282FEA
:103440009091F9039F5F8091FA03981799F0F8948F
:103450000CB407FC07C078948CB580688CBD2898A4
:103460002EBD0895E92FF0E0E750FD4F20839093A3
:10347000F903789408950F931F93CF93DF938C01F2
:103480006115710539F0EB01F80181918F01D7DFEA
:103490002197D1F7DF91CF911F910F910895CF938D
:1034A000DF93EC01809108048B3080F48B81809352
:1034B000F1009E012C5F3F4FF90181918093F10053
:1034C00080818093F100DF91CF9108958B8190E00E
:1034D0000E944B0A80E20E94000A8B818093F100D7
:1034E0009E012C5F3F4F809108048B3028F38C8124
:1034F00090E00E944B0A80E20E94000A8C81809337
:10350000F100FE013596809108048B30C8F28D8160
:1035100090E00E944B0A80E20E94000A8D81809315
:10352000F100809108048B3070F20E94330ADF9121
:10353000CF91089580910804882311F58091F202BB
:103540008823D1F484E68093F3028FEF9FEF90936A
:10355000F5028093F4021092F7021092F602109294
:10356000F802239884B1876084B983E58CBD289ADA
:103570001092FA031092F90381E08093F202089509
:1035800084ED93E00E94230A0E94330AD7CF8F92E2
:103590009F92AF92BF92CF92DF92EF92FF920F93E2
:1035A0001F93DF93CF93CDB7DEB76A970FB6F8942A
:1035B000DEBF0FBECDBF5C017A016901FC018381D2
:1035C0008617C9F1062F10E0282F30E0C9010196B7
:1035D0000817190709F475C02E5F3F4F021713072C
:1035E00009F4E1C080910804882399F46A960FB623
:1035F000F894DEBF0FBECDBFCF91DF911F910F9129
:10360000FF90EF90DF90CF90BF90AF909F908F9002
:10361000089584E593E00E94230AC8010E94670A86
:103620008FE30E94000AF501838190E00E94670AFF
:103630000E94330ADBCF809108048B3008F0EFC082
:10364000C701B60149E00E94BC0A982E892EC70125
:10365000B60148E00E94BC0A082FC701B60141E04C
:103660000E94BC0A182FC701B60146E00E94BC0A9E
:10367000112309F4CAC085E88F87988A898A0A8B42
:10368000CE010F9664E070E0F6DE83E8D8DEF50147
:103690008581882399F000E010E009C0D0DE0F5F3B
:1036A0001F4FF501858190E0081719073CF4C70109
:1036B000B60148E00E94BC0A882381F780E0BFDEA3
:1036C00095CF809108048B3008F0B0C0C701B601D7
:1036D00041E00E94BC0A882EC701B60147E00E9463
:1036E000BC0A982EC701B60140E10E94BC0A8C01B9
:1036F000C701B60140E10E94BC0A5C01C701B601E6
:1037000041E00E94BC0AF82E8091F302981651F015
:1037100087E88A839B82CE01029662E070E0ABDE8E
:103720009092F3028091F4029091F5020817190724
:1037300069F081E889871B870A87CE01099663E0D3
:1037400070E099DE1093F5020093F4028091F60286
:103750009091F702A816B90669F080E88C87BE86BA
:10376000AD86CE010C9663E070E085DEB092F70284
:10377000A092F6028091F802F81651F086E88C8348
:10378000FD82CE01049662E070E075DEF092F802F0
:10379000882009F42BCF82E88983CE01019661E06D
:1037A00070E069DE23CF809108048B3030F085EB28
:1037B00093E00E94230A0E94330A89E88B8BC70199
:1037C000B60141E00E94BC0A8A8FC701B60149E0F8
:1037D0000E94BC0A9D8B8C8BC701B60148E00E94F9
:1037E000BC0A8E8BC701B60149E00E94BC0A988FC3
:1037F0008F8BC701B60148E00E94BC0A898FCE01B9
:10380000439668E070E037DEF1CE84E88E839F82D5
:103810000887CE01069663E070E02DDE36CF8FE696
:1038200093E00E94230A0E94330A0ACF8FE893E0B4
:103830000E94230A0E94330A49CF3F924F925F921F
:103840006F927F928F929F92AF92BF92CF92DF92B0
:10385000EF92FF920F931F93CF93DF937C013B0175
:103860002A01FC018581882309F4C7C000E0BB243C
:1038700011E0AA24A39421E0822E912C90E8392E05
:103880000DC0992309F04CC0CE0DDF1D1886F7013D
:103890008581912F9F5F181740F5192F1150C12E68
:1038A000DD241F5FE601CC0FDD1FF701EC0FFD1FCC
:1038B00087810E944102982FF701868180FF03C013
:1038C000FA2DF91B9F2F81FDDCCF992301F3C40151
:1038D00002C0880F991FCA94E2F7082BB12EF70196
:1038E0008581912F9F5F1817C0F2823009F46DC057
:1038F000843061F14B2D50E0CA010197833091056E
:1039000009F441C08430910584F58130910509F4B2
:1039100059C0823091050CF472C043E050E035C0CC
:10392000F701EC0FFD1F908597FDD1CF992329F466
:10393000809107048F778087AACF80910704981B16
:103940009F779B3008F4A3CF3086C1CF0530A1F11B
:10395000063008F042C00230A9F10430F1F2013023
:1039600009F44FC04B2D50E010C08530910539F15E
:10397000853091050CF186309105E1F1079729F426
:1039800046E050E002C047E050E0C301B20124E04D
:103990000E94870ADF91CF911F910F91FF90EF90C6
:1039A000DF90CF90BF90AF909F908F907F906F905F
:1039B0005F904F903F90089542E050E0E6CF48E09E
:1039C00050E0E3CF45E050E0E0CFC301B2014B2D22
:1039D00050E022E00E94870ADDCF0830A1F20930D2
:1039E00030F0093061F30A3009F0BCCFC9CF06309E
:1039F00009F0B8CF44E050E0C8CFBB247BCF892B7F
:103A000021F641E050E0C1CFDF92EF92FF920F9399
:103A10001F93CF93DF937C01FC018581882381F183
:103A2000DD240FC0110F110F110F812F800F0E9485
:103A30000903CE0DDF1D1886D394F7018581D816B2
:103A4000F8F4CD2DD0E0CC0FDD1FF701EC0FFD1FFA
:103A50008781182F169516951695082F0770812FB8
:103A6000602F40E00E94EC0AF701868180FDDACFEA
:103A7000110F110F110F812F800F0E947003D9CFEA
:103A800081E08093FB03DF91CF911F910F91FF9015
:103A9000EF90DF900895FC01CB01BA014091FF0344
:103AA000509100042091FD033091FE0342235323E3
:103AB00026810C94870A0F931F93DF93CF9300D036
:103AC00000D0CDB7DEB78C01FC0184819581909345
:103AD00003018093020110920504109204041092D5
:103AE00000041092FF0381E090E0A0E0B0E00680C7
:103AF00004C0880F991FAA1FBB1F0A94D2F7019711
:103B0000A109B10989839A83AB83BC839093FE0397
:103B10008093FD03809108048230F8F089EF93E0F0
:103B20000E94230A80910201909103010E944B0A96
:103B300081EF93E00E94230AF801868190E00E94C1
:103B40004B0A89EE93E00E94230A8091FD03909135
:103B5000FE030E944B0A0E94330A0F900F900F90B1
:103B60000F90CF91DF911F910F91089516161706B0
:103B70000CF06AC0FC0120E030E0A2E038C0223046
:103B8000310519F02115310561F58081813009F485
:103B900096C05AE040E1818192818034910509F418
:103BA00096C08134910508F05FC08130910509F419
:103BB00098C0089721F4452F440F487142602115A1
:103BC000310509F042C010926F00A093800040932D
:103BD000810010928200838194819093870080936A
:103BE00086002F5F3F4F3596261737076CF521303B
:103BF000310529F68081813009F454C045E051E057
:103C0000818192818034910509F454C081349105F9
:103C1000C0F58830910509F473C08032910509F42C
:103C20006AC0019709F462C088E010927000509356
:103C3000B0008093B10083818093B3002F5F3F4F2A
:103C40003596261737079CF2089510927100A093BD
:103C50009000409391001092920083819481909300
:103C6000970080939600BDCFB1E080309B07A1F113
:103C70008050944009F0A3CF452F440F4871456010
:103C80009ECFB1E080309B0709F444C0B4E080309F
:103C90009B07D9F18038910539F6842F880F8870F9
:103CA0008560C3CF47E053E08181928180349105E4
:103CB00009F0ACCF842F880F88708460B6CF5EE0A7
:103CC00048E1818192818034910509F06ACF452FC6
:103CD000440F4871436073CF452F440F48714460CF
:103CE0006ECF452F440F4871416069CF842F880FF4
:103CF000887081609ACF842F880F8870836095CFF9
:103D0000842F880F8870826090CF842F880F8870EE
:103D100087608BCF842F880F8870866086CFDF9274
:103D2000EF92FF920F931F93DF93CF9300D0CDB705
:103D3000DEB78C01FC018481882339F5CB01BA01FF
:103D400045810E94BC0A9A838983F801E680F78046
:103D5000E816F90610F4FA82E982D9808091080405
:103D60008B3008F062C0F8018481882321F48E2D05
:103D70008D198093B4000F900F90CF91DF911F9118
:103D80000F91FF90EF90DF900895CB01BA01F801F9
:103D900045810E94BC0AF80146815781481759079E
:103DA000D8F07A01E81AF90A809108048B3030F5CE
:103DB000F8018481833009F451C08430B0F085303B
:103DC00009F45BC0853008F453C08630A1F6F09248
:103DD0009D00E0929C00CFCFCA017A01E81AF90A4F
:103DE000809108048B3020F309C08130E1F18230EA
:103DF00011F6F0928B00E0928A00BDCF86E194E04C
:103E00000E94230AF801848190E00E944B0A8DE011
:103E100094E00E94230AC7010E944B0A0E94330AC1
:103E2000F8018481833049F619C089E294E00E9448
:103E3000230AF801848190E00E944B0A80E294E01A
:103E40000E94230A89819A810E944B0A0E94330AA8
:103E5000F8018481882309F08ECF89CFF0928D00FC
:103E6000E0928C0088CFF0928900E092880083CFA6
:103E7000F0929900E09298007ECFF0929B00E09241
:103E80009A0079CFCF93DF93EC016C81862F8695D2
:103E900086958695677041E00E94EC0A8C8184319A
:103EA00009F46BC08531C0F0863109F453C0863106
:103EB00068F585E08C83809190008063809390000A
:103EC0008E819F8190939B0080939A0081E08093E4
:103ED000FC03DF91CF9108958E3009F461C08F30DB
:103EE00031F18D3069F481E08C8380918000806CA9
:103EF000809380008E819F819093890080938800B9
:103F000081E08093FC03DF91CF9108958931C1F75F
:103F10001C828091B00080638093B0008E8180937A
:103F2000B40081E08093FC03DF91CF91089583E09A
:103F30008C83809180008C60809380008E819F8133
:103F400090938D0080938C0081E08093FC03DF913F
:103F5000CF91089584E08C8380919000806C809351
:103F600090008E819F81909399008093980081E0CA
:103F70008093FC03DF91CF91089586E08C8380913C
:103F800090008C60809390008E819F8190939D0023
:103F900080939C0081E08093FC03DF91CF91089592
:103FA00082E08C83809180008063809380008E818A
:103FB0009F8190938B0080938A0081E08093FC0323
:103FC000DF91CF9108951F93DF93CF93CDB7DEB7E5
:103FD000AC970FB6F894DEBF0FBECDBF1091F100C5
:103FE000109311048091F100809312048091F100EC
:103FF000809313048091F100809314048091F10068
:10400000809315048091F100809316048091F10053
:10401000809317048091F100809318048091080424
:104020008B3008F062C080911204853009F475C0AD
:10403000863018F1883009F41FC1893009F4BAC0FC
:10404000863009F4D7C00E949A058091E80083FF6A
:104050000AC08091EB0080628093EB008091E800C1
:10406000877F8093E800AC960FB6F894DEBF0FBE52
:10407000CDBFCF91DF911F910895813009F4E9C040
:10408000813008F078C0103811F01238E1F68091D4
:104090001104803809F432C18238B9F680911504D0
:1040A0008093E9008091EB0090E09695879592953A
:1040B00082958F7089279F708927982F9170109211
:1040C000E9008091E800877F8093E8009093F100F9
:1040D0001092F1008091E800982F9E7F9093E80065
:1040E0008F778093E800E8D1B0CF82E50E94000A84
:1040F0008091120490E00E94670A8EE20E94000AFA
:104100008091110490E00E94670A80E20E94000AF8
:1041100080911204853009F08BCF112309F093CFE1
:10412000109113048091E800877F8093E800C4D148
:1041300005C080911004882309F487CF8091E8009E
:1041400080FFF7CF1F7719F083E080931004812F51
:1041500080688093E300809108048B3008F475CF69
:1041600081E40E94000A812F90E00E94670A80E2A9
:104170000E94000A6ACF833009F065CF112319F03D
:10418000123009F060CF8091110490E08F7190702F
:10419000009709F07EC090911304913009F055CF3B
:1041A00010920C0480911204833009F09EC0909309
:1041B0000C049BC0112309F046CF809108048B307A
:1041C00008F0A5C090911304923008F03ECF809182
:1041D000E800877F8093E80090930D046DD1809173
:1041E0000D04882309F0E2C083E0809310040E944C
:1041F00096042BCF1058123008F025CF8091080478
:104200008B3008F08EC0809113049091140423E049
:104210008C3D920709F49BC060911504AE014F5F7D
:104220005F4F0E94C208BC01009709F40ECF809135
:10423000E800877F8093E80089819A8167D1809127
:10424000E800982F9B7F9093E8008F778093E80099
:10425000FCCE809108048B3008F490CF86E394E084
:104260000E94230A8091110490E00E944B0A83E38C
:1042700094E00E94230A82CF103809F0E4CE8091A6
:10428000E800877F8093E80080910D048093F1001F
:1042900021CF029709F0D9CE80911304882329F504
:1042A00020911504277009F4D0CE2093E900809165
:1042B000EB0080FF1AC080911204833009F478C0AB
:1042C0008091EB0080618093EB0081E090E002C080
:1042D000880F991F2A95E2F78093EA001092EA006E
:1042E0008091EB0088608093EB001092E900809150
:1042F000E800877F8093E800DFD0A7CE90910B0481
:1043000080910C04882309F4DCCE9260DACE83E439
:104310000E94000A80911304909114040E94670A7D
:1043200051CF84E40E94000A8091130490911404F8
:1043300090700E94670A8EE20E94000A8091140425
:1043400090E00E94670A80E20E94000A5CCFDE01D2
:1043500015964EE020E030E051E2E42FF0E050937B
:104360005700849120FF03C082958F704F5F982F74
:104370009F70892F805D8A3308F0895F8C93119636
:104380001C9211972F5F3F4F12962431310529F768
:104390008091E800877F8093E8008AE28B8383E046
:1043A0008C83CE0103966AE270E048CF84E01DCF93
:1043B0008091EB0080628093EB0097CF8093E900BF
:1043C0008091EB0081608093EB001092ED00609390
:1043D000EC004093ED008091EE00881F8827881F35
:1043E0000895CF93DF931092F40069EE70E0EB0133
:1043F000188240EF50E0FA01108228EE30E0E90127
:104400001882ADEEB0E08C918D7F8C93EBEEF0E0F6
:1044100080818E7F808381E0EB018883EA011882AE
:10442000E90118828C918D7F8C9380818E7F8083AF
:1044300082E0EB018883EA011882E90118828C91FD
:104440008D7F8C9380818E7F808383E0EB018883D6
:10445000EA011882E90118828C918D7F8C9380810A
:104460008E7F808384E0EB018883EA011882E90172
:1044700018828C918D7F8C9380818E7F808385E0E4
:10448000EB018883EA011882E90118828C918D7F03
:104490008C9380818E7F808386E0EB018883EA01A4
:1044A0001882E90118828C918D7F8C9380818E7F98
:1044B0008083DF91CF9108958091110488234CF07F
:1044C0008091E80080FD0EC0809110048823C1F720
:1044D00008958091E80082FD0FC080911004882328
:1044E000C1F708958091E800982F9E7F9093E8008F
:1044F0008F778093E80008958091E800982F9B7F44
:104500009093E8008F778093E80008959C01809154
:104510001704909118048617970708F063C0BC0130
:10452000F90140E06115710541F5442309F450C0DB
:104530008091E80083FD64C08091E80082FD48C05E
:1045400080911004882309F44BC08091E80080FF1B
:10455000EFCF2091F2003091F30040E0203431059C
:10456000A9F18091E800982F9E7F9093E8008F77C3
:104570008093E80061157105C1F2442309F442C03B
:104580008091E80083FD3CC08091E80082FD20C05E
:1045900080911004882321F18091E80080FFF0CF02
:1045A0002091F2003091F3000AC081918093F100D4
:1045B000615070402F5F3F4F6115710571F22034DB
:1045C000310598F340E02034310559F641E0C9CF78
:1045D0008091E80082FD27C0809110048823C1F7F4
:1045E00082E008956115710509F09ACF8091E80085
:1045F000982F9E7F9093E8008F778093E80090CF6C
:1046000081E008958091E80083FDFACF8091E80071
:1046100082FDDECF80911004882311F38091E800A1
:1046200080FFF0CFBDCF80E0089573D07AD0109294
:10463000100410920D0410920C0410920B0480913F
:104640000E0482FD08C08CE089BD89B5826089BDF9
:1046500009B400FEFDCF8091D800982F9F779093EA
:10466000D80080688093D80080910E0481FD32C00C
:104670008091D70081608093D7008091D8008F7D92
:104680008093D80080910E0480FD2AC08091E000C4
:104690008B7F8093E0008091E0008E7F8093E0002C
:1046A0008091E1008E7F8093E1008091E200816043
:1046B0008093E2008091E100877F8093E100809108
:1046C000E20088608093E2008091D800816080934E
:1046D000D80008958091D7008E7F8093D700CDCFEA
:1046E0008091E00084608093E000D5CF80930E0439
:1046F000E7EDF0E080818068808397DFE8EDF0E00F
:1047000080818061808381E080930F047894089594
:104710000895E8EDF0E080818C7F80831092E200C4
:1047200008951092DA001092E10008951F920F92FE
:104730000FB60F920BB60F9211242F933F934F9306
:104740005F936F937F938F939F93AF93BF93EF93F9
:10475000FF938091DA0080FF04C08091D80080FD33
:104760007AC08091E10080FF04C08091E20080FD6A
:1047700055C08091E10084FF04C08091E20084FD77
:1047800023C08091E10083FF04C08091E20083FD9B
:1047900079C08091E10082FF04C08091E20082FD37
:1047A00069C0FF91EF91BF91AF919F918F917F91E0
:1047B0006F915F914F913F912F910F900BBE0F9092
:1047C0000FBE0F901F90189580910E0482FD08C0B7
:1047D0008CE089BD89B5826089BD09B400FEFDCF3A
:1047E0008091D8008F7D8093D8008091E1008F7EEA
:1047F0008093E1008091E2008F7E8093E2008091BF
:10480000E20081608093E20080910D04882309F426
:104810005EC084E0809310047BDFB3CF8091E10021
:104820008E7F8093E1008091E2008E7F8093E20092
:104830008091E20080618093E2008091D8008062E4
:104840008093D80080910E0482FF19BC85E080938C
:1048500010045EDF8ECF8091DA008E7F8093DA00C5
:104860008091D90080FF2EC081E0809310040E94C7
:104870007E0477CF8091E1008B7F8093E1000E94DE
:104880007D048FCF8091E100877F8093E10082E0FB
:104890008093100410920D048091E1008E7F80932C
:1048A000E1008091E2008E7F8093E2008091E2003F
:1048B00080618093E20095DD80E060E042E37EDD90
:1048C00027DF67CF109210040E9486044ACF83E04E
:1048D000A1CF1F9380911004882359F01091E90013
:1048E0001092E9008091E80083FD05C017701093D5
:1048F000E9001F91089567DBF9CFAA1BBB1B51E1AB
:1049000007C0AA1FBB1FA617B70710F0A61BB70B3F
:10491000881F991F5A95A9F780959095BC01CD01E4
:064920000895F894FFCF9A
:0449260000F0FFFF9F
:00000001FF
